:100000000C94E3020C942A030C942A030C943323DB
:100010000C942A030C942A030C942A030C942A03AC
:100020000C942A030C942A030C94D12A0C94A32B2D
:100030000C9401260C942A030C942A030C942A0392
:100040000C942A030C942A030C942A030C942A037C
:100050000C942A030C9476260C942A030C942A03FD
:100060000C942A030C942A030C942A030C942A035C
:100070000C942A030C942A030C942A030C942A034C
:100080000C942A030C942A030C942A030C942A033C
:100090000C942A030C942A030C942A030C942A032C
:1000A0000C942A030C942A030C942A03C705C70551
:1000B000F905F90546066406780778076F0608070C
:1000C00019071907180818082A082A0821082A08F1
:1000D0002A082A081808180826082A082A082608BC
:1000E000102C372C2F2D372C2F2D832CA62C2F2D79
:1000F000FD2C0C2D07634236B79BD8A71A396856DA
:1001000018AEBAAB558C1D3CB7CC5763BD6DEDFD39
:10011000753EF6177231BF000000803F05A84CCD38
:10012000B2D44EB93836A9020C50B9918688083C31
:10013000A6AAAA2ABE000000803F000014001A00F0
:100140000800150017001C0018000C001200130016
:100150001E0004001600070009000A000B000D0035
:100160000E000F002D001E001F001D001B000600CA
:1001700019000500110010003600370028001E008D
:100180001F00E100E000E300E2002C412C420000EF
:10019000E000E300E2002A0000001F002000210030
:1001A000220023000000000000000000000000000A
:1001B0000000200021002200230024000000000095
:1001C00000000000000000000000200021002200CC
:1001D00023002400000000000000000000000000D8
:1001E00000001E001F00200021002200000000006F
:1001F0000000000000000000000000001E001F00C2
:1002000020002100220023002400250026002700D2
:100210001E001E021F0220022102220223022402CB
:100220002502260227021E001F0057005600550017
:1002300054006700350089002F1230122D121E0065
:100240001F002B0049002C002C002C412C420000E8
:10025000E000E300E2002A0000001F00200021006F
:100260002200230000000000000000000000000049
:1002700000002000210022002300240000000000D4
:10028000000000000000000000002000210022000B
:100290002300240000000000000000000000000017
:1002A00000001E001F0020002100220000000000AE
:1002B0000000000000000000000000003A003B00C9
:1002C0003C003D003E003F00400041004200430032
:1002D0001E001F0231003300331234005000510061
:1002E00052004F002E001E001F00C35CC45CC65CA1
:1002F000C75CC85CC95CCA5C2F00300031001E00BE
:100300001F002B0049002C002C002C412C42000027
:10031000E000E300E2002A0000001F0020002100AE
:100320002200230000000000000000000000000088
:100330000000200021002200230024000000000013
:10034000000000000000000000002000210022004A
:100350002300240000000000000000000000000056
:1003600000001E001F0020002100220000000000ED
:100370000000000000000000000000047F3F1F6438
:100380003214643214783C1E1E140A05FFAA7F55ED
:10039000400001010101010101010102020202020A
:1003A000020202020303030303030303040404041D
:1003B00004040405050505050606060606070707E5
:1003C000070708080808090909090A0A0A0B0B0B9C
:1003D0000C0C0C0D0D0D0E0E0E0F0F0F1010111139
:1003E00011121213131414151516161717181819BD
:1003F000191A1A1B1B1C1D1D1E1E1F202021222224
:10040000232424252626272829292A2B2C2D2D2E66
:100410002F30313232333435363738393A3B3C3D80
:100420003E3F404142434445464748494A4C4D4E71
:100430004F50515354555658595A5B5D5E5F616237
:1004400064656668696B6C6D6F7072737577787AC6
:100450007B7D7E8082838587888A8C8E8F91939521
:1004600096989A9C9EA0A2A3A5A7A9ABADAFB1B345
:10047000B5B7BABCBEC0C2C4C6C9CBCDCFD1D4D625
:10048000D8DBDDDFE2E4E7E9EBEEF0F3F5F8FAFDC7
:10049000FF100363006F006F006C00340034003500
:1004A0000000001403740065006C007A006F0032D5
:1004B0000030003000300000000403090409023B52
:1004C00000020100A0FA0904000001030101000973
:1004D00021110100012240000705810308000A09DB
:1004E0000401000103000000092111010001227B29
:1004F000000705820320000A120100020000000824
:10050000434D450401000102000105010902A1015A
:1005100085020901A1000509190129081500250115
:100520009508750181020501093009311581257F82
:1005300095027508810609381581257F9501750892
:100540008106050C0A38021581257F950175088101
:1005500006C0C005010980A101850319012AB70061
:10056000150126B700950175108100C0050C090121
:10057000A101850419012AA002150126A0029501F6
:1005800075108100C005010906A101050719E029C0
:10059000E71500250195087501810295017508810F
:1005A000010507190029FF150026FF0095067508AB
:1005B000810005081901290595057501910295012C
:1005C00075039101C00011241FBECFEFDAE0DEBF3A
:1005D000CDBF04B603FE27C080915503909156030A
:1005E000A0915703B09158038730904BA740B04B70
:1005F000D1F41092550310925603109257031092A3
:10060000580314BE84B7877F84BF0FB6F894A895AB
:1006100080916000886180936000109260000FBE3E
:10062000E0E0F8E3099511E0A0E0B1E0E8E5F3E6E9
:1006300002C005900D92A43EB107D9F723E0A4EEC5
:10064000B1E001C01D92A535B207E1F70E9439164D
:100650000C94AA310C94000081E0089581E0089583
:100660000C942E0308950C9432031F93CF93DF93C1
:1006700000D000D01F92CDB7DEB749835A836B8379
:100680003091E60189819A81311114C0662359F0B5
:10069000222349F00E94BC09182F682F89819A8172
:1006A0000E94650903C00E949009182F69817A8110
:1006B000812F04C00E94BC0969817A810F900F903C
:1006C0000F900F900F90DF91CF911F910C94E1103C
:1006D000FC01262F408151816281738184810C94B9
:1006E000350381E00895CF93DF93EC0160E00E9431
:1006F0006803BE01DF91CF910C9433030E94EA118D
:100700000E94F6030C9427120C94231208950E9461
:1007100006080E9486032FEF84E39CE0215080406E
:100720009040E1F700C000000C949C260F931F93AB
:10073000CF93DF938C0161E00E946803EC01B80164
:100740000E943003882309F444C0B801CE010E94FE
:10075000DB208823F1F1B801CE010E942D218823EE
:10076000C1F1B801CE010E945F22882391F1B80146
:10077000CE010E94561F882361F1F80182818823EF
:1007800009F1CB358DE5D807C1F050F4C115FCE572
:10079000DF0781F0CF3DDC45A9F40E94CD0E19C0E2
:1007A000CC35EDE5DE0761F0CD35DD4559F40E942D
:1007B0005E0D08C00E9487030CC00E94670D02C036
:1007C0000E946A0DC801DF91CF911F910F910C9487
:1007D0002C0380E0DF91CF911F910F910895089530
:1007E0000C94EF0381E008950C94F2030895CF93E5
:1007F000C82F0E94F0038C2F0E94F403CF9108951C
:10080000CF93DF93CDB7DEB72B970FB6F894DEBF4B
:100810000FBECDBF4F83588769877A878B87611159
:100820000E948D0D9E012F5F3F4F86E0F9011192CE
:100830008A95E9F785E0FE013796D90101900D927E
:100840008A95E1F789819A814C815D81452B31F050
:100850009F3F31F491E08F3F19F403C091E001C054
:1008600090E090FF09C049815A816B817C818D8124
:100870009E810E948D0C05C0C9010E9471038111E7
:10088000F2CF2B960FB6F894DEBF0FBECDBFDF912F
:10089000CF910895FC01808191810E94FE09089505
:1008A000CF93882309F4A4C0C82F8238C1F40E94D2
:1008B000B72481FD9DC069E3809100019091010101
:1008C0000E9451250E94B20D2FEF81EE94E021503D
:1008D00080409040E1F700C0000069E319C0833810
:1008E00001F50E94B72480FD83C063E5809100017B
:1008F000909101010E9451250E94B20D2FEF81EECF
:1009000094E0215080409040E1F700C0000063E592
:1009100080910001909101010E945325CF910C9488
:10092000B20D8438C1F40E94B72482FD61C067E42F
:1009300080910001909101010E9451250E94B20D09
:100940002FEF81EE94E0215080409040E1F700C00D
:10095000000067E4DDCF8CEF8C0F813AD0F46C2F70
:1009600080910001909101010E941B25882349F08C
:100970006C2F80910001909101010E9453250E94EB
:10098000B20D6C2F80910001909101010E945125C0
:10099000C5CF80E28C0F883048F4C77081E001C079
:1009A000880FCA95EAF70E94700DB8CFEBE5EC0FFF
:1009B000E33040F4F0E0EB58FE4F808190E0CF91BF
:1009C0000C94E324E8E5EC0FE73150F4F0E0EE0F8F
:1009D000FF1FE95BFE4F80819181CF910C94F92438
:1009E000CD3E30F08C2F0E94C616CF910C949817F4
:1009F000CF910895882309F464C0823879F40E9465
:100A0000B72481FF5EC069E38091000190910101EC
:100A10000E9451250E94B20D69E310C08338B1F4E1
:100A20000E94B72480FF4DC063E580910001909142
:100A300001010E9451250E94B20D63E580910001E1
:100A4000909101010E9453250C94B20D843879F4E1
:100A50000E94B72482FF35C067E480910001909125
:100A600001010E9451250E94B20D67E4E7CF9CEF7F
:100A7000980F913A10F4682FE1CF90E2980F9830D8
:100A800050F4877091E001C0990F8A95EAF7892F99
:100A90000E94760DD9CF9BE5980F933020F480E02B
:100AA00090E00C94E32498E5980F973120F480E0CF
:100AB00090E00C94F9248D3E20F00E9421170C94B4
:100AC000981708951F93CF93DF93182FEB010E947F
:100AD0005004209741F08FE99FE00197F1F700C0A3
:100AE00000002197F6CF812FDF91CF911F910C94B9
:100AF000FA04893319F060E070E002C060E570E04C
:100B00000C946205882321F00E94700D0C94B20DA4
:100B10000895882321F00E94760D0C94B20D08955B
:100B2000CF92DF92EF92FF920F931F93CF93DF93B9
:100B30007C01D62FC72FFC011281058102950F7011
:100B40000E94450D882399F0112389F08C2F807F16
:100B5000803421F080E28D0F883048F082E00E94DE
:100B6000020E0E94450D91E0D82ED92601C0D12C4D
:100B7000CC2EC2948FE0C8228C2D90E08C30910551
:100B800008F0B6C1FC01EA5AFF4F0C9408318C2FD3
:100B9000807FCF70882311F0C295C07F112399F018
:100BA000CC2309F491C180E28D0F883010F0D1116F
:100BB00004C08C2F0E94700D03C08C2F0E94800DEA
:100BC0000E94B20D81C18D2F0E94FA04CC2309F43A
:100BD0008FC180E28D0F883010F0D11104C08C2FAE
:100BE0000E94760D03C08C2F0E94860D0E94B20DCC
:100BF0007FC18C2F807FCF70803211F0C295C07F73
:100C0000DD2319F0D130C9F022C0112371F0002387
:100C100041F0013031F40E94930D8C2B0E949B0D0A
:100C200067C10E94930D8C2B1DC0002319F0013069
:100C300009F45EC10E94A80D25C0112321F00630E1
:100C400008F056C10EC0053008F052C11BC0112378
:100C500061F0002331F0F701858180FF35C18F708D
:100C600085838C2F0E94820543C1002359F0D9331C
:100C700009F03BC1FFEF07EE13E0F15000401040D8
:100C8000E1F731C18C2F0E94890532C18C2F8695E6
:100C90008695837019F0813061F02AC1112321F00B
:100CA0008D2F9C2F937002C080E090E00E94E3247F
:100CB00027C1112321F08D2F9C2F937002C080E05B
:100CC00090E00E94F9241CC18D2F112319F00E947D
:100CD000C61602C00E9421170E94981711C18C2FBE
:100CE000837009F047C0111107C12D2F2295269559
:100CF0002770220F220F6D2F6F70862F90E0A0E0DB
:100D0000B0E0022E04C0880F991FAA1FBB1F0A94CF
:100D1000D2F7D4FF10C04FE050E060E070E004C0B4
:100D2000440F551F661F771F2A95D2F7409550959F
:100D30006095709503C040E050E0BA01C695C69535
:100D4000C3708A019B01082B192B2A2B3B2BC9014D
:100D5000B801C23049F058F4C13019F00E947B0844
:100D6000CBC00E946908C8C00E948D08C5C00E94FF
:100D70006708C2C0112319F08C2F817001C08695BD
:100D8000882309F4B9C02D2F229526952770220FAC
:100D9000220F6D2F6F70862F90E0A0E0B0E0022E42
:100DA00004C0880F991FAA1FBB1F0A94D2F7D4FF53
:100DB00010C04FE050E060E070E004C0440F551FE9
:100DC000661F771F2A95D2F74095509560957095CC
:100DD00003C040E050E0BA01C695C695C3708A01D1
:100DE0009B01082B192B2A2B3B2BC901B801C230C0
:100DF00049F058F4C13019F00E9440097DC00E94AA
:100E00002E097AC00E94520977C00E94A10874C0BE
:100E1000CF70112339F08C2F0E94C7088D2F0E94AC
:100E200082056AC08D2F0E9489058C2F0E94E808D8
:100E300063C0D23F01F128F4D03F41F0D13FA1F08F
:100E40003FC0D33FF9F0D43F39F13AC0112341F00C
:100E5000053008F04DC08C2F8F710E940D0948C0DD
:100E6000063008F045C0F7CF112339F08C2F8F7171
:100E70000E94C7083DC01123C9F38C2F8F710E94B7
:100E8000E80836C0112329F08C2F8F710E94B20818
:100E90002FC00E94AD082CC0112349F0CF718C2FB8
:100EA0000E94C70863E08C2F0E94E70D21C081E0FB
:100EB0000E94020E0230E0F082E00E94020E18C092
:100EC000112331F0002391F28D2F0E94500410C0A5
:100ED000002399F2D93349F41FEF27EE33E0115084
:100EE00020403040E1F700C000008D2F0E94FA043E
:100EF00088EF8C0D843020F40E94B7240E94F70301
:100F0000DD20C9F00E94410D80FD15C0F70112825D
:100F10000E943B0D0E94C708C7010E94BC070E94A7
:100F20003B0DDF91CF911F910F91FF90EF90DF90DC
:100F3000CF900C94E808DF91CF911F910F91FF9013
:100F4000EF90DF90CF9008950F931F93CF93DF938F
:100F5000EC01688179818A810E94090A8C010E94D2
:100F600064090E945508B801CE010E949005DF91E6
:100F7000CF911F910F910895CF93DF93EC0198814A
:100F800089812B813C81232B31F08F3F31F481E02B
:100F90009F3F19F403C081E001C080E080FD19C0CB
:100FA000CE010E94960381110CC00E94450D88233A
:100FB00081F08A81882369F082E0DF91CF910C94DF
:100FC000020ECE010E94A407CE01DF91CF910C94B6
:100FD0007303DF91CF91089580E090E00E94E324B5
:100FE00080E090E00E94F9240E948D0D0E94900DF7
:100FF0000E94B20D0E94C9180C94981780910001AC
:10100000909101010E9455250C94EC070E947D0DE2
:101010000C94FE07E92FE295EF704E2F50E0FA0195
:101020003297EE30F105B0F4EE59FF4F0C940831D1
:10103000803F91F018F4883E68F40EC0843F51F46C
:101040000BC0883E48F0813F29F406C093FB8827F7
:1010500080F9089580E0089581E00895FC01808181
:1010600091810E94FE090E940A080895CF93DF93A0
:1010700000D000D01F92CDB7DEB70F900F900F9029
:101080000F900F90DF91CF910895CF93DF9300D011
:1010900000D000D0CDB7DEB726960FB6F894DEBFED
:1010A0000FBECDBFDF91CF910895089508950C94A0
:1010B00056080C9457080E945908609327027093B1
:1010C00028028093290290932A020C94EC070C9436
:1010D0005B080F931F930091270210912802209123
:1010E000290230912A02602B712B822B932B1F91A6
:1010F0000F910C945B080F931F930091270210919E
:1011000028022091290230912A0260237123822330
:1011100093231F910F910C945B080F931F930091E1
:101120002702109128022091290230912A0260277B
:101130007127822793271F910F910C945B080C94C1
:1011400056080E949F0860932302709324028093A4
:101150002502909326020C94EC0760E070E0CB012E
:101160000C94A1080F931F9341E050E060E070E001
:101170008A019B0104C0000F111F221F331F8A9593
:10118000D2F7C901B8011F910F910C94A1080F93D8
:101190001F9341E050E060E070E004C0440F551F31
:1011A000661F771F8A95D2F78091230290912402BF
:1011B000A0912502B09126028A019B01082B192BD0
:1011C0002A2B3B2BC901B8011F910F910C94A10848
:1011D0000F931F9341E050E060E070E004C0440FC3
:1011E000551F661F771F8A95D2F7409550956095D9
:1011F00070958091230290912402A0912502B091D4
:1012000026028A019B01082319232A233B23C901B3
:10121000B8011F910F910C94A1080F931F9341E007
:1012200050E060E070E004C0440F551F661F771F58
:101230008A95D2F78091230290912402A0912502F1
:10124000B09126028A019B01082719272A273B27EC
:10125000C901B8011F910F910C94A1080F931F931E
:101260000091230210912402209125023091260240
:10127000602B712B822B932B1F910F910C94A10843
:101280000F931F93009123021091240220912502B5
:101290003091260260237123822393231F910F91A3
:1012A0000C94A1080F931F93009123021091240224
:1012B00020912502309126026027712782279327EB
:1012C0001F910F910C94A10808952CE0929F800D1E
:1012D0001124E82FE695E695E695877051E001C068
:1012E000550F8A95EAF785E0E89FF0011124E9514E
:1012F000FE4F20E030E070E04081CB01022E02C0C2
:10130000969587950A94E2F78170819584278523C5
:10131000842781932F5F3F4F2530310569F708956A
:101320002CE0929F800D1124682F66956695669536
:10133000982F977085E0689FB001112440E050E03D
:1013400080E0FB01E40FF51FE951FE4F208130E002
:10135000092E02C0369527950A94E2F721703327AB
:10136000042E01C0220F0A94EAF7822B4F5F5F4FD1
:101370004530510531F70895BF92CF92DF92EF9239
:10138000FF920F931F93CF93DF938C01C0902302A2
:10139000D0902402E0902502F0902602809127024E
:1013A00090912802A0912902B0912A02C82AD92A34
:1013B000EA2AFB2ACFE1D0E0D701C6010C2E04C0F7
:1013C000B695A795979587950A94D2F780FD04C0A6
:1013D000219790F7B12C07C0BC2EB8018C2F0E942A
:1013E000F4100197A9F38B2DDF91CF911F910F91ED
:1013F000FF90EF90DF90CF90BF900895CF93DF9351
:10140000EC010E94BC09BE010E94F410DF91CF9153
:1014100008951F93CF93DF93EB019091E6019923F9
:1014200021F0CB010E94FE0913C0882349F0CB01B3
:101430000E94BC09182F682FCE010E94650904C0C4
:10144000CB010E949009182FBE01812F0E94F41039
:10145000DF91CF911F9108951F93CF93DF93C09198
:101460002B0216E080912C02C81799F0D0E01C9F47
:10147000F0011D9FF00D1124E35DFD4F408151816E
:1014800062817381848195810E9445082196C7708D
:10149000E9CFDF91CF911F91089540915D02509166
:1014A0005E0260915F027091600280916102909192
:1014B00062020C9445080F931F93CF93DF938091A2
:1014C000620282958F7009F05DC080915F0288236F
:1014D00009F458C080912B0210912C0260915D029A
:1014E00070915E02C0916002D091610291E06F3F05
:1014F00009F090E0292F06E0811709F443C02097F6
:1015000021F07F3F21F030E003C031E001C0322FF5
:1015100090E030FD34C0089FF001099FF00D1124C8
:10152000DF01A35DBD4F11963C911197371327C082
:101530003C91361324C012963C91129731111FC072
:1015400013964D915C9114974C1B5D0B483C5105D3
:10155000B0F4809162028F70806180936202EE5CD1
:10156000FD4F80818F70806180838DE592E00E94C5
:10157000BC07DF91CF911F910F910C942C0A01961B
:101580008770BACFDF91CF911F910F9108959F92ED
:10159000AF92BF92CF92DF92EF92FF920F931F9381
:1015A000CF93DF93CDB7DEB761970FB6F894DEBF68
:1015B0000FBECDBF8C0185E0F801DE011D960190C4
:1015C0000D928A95E1F7F801E28090915D026091B9
:1015D0005E0220916002309161022115310531F0E7
:1015E0006F3F31F481E09F3F19F403C081E001C0F7
:1015F00080E0F82FF1709F2E80FD3FC1F8014081FF
:101600005181A380B4808DE5C82E82E0D82EF09061
:101610005F02F501E21BF30BFF2009F4D9C08091B2
:101620006202E83CF10508F095C0282F207F09F000
:1016300052C0561313C0491311C0FE2CE1100EC046
:101640008F708061809362020E944D0AC6010E94E1
:10165000BC0780916202F80185834CC1AB2831F050
:101660005F3F31F481E04F3F19F403C081E001C0D6
:1016700080E080FD03C081E08E2502C080E090E024
:10168000F82FF170FF2E80FF1CC080912B0220915B
:101690002C0236E0821709F40BC190E0389FF0016C
:1016A000399FF00D1124E35DFD4F6181561306C093
:1016B0006081461303C06281E61203C00196877001
:1016C000E9CFFE2CEE2009F415C180916202816001
:1016D0008093620254C0561306C0491304C0E1103F
:1016E00002C0F80199C0C8010E942E08882361F148
:1016F000EE2051F120916202822F82958F7090E04E
:10170000029774F080915D0290915E0298878F83BA
:101710001986BB86AA862C87CE0107960E94BC0735
:1017200086E0F801ADE5B2E001900D928A95E1F70F
:101730000E945B0A0E944D0A0AC0561711F1C801A7
:101740000E942E0881112CC0C8010E94BC07FF24F2
:10175000F394D0C0282F207F81F77A2DB98AA88AE8
:101760006E2D89890E9436088DE592E00E94BC07A3
:1017700086E0F60111928A95E9F70E944D0AF12C54
:10178000B9C04913DCCFE110DACFF8018583C80175
:101790000E94BC0786E0F60111928A95E9F7AAC07B
:1017A000EE2091F220916202822F82958F7090E05C
:1017B00002970CF4B5CF80915D0290915E029A83FE
:1017C00089831B82BD82AC822E83CE010196A6CF77
:1017D000E83CF10508F044C0FE2CEE2009F4B4CF3B
:1017E000561330C049132EC02091620220FD21C043
:1017F000822F82958F70482F50E041155105C9F016
:10180000F80125834F30510541F08F5F982F929555
:10181000907F822F8F70892B8583C8010E94BC071F
:1018200086E0F801ADE5B2E001900D928A95E1F70E
:101830003CC086E0F801ADE5B2E001900D928A95DA
:10184000E1F758C0C8010E942E08811169CF80912C
:101850006202816080936202C8010E94BC074AC094
:101860007A2DB98AA88A6E2D89890E94360886E069
:10187000F60111928A95E9F718C0EE2009F464CFB9
:10188000C8010E942E08F82E882309F45DCF86E057
:10189000F801ADE5B2E001900D928A95E1F78DE592
:1018A00092E00E944A040E945B0A0E944D0A22C0F4
:1018B0004D875E878D859E850E94FE09292F229582
:1018C0002F70223028F49F7039F0811105C00BC0B1
:1018D000243028F49F7049F4805E883020F0C801DD
:1018E0000E94BC079F2CF92C05C0F8019581907FC0
:1018F00099F7F9CF8F2D61960FB6F894DEBF0FBE22
:10190000CDBFDF91CF911F910F91FF90EF90DF90AE
:10191000CF90BF90AF909F9008951F93CF93DF9388
:10192000CDB7DEB72C970FB6F894DEBF0FBECDBF94
:101930004F83588769877A878B879C87CE01079664
:101940000E94C70A8823D1F09F8188852A853B851C
:10195000232B31F08F3F31F481E09F3F19F403C016
:1019600081E001C080E080FD47C04F8158856985D6
:101970007A858B859C850E9445083EC086E0FE01E5
:101980003796DE01119601900D928A95E1F7FF815D
:10199000E8856A857B856115710531F0EF3F31F48B
:1019A00081E0FF3F19F403C081E001C080E080FDC9
:1019B00023C020912C0230E0C9010196877099273D
:1019C00040912B0250E084179507F1F1F983EA83E7
:1019D0007D836C8396E0929FD001939FB00D11247C
:1019E000A35DBD4FFE01319601900D929A95E1F7EE
:1019F00080932C020E942C0A16E080912B02909179
:101A00002C02891771F1189FC0011124835D9D4F2D
:101A10000E94C70A882329F1E0912B021E9FF00142
:101A20001124E35DFD4F4081518162817381848186
:101A300095810E94450880912B0290E00196877065
:101A4000992780932B02D9CF0E94060810922C026E
:101A500010922B02EDE5F2E086E0DF011D928A95FF
:101A6000E9F72C960FB6F894DEBF0FBECDBFDF911D
:101A7000CF911F91089580916302859585958595F5
:101A80000895809163028770089590916302977022
:101A900081E009F480E008959091E70292FB22270B
:101AA00020F9281751F080FB92F99093E70280917A
:101AB000E6029091E7020C94490E08958091E702A6
:101AC00082FB882780F991E089270C944C0D81E0F6
:101AD0000C944C0D80E00C944C0D80916F02089595
:101AE00090916F02892B80936F0208958095909159
:101AF0006F02892380936F02089510926F020895F8
:101B000090916E02892B80936E020895809590913A
:101B10006E02892380936E02089510926E020895DA
:101B200010926D02089580916402089508950C94B6
:101B3000960D0C94970D9091E70292FD08C090913C
:101B40006402981721F0809364020C94990D089513
:101B500080916402882329F01092640280E00C9442
:101B6000990D0895E0910001F091010180916F02BB
:101B70008083E0910001F0910101908180916E02DB
:101B8000892B8083E0910001F09101019081809187
:101B90006D02892B808380916402882381F0E0911B
:101BA0000001F09101019081892B808380910001D7
:101BB000909101010E940F2581110E94A80D809132
:101BC0000001909101010C94CA240C94960D9091FF
:101BD000E70292FD10C098E0899F90011124262B06
:101BE000209363020E94C7088091630285958595C2
:101BF00085950C94E50D0C94C7081092630280E063
:101C00000C94E50D209163028095822380936302FA
:101C1000982F977041F430E0482F082E000C550B98
:101C20002417350721F49091E70292FF07C08595AC
:101C3000859585950E94E8080C94FD0D08956FEF39
:101C40007FEF80E090E00C94943180E090E00E947F
:101C5000703121E0893E9E4F09F020E0822F0895E7
:101C600082E090E00C94623183E090E00C94623169
:101C7000CF9384E090E00E946231C82F82E290E02E
:101C80000E9462312C2F30E0A901582BCA01CF915C
:101C90000895CF93C92F682F84E090E00E94763199
:101CA0006C2F82E290E0CF910C947631AB01BC01B5
:101CB0008FE090E00C948831AB01BC0183E190E0AF
:101CC0000C94883160E070E0CB010C945C0E60E015
:101CD00070E0CB010E94560E0C94620E69EE7EEF0E
:101CE00080E090E00E94943160E082E090E00E9409
:101CF000763160E083E090E00E9476311092270216
:101D0000109228021092290210922A0260E084E0C8
:101D100090E00E94763160E082E290E00E947631AD
:101D200060E085E090E00E94763160E086E090E03F
:101D30000E9476316FEF87E090E00E94763140E0BC
:101D400050E0BA0188E090E00E94883160E08DE0C8
:101D500090E00E94763140E050E0BA0188E190E0E6
:101D60000E94883160E087E190E00E94763140E097
:101D700050E0BA018CE190E00E94883160E070E0B0
:101D800080E290E00E94943140E050E0BA0188E1A6
:101D900090E00E9488310C94670E0C946E0E682FB0
:101DA0008EE090E00C9476310E943F26609385028D
:101DB00070938602809387029093880260938102D9
:101DC000709382028093830290938402089585B772
:101DD000806885BF85B7806885BF08950C9404141A
:101DE00008950C94F00E0C94F00E0C94F30E0C94D9
:101DF000F00E0C94F70E0C94F00E0E94E70E80ED9E
:101E000091E10E94AD260E94FB0E0C94F90E0E94F7
:101E1000F10E0C94F00E0E942A260E945C250E946E
:101E2000E5120E9450200E94641E0C94F50E6F92E1
:101E30007F928F929F92AF92BF92CF92DF92EF925A
:101E4000FF920F931F93CF93DF93CDB7DEB72A97FF
:101E50000FB6F894DEBF0FBECDBF0E947313811181
:101E60000E94D40E31E7832E32E0932E00E010E082
:101E7000C02E802F0E940E125C01F40161907190BF
:101E80004F016826792661147104B1F40F5F1F4F6A
:101E90000830110569F78FEF89838A831B820E94BE
:101EA00033268160782F9D838C8349815A816B8191
:101EB0008D810E9400043AC08091890281FD0E94B8
:101EC0001712D12CEE24E394F12CC3018E219F2113
:101ED000892B29F10E94EE0E8823A9F0DE82CF82A1
:101EE000AE20BF2081E0AB2809F480E088870E9403
:101EF00033268160782F9A8789874E815F81688534
:101F00008A850E940004000F111FF801EF58FD4F51
:101F100080819181E826F926F182E08207C0D3947E
:101F2000EE0CFF1CFCE0DF12D0CFB0CF0E94A81E49
:101F30000E94B6170E94B724909170028917D1F0C1
:101F40000E94B724809370022A960FB6F894DEBFE1
:101F50000FBECDBFDF91CF911F910F91FF90EF90FA
:101F6000DF90CF90BF90AF909F908F907F906F90B9
:101F70000C94F7032A960FB6F894DEBF0FBECDBFC0
:101F8000DF91CF911F910F91FF90EF90DF90CF9055
:101F9000BF90AF909F908F907F906F900895CF9358
:101FA000DF930E94F910EC01811521E5920708F0FA
:101FB00045C0811530E5930708F094C0883E91052F
:101FC00028F5803E910508F0F8C0883A910570F434
:101FD000853A910508F07CC08130910509F475C0FF
:101FE00008F4E8C0049708F0E8C0E4C08F3B91050E
:101FF00008F0E0C0C85AD0E0CC0FDD1FC858DE4F53
:102000000990D881C02DCE019464D8C0811540E2DA
:10201000940758F4811551E0950708F0CEC08D3E25
:10202000910508F4C7C09065C9C0C11580E4D80700
:1020300008F4C0C0DF70CE01906AC0C0811525E5EC
:102040009207A8F4811534E5930708F095C081152F
:1020500043E5940708F07BC0811552E5950708F029
:1020600061C0D82FCC27CE01816F906AA7C0C1155F
:1020700089E5D807A0F4C11528E5D20708F082C089
:10208000C11536E5D30708F095C08C2F0E948D113D
:102090008F7190E0D82FCC27CE0190628FC0C115F0
:1020A0004AE5D40708F474C0CE01905681159042D9
:1020B00008F080C08D2F8F710E948D11DD27D062B6
:1020C0008F71AE01582BCA0179C081E090E076C0D3
:1020D000C55AD0E0CA55DE4F8881C82FD0E0CE0166
:1020E00090646CC074E0969587957A95E1F7282FF7
:1020F00023703C2F337081E090E002C0880F991F5D
:102100003A95E2F79C68AC01522B9A019C2F9F7084
:102110009695969550E2959FE0011124C9018C2B6C
:102120009D2B4CC08370992721E030E002C0220F24
:10213000331F8A95E2F79C2F9695969580E2989F9B
:10214000E0011124C22BD32BCE019C6837C08370D1
:10215000992721E030E002C0220F331F8A95E2F771
:102160009C2F9695969540E2949FE0011124C22BF6
:10217000D32BCE019A6822C0D82FCC27CE01846FF2
:10218000906A1CC0DC2FCC27CE01806F906A16C0ED
:102190008C2F8F700E948D1194E0D695C7959A95DB
:1021A000E1F7CF70D0E0DC2FCC27D0699E01282B3F
:1021B000C90104C080E090E001C0CE01DF91CF9161
:1021C000089520E6829FC0011124FC012CE0729F3B
:1021D000E00DF11D1124E60FF11DEE0FFF1FE65C6F
:1021E000FE4F8591949108950E94E1100E94CF0FB7
:1021F00008958238910569F1B0F48133910509F4AD
:102200006DC048F48932910509F463C08A329105A2
:1022100009F469C008958533910509F455C08933DF
:102220009105B9F00895833E910569F138F4803E37
:102230009105B1F0823E910509F10895863E910520
:10224000A9F1873E9105B9F1843E910509F064C07A
:1022500023C02091E60220FD4FC021FD4DC008950E
:102260008091E60280FD44C08091E70280FF44C077
:102270008091E60284FD42C083EE4DC08091E6026B
:1022800082FF38C0F5CF8091E60282FD33C0809195
:10229000E70280FD31C0ECCF8091E70281FF32C0C0
:1022A0008091E60284FD2AC087EE35C08091E60267
:1022B00083FF26C0F5CF8091E60283FD21C0809187
:1022C000E70281FD1FC0ECCF8091E60285FD1CC0B6
:1022D0001DC08091E60285FD19C016C08091E602FE
:1022E00086FD16C017C08091E60286FD13C010C09F
:1022F00089E311C082EE0FC080EE0DC080E00BC0FC
:1023000086EE09C084EE07C089E205C085E303C0FC
:102310008AE201C081E390E008959091E60292FF85
:102320000DC0282F2871283019F4877F846006C0DB
:10233000282F2471243011F48B7F886093FF0DC007
:10234000282F2871283119F4877E846106C0282F30
:102350002471243111F48B7E88612091E70220FFE3
:102360000DC0382F3871383019F4877F816006C06E
:10237000382F3171313011F48E7F886021FF0DC00C
:10238000282F2871283119F4877E816106C0282FF3
:102390002171213111F48E7E886194FD877E08952C
:1023A00080E008950C941F0E0E9473138FE39CE944
:1023B0000197F1F700C000000E94731380E00E94B3
:1023C0000E1280FF04C00E94D2110C949C26089526
:1023D0000C94D4110E94250E811102C00E94CD0ED2
:1023E0000E94300E809389020E94380E9093E7027B
:1023F0008093E6020E94E8110E94340E682F70E07C
:1024000080E090E00E9467086091230270912402AE
:1024100080912502909126020C949F08E82FF0E00D
:10242000EE0FFF1FE850FD4F8081918108950895C0
:1024300080EA8A95F1F7089500C008950C94181267
:1024400008950C9420120C9421120C9420120C94D8
:102450002512F894E82FE295EF70F0E031A1282FD3
:102460002F7081E090E001C0880F2A95EAF7982F3D
:102470009095932391A392A1892B82A37894089598
:1024800008950C9440120F931F93CF93DF93C9EAE2
:10249000D1E089918F3F11F00E94291281E0C53B64
:1024A000D807B9F7C5EBD1E009EB11E089918F3F6F
:1024B00011F00E9429120C171D07C1F7DF91CF916F
:1024C0001F910F910895CF92DF92FF920F931F9368
:1024D000CF93DF93062F10E007551E4FD8012C91A4
:1024E0002F3F09F46AC0C62FD92FF82EF894E22F97
:1024F000E295EF70F0E031A12F70CC24C394D12C81
:10250000C60101C0880F2A95EAF7932F982B91A353
:1025100092A18095892382A378940E941C1296012F
:102520000C2E02C0220F331F0A94E2F7B901609506
:10253000709595EBC92E91E0D92EEF2DFD2FAF01AF
:10254000485F5F4FD0E0D601FD906D01BFEFFB16F5
:10255000C9F08F2D82958F7090E0DC0190968C9160
:1025600090E0BF2DBF7002C095958795BA95E2F7B0
:1025700080FD08C080819181822B932B9183808381
:10258000D1E006C080819181862397239183808347
:102590003296E417F507B9F6F80180818F3F11F004
:1025A0000E9429126D2F8C2FDF91CF911F910F91D7
:1025B000FF90DF90CF900C941E12DF91CF911F916E
:1025C0000F91FF90DF90CF9008950E941E1480918C
:1025D000020180910201811102C094E001C090E0EB
:1025E0009093090384E0891B809308030E9443129F
:1025F000E8EEF2E0A8EFB2E0119211921D921D9266
:1026000082E0E83FF807C1F784E00E94C9130E9406
:102610007E030C9428140F931F93CF93DF93CDB7B1
:10262000DEB728970FB6F894DEBF0FBECDBF0E946D
:102630000414609109038823C9F18E010F5F1F4FB5
:1026400088E0F80111928A95E9F7862F90E0880FCB
:10265000991FB80188509D4F0E943614E0910803DD
:102660009E01275F3F4FF0E0EE0FFF1FE850FD4F48
:10267000D801882381F010E08D919D914081518196
:102680004817590719F09183808311E03296A217F9
:10269000B30791F708C0119211921D921D92A217D3
:1026A000B307C9F711E00E94840311C080910803A9
:1026B00070E0660F771F68507D4F90E0880F991F7C
:1026C00088509D4F0E94C6140E94411210E0812F35
:1026D00028960FB6F894DEBF0FBECDBFDF91CF9125
:1026E0001F910F910895EF92FF920F931F93CF9335
:1026F000DF93CDB7DEB760970FB6F894DEBF0FBE9D
:10270000CDBF8E010F5F1F4F80E1F80111928A95B6
:10271000E9F7F12C6F2DC8010E946312F394FCE0DD
:10272000FF12F8CF40E150E0B80188EE92E00E943D
:102730004C317C0121E0892B09F420E0E114F10403
:1027400041F080E1F801A8EEB2E001900D928A9587
:10275000E1F76091090370E0660F771F68507D4FC5
:1027600044E088EE92E00E94CA13EF2819F40E9418
:102770000B1302C081E090E060960FB6F894DEBFC4
:102780000FBECDBFDF91CF911F910F91FF90EF90C2
:1027900008950895FF920F931F93CF93DF93F82E20
:1027A000092F162FD72FC42F222349F081E08093C1
:1027B0008C020E94332690938B0280938A02809130
:1027C0008C028823D9F080918A0290918B020E941A
:1027D0004B26059798F0EF2DF02FA12FBD2F80E00D
:1027E00090E04C2F50E08417950734F421913191FB
:1027F0002D933D930196F7CF10928C02DF91CF91EC
:102800001F910F91FF90089580918F0281110DC04B
:102810000E94682D811102C082E001C081E0809396
:102820008F02823011F40E94632D81E090918F021B
:10283000913009F080E008950C9404140E941C1457
:10284000809302010E94041481110C946E14089567
:102850000E940414811102C00C947014089581E048
:10286000909190029A3008F080E008950F931F93A2
:10287000CF93DF93EC018B01809190028A3038F482
:10288000B801CE010E94C41481111DC00AC08091FC
:102890008D0290918E020E944B26843F914080F7DA
:1028A00015C0809190028F3F19F08F5F8093900246
:1028B000809190028A3060F00E94332690938E02BD
:1028C00080938D0203C01092900202C080E001C08C
:1028D00081E0DF91CF911F910F9108950C94ED222B
:1028E0000C94F022EF92FF920F931F93CF93DF93FC
:1028F0007901C82F880FDD0B41155105A9F08AE039
:102900008C9FF0018D9FF00D1124ED5FFE4F8381B0
:1029100094818F569D4F228130E04217530708F46F
:102920009A01A9010E945931CE010E94FA23892BF4
:1029300009F50115110501F18AE08C9FF0018D9FC9
:10294000F00D1124ED5FFE4F458150E0041715078F
:1029500008F4A8018AE08C9FF0018D9FF00D1124EE
:10296000ED5FFE4F668177816F567D4FC7010E94F4
:10297000593102C080E001C081E0DF91CF911F9109
:102980000F91FF90EF9008950C94E3150C94FF15B0
:102990000F931F93CF93DF9300D000D0CDB7DEB756
:1029A0006091AE027091AF028091B0029091B1023D
:1029B0000E945A26643671058105910528F10E940E
:1029C0008225DC01CB010296A11DB11D89839A836A
:1029D000AB83BC8300E010E020E030E044E050E056
:1029E000BE016F5F7F4F82E00E947214182F882310
:1029F00061F00E943F266093AE027093AF02809315
:102A0000B0029093B10201C011E0812F0F900F909E
:102A10000F900F90DF91CF911F910F910895AF927A
:102A2000BF92CF92DF92EF92FF920F931F93CF93BB
:102A3000DF937C015B016A010E942F14811103C0A6
:102A400001E010E002C00AE010E0C1E0D0E0F8943C
:102A5000B501C701F60109957894811115C0219639
:102A60000C171D0794F0CC9F9001CD9F300D300DB9
:102A7000112480E090E045E34A95F1F700000196CB
:102A800082179307C1F7E3CF81E0DF91CF911F91C8
:102A90000F91FF90EF90DF90CF90BF90AF9008958F
:102AA000AF92BF92CF92DF92EF92FF920F931F935C
:102AB000CF93DF93CDB7DEB729970FB6F894DEBF7B
:102AC0000FBECDBF7B01C090BD01D090BE0101E023
:102AD00010E09E01275F3F4F40E050E060E070E073
:102AE00080E00E947214182F882309F43EC056011A
:102AF0008FEFA81AB80A6091AA027091AB02809178
:102B0000AC029091AD020E945A266436710581058F
:102B1000910518F108E010E09E012F5F3F4F40E063
:102B200050E060E070E081E00E947214182F68E0CD
:102B300070E0C5010E94512091E02985281390E0A2
:102B4000192339F10E943F266093AA027093AB02C9
:102B50008093AC029093AD0211C068E070E0C501B3
:102B60000E94512099858913D5CF88E0F6013196CE
:102B7000DE01119601900D928A95E1F7112349F03B
:102B800088E0FE013196A2EAB2E001900D928A95AA
:102B9000E1F788E0E2EAF2E0D70101900D928A9530
:102BA000E1F7812F29960FB6F894DEBF0FBECDBF97
:102BB000DF91CF911F910F91FF90EF90DF90CF9019
:102BC000BF90AF9008950F931F93CF93DF93EC01C5
:102BD0008B0140E555E10E940F15882351F048EC28
:102BE00054E1B801CE01DF91CF911F910F910C9468
:102BF0000F1580E0DF91CF911F910F9108950F93F2
:102C00001F93CF93DF93F894C091BD01D091BE0183
:102C1000CE01019628E0FB01DC0101900D922A957E
:102C2000E1F768E070E00E94512088837894F8947E
:102C300069857A858B859C8500919E0210919F0203
:102C40002091A0023091A1026017710782079307BB
:102C500051F060939E0270939F028093A002909324
:102C6000A1020E9465257894DF91CF911F910F9169
:102C700008950E94A6250E940E280E9427280E94DF
:102C800039280E94070FFBCF8091B80280FF0BC04C
:102C90006091260185E0689FB001112475956795C4
:102CA000759567952BC081FF09C06091260185E06D
:102CB000689FB00111247595679520C082FF07C0F9
:102CC0006091260185E0689FB001112417C09091A2
:102CD000B7029923D1F060912501961788F72091CA
:102CE000260185E0289F90011124929FA001939FC7
:102CF000500D112470E0CA010E94D2306038710575
:102D000040F46115710519F406C065E070E0862F86
:102D100008958FE7089581E008958091B80280FFBB
:102D200008C06091220170E075956795759567956B
:102D300021C081FF06C06091220170E07595679502
:102D400019C082FF04C06091220170E010C0909110
:102D5000B602992399F0609121019617A0F780910E
:102D60002201899FC001112470E00E94D230603896
:102D7000710540F46115710519F406C061E070E059
:102D8000862F08958FE7089581E008958D3E21F400
:102D90000E944416819504C08E3E29F40E94441678
:102DA0008093BC0208958F3E21F40E9444168195C1
:102DB00004C0803F29F40E9444168093BB0208950A
:102DC000893F19F40E948D1605C08A3F31F40E9494
:102DD0008D1681958093BD0208958B3F21F40E944A
:102DE0008D16819504C08C3F29F40E948D16809326
:102DF000BE0208959FE0980F983078F421E030E00B
:102E0000A90102C0440F551F9A95E2F7CA0190919B
:102E1000BA02892B8093BA0208958D3F21F48091E4
:102E2000B80281600BC08E3F21F48091B8028260AD
:102E300005C08F3F29F48091B80284608093B80266
:102E400008958D3E39F49091BC0297FF35C01092E1
:102E5000BC0259C08E3E29F49091BC021916BCF3F5
:102E60002BC09091BB028F3E29F497FF25C0109292
:102E7000BB0249C0803F19F41916CCF31DC09091D4
:102E8000BD02893F29F41916BCF41092BD023BC063
:102E90008A3F19F497FF10C0F8CF8B3F39F4909117
:102EA000BE0297FF09C01092BE022DC08C3F21F4D4
:102EB0009091BE021916BCF39FE0980F983080F4F1
:102EC00021E030E0A90102C0440F551F9A95E2F7B6
:102ED000CA0180959091BA0289238093BA0213C0E7
:102EE0008D3F21F48091B8028E7F0BC08E3F21F47C
:102EF0008091B8028D7F05C08F3F29F48091B80280
:102F00008B7F8093B8028091BB02811106C08091B3
:102F1000BC02811102C01092B7028091BD028111E2
:102F200006C08091BE02811102C01092B6020895BF
:102F30000E9433262091BB02211104C02091BC02C3
:102F4000222321F09093B5028093B4022091BD0218
:102F5000211104C02091BE02222321F09093B302DC
:102F60008093B20289EB92E00C94D524EF92FF9209
:102F70000F931F93CF93DF9300D000D000D0CDB735
:102F8000DEB786E0E9EBF2E0DE01119601900D92EA
:102F90008A95E1F7E090BB02F090BC020091BD027F
:102FA0001091BE021092BB021092BC021092BD02A0
:102FB0001092BE02E11003C0FF2009F45DC08091B1
:102FC000B4029091B5020E944B26AC019091B702D9
:102FD000992339F02091270130E02417350758F064
:102FE0004BC0209128018AE0289F900111242417CA
:102FF000350718F041C09F3F19F09F5F9093B702CB
:10300000EE2061F00E9444161E1414F09FEF01C0E0
:1030100091E0989F902D11249093BB02FF2061F0C6
:103020000E9444161F1414F09FEF01C091E0989F76
:10303000902D11249093BC023091BB023323E1F018
:103040002091BC022223C1F045EB3403C0011124BE
:10305000992319F09093BB0203C081E08093BB02D7
:1030600035EB2303C0011124992319F09093BC027E
:1030700003C081E08093BC02011103C0112309F455
:103080005DC08091B2029091B3020E944B26AC01C8
:103090009091B602992339F02091230130E0241752
:1030A000350758F04BC0209124018AE0289F9001F9
:1030B00011242417350718F041C09F3F19F09F5F76
:1030C0009093B602002361F00E948D16101614F042
:1030D0009FEF01C091E0989F902D11249093BD0225
:1030E000112361F00E948D16111614F09FEF01C09C
:1030F00091E0989F902D11249093BE023091BD02D3
:103100003323E1F02091BE022223C1F045EB3403CA
:10311000C0011124992319F09093BD0203C081E0EE
:103120008093BD0235EB2303C0011124992319F0CC
:103130009093BE0203C081E08093BE028091BB02E7
:1031400081110BC08091BC02811107C08091BD022A
:10315000811103C08091BE0281110E949817EB82F9
:10316000FC820D831E8386E0FE013196A9EBB2E05E
:1031700001900D928A95E1F726960FB6F894DEBF7E
:103180000FBECDBFDF91CF911F910F91FF90EF90B8
:103190000895E9EBF2E086E0DF011D928A95E9F7F8
:1031A0001092B7021092B6021092B8020895EF92F0
:1031B000FF920F931F93CF93DF938B01682F111111
:1031C0000AC0442329F0E82FF0E0EF56FC4F649149
:1031D000762F862F75C0212F30E0E82FF0E04423B2
:1031E00021F0EF56FC4FE491F0E046E0049FC0016F
:1031F0001124CFEFD0E0BE010E94BE304BEA46035F
:10320000C001479F900D1124800F911D800F911DCB
:10321000982F990F890FAE01421B530B4E9FD0017F
:103220004F9FB00D5E9FB00D11249B2F189FA001E2
:103230001124452F55278E01041B150B0E9FA0014D
:103240000F9F500D1E9F500D11247E01E81AF108AA
:10325000E29E8001E39E100DF29E100D1124212F9D
:103260003327C21BD30BCE9F9001CF9F300DDE9F23
:10327000300D112462307105A9F048F46115710513
:1032800069F061307105C9F48B2F752F0DC0643062
:10329000710581F058F06630710579F47E2F8B2F1F
:1032A000932F0DC0832F7B2F9E2F09C08E2F7B2F36
:1032B000952F05C08E2F732F02C07E2F852F692F6B
:1032C000DF91CF911F910F91FF90EF90089541E012
:1032D0000E94D718089508950E9467190895CF9302
:1032E000DF93762FE901682F842F0E946C19798370
:1032F00068838A83DF91CF91089580910B03282FF3
:10330000269530E02115310519F48170826005C0E1
:103310002532310524F08170886480930B03089571
:1033200088E090E00C946A31CF92DF92EF92FF92A6
:103330006B017C010E947D19B701A60188E090E035
:10334000FF90EF90DF90CF900C948831EBE0F3E0AA
:1033500083E0808311828FEF828383831482608174
:103360007181828193810C94941980910B0380FF69
:1033700002C08695089580E0089590910F039330E0
:1033800018F49F5F90930F03882351F060910B0313
:1033900070910C0380910D0390910E030C9494197D
:1033A000089581E00C94BD1990910F03992319F0B1
:1033B000915090930F03882351F060910B0370910B
:1033C0000C0380910D0390910E030C9494190895B1
:1033D00081E00C94D41970E00C94252060912D01AB
:1033E00080910B0380FF0AC080912C0123E0829F13
:1033F000C0011124805F9C4F0C94EB1980912E0129
:1034000090912F01891780F7E82FF0E09F01220F9C
:10341000331FE20FF31FE05FFC4F11821082128214
:103420008F5FF0CF90910B0390FF16C090912E010B
:1034300020912F01921770F4E92FF0E0DF01AA0F1D
:10344000BB1FEA0FFB1FE05FFC4F81836083428359
:103450009F5FF0CF0C94EE190895CF93DF9300D0C7
:103460001F92CDB7DEB790910B0390FF0AC09E016B
:103470002F5F3F4F0E946F194B8169818A810E94A3
:10348000121A0F900F900F90DF91CF910895CF9364
:10349000DF93EC016C8170E080E090E00E94BF2E31
:1034A00020E030E04FE753E40E94E22D2BED3FE0B7
:1034B00049E450E40E94E82F0E9455300E945C2E9F
:1034C0002BE43AE34EE25FE30E94752D20EF3BEFE1
:1034D00048ED52E40E94E82F0E948E2E462FEBE02A
:1034E000F3E0628181810E942D1A8C818F5F8C8331
:1034F000DF91CF910895CF93DF93EC01EBE0F3E000
:10350000438162818C810E942D1A8C818F5F8C8314
:10351000DF91CF9108950F931F93CF93DF9300D046
:103520001F92CDB7DEB78C018091BF0281110AC016
:103530009E012F5F3F4F4FEF6FEF0E946F198A81FF
:103540008093BF02F8018481813051F028F08230ED
:1035500061F44091BF020AC08091BF0240E007C001
:103560006091BF0240E080E003C040E080E060E0A6
:103570000E94121AF801848190E0019663E070E0E5
:103580000E94D23084830F900F900F90DF91CF91E3
:103590001F910F910895AF92BF92CF92DF92EF9259
:1035A000FF920F931F93CF93DF9300D01F92CDB75D
:1035B000DEB7182FF62E042FE22E90910B0390FF0A
:1035C0006DC0E92FE695AE2FB0E0A154BE4F8C91AF
:1035D0008093CB029E7F923061F49E012F5F3F4F1C
:1035E000812F0E946F194B8169818A810E94121A72
:1035F00043C0823019F400910E033EC0863019F4A6
:1036000010910C0339C08930D9F38931A9F5E951FA
:103610008E2F8170D82EE695F0E0E457FC4FA590F0
:10362000B490C12CBB2460913001C61618F52C2D26
:1036300030E0A29EC001A39E900DB29E900D112479
:1036400070E00E94BE30812FD11002C0860F01C0F1
:10365000861B90912E01290F311DA901440F551F82
:10366000240F351F205F3C4F402F6F2D0E946F1994
:10367000C394D9CF0E94EE1910930C03F0920D035E
:1036800000930E03EE2051F060910B0370910C0338
:1036900080910D0390910E030E9494190F900F904A
:1036A0000F90DF91CF911F910F91FF90EF90DF90DE
:1036B000CF90BF90AF900895EBE0F3E09181282F79
:1036C0004381628188E0890F0C94CB1A81E00C94CD
:1036D0005C1BEBE0F3E09181282F4381628188EF4E
:1036E000890F0C94CB1A81E00C94691BEBE0F3E09A
:1036F000628128E0620F08F46FEF282F43818181F7
:103700000C94CB1A81E00C94761BEBE0F3E0628121
:1037100028E0621B08F460E0282F438181810C942B
:10372000CB1A81E00C94851BEBE0F3E0438128E0A9
:10373000420F08F44FEF282F628181810C94CB1A3D
:1037400081E00C94941BEBE0F3E0438128E0421B02
:1037500008F440E0282F628181810C94CB1A81E02B
:103760000C94A31B20E00C94CB1AFF920F931F9391
:10377000CF93DF93EC01F12C0FEF10E0609130015B
:10378000F616F0F480912E012F2D30E0280F311D18
:10379000C901880F991F280F391F205F3C4F70E027
:1037A000C8010E94D230962F8C8140910E03609107
:1037B0000D03F99E800D11240E946F19F394DECF42
:1037C0000E94EE199A818C8190FF02C08F5F01C028
:1037D00081508C83DF91CF911F910F91FF900895BD
:1037E000BF92CF92DF92EF92FF920F931F93CF93EE
:1037F000DF93FC01828180FF02C00FEF01C001E076
:1038000010E080913001181708F040C080912E011F
:10381000C12ED12CE601C80FD11DCE01880F991FF2
:10382000C80FD91FC05FDC4F198218821A8234E09A
:10383000E32EF12CB12C8091C1028B0D813114F05B
:103840008F7005C087FF03C090913001890F082E4B
:10385000000C990BC816D90691F480910E038E9D29
:10386000A0018F9D500D112455954795559547956D
:103870009E0160910D0380910C030E946F19B00EA0
:10388000F1E0EF1AF108B9F61F5FBBCF0E94EE1905
:103890008091C102013031F4811102C08091300168
:1038A000815007C090E001966091300170E00E9465
:1038B000D2308093C102DF91CF911F910F91FF9081
:1038C000EF90DF90CF90BF900895CF9380912E011D
:1038D00090912F01891770F4E82FF0E09F01220FDB
:1038E000331FE20FF31FE05FFC4F11821082128240
:1038F0008F5FF0CFC0E060913001C617C0F5EC2FAC
:10390000F0E070E0CF010E94D23020912E01820FB2
:103910002091C002022E000C330B90E0E217F30757
:10392000CCF020912B01022E000C330B2E173F07F9
:103930008CF09C01220F331F820F931F9C01205F8C
:103940003C4F40910E0360910D0380910C030E9447
:103950006F190BC0FC01EE0FFF1F8E0F9F1FFC01A4
:10396000E05FFC4F118210821282CF5FC4CF0E94B1
:10397000EE1920912A018091C002820F8093C0022B
:1039800090912B01920F90932B0119165CF4082E45
:10399000000C990B4091300150E0415051098417BF
:1039A00095071CF0219520932A01CF9108958F92BD
:1039B0009F92AF92BF92CF92DF92EF92FF920F93BE
:1039C0001F93CF93DF938C01FC014481C42FD0E07F
:1039D0009E01DE010E9416319B01AC010E942C3138
:1039E0006B017C01E0E2F0E0EC1BFD0BA5E5B0E033
:1039F0009B01AC010E942C314B015C019F01DF0156
:103A00000E940E319B01AC010E9437319B01AC0139
:103A10002C0D3D1D4E1D5F1DC501B4010E94E630F9
:103A2000C22FD22F2A3228F4F3E02F9F90011124C5
:103A30000DC025E530E02C1B3109C901880F991F05
:103A4000280F391F37FF02C02F5F3F4F359527954D
:103A5000C22FC095F12C85E5E82EED1A809130013A
:103A6000F816C8F4F1FC02C08E2D01C08D2F909184
:103A70002E012F2D30E0290F311DA901440F551FB4
:103A8000240F351F205F3C4F4C2F60910D030E9487
:103A90006F19F394E3CF0E94EE19F801848181112C
:103AA00002C091E003C0803219F49FEF9093290186
:103AB00090912901890FF8018483DF91CF911F91A3
:103AC0000F91FF90EF90DF90CF90BF90AF909F90BD
:103AD0008F9008950F931F93CF93DF93EC0100E035
:103AE00010E080913001282F30E00217130724F5F1
:103AF00090912E019801290F311DA901440F551FE6
:103B0000240F351F205F3C4F869590E04C810817AD
:103B100019071CF4442331F002C0411103C0409145
:103B20000E0301C040E060910D0380910C030E94E0
:103B30006F190F5F1F4FD5CF0E94EE198C8190E057
:103B40000196817099278C83DF91CF911F910F91FE
:103B50000895EBE0F3E080818E7F80836081718146
:103B6000828193810E9494191092CC022FEF80E7FA
:103B700092E0215080409040E1F700C000000C949A
:103B8000EE19EBE0F3E080818E7F80831092CC020F
:103B90002FEF80E792E0215080409040E1F700C095
:103BA00000000C94EE191092CC028091C902811190
:103BB0000AC081E08093C90280910B0381708093D9
:103BC000C8020C94C11D089560910B03669570E0C6
:103BD0004BE050E081E391E00E943F31892B19F4E2
:103BE00081E08093CC020E949D259093C302809334
:103BF000C202089590910B0390FF35C0917081111E
:103C000002C0926006C0853210F0986402C0880F2E
:103C1000982B90930B03662351F060910B037091E6
:103C20000C0380910D0390910E030E9494196091F2
:103C30000B03669570E04BE050E081E391E00E9459
:103C40003F31892B19F01092CC0202C00E94E41D72
:103C500081E08093C50240910E0360910D03809135
:103C60000C030C94B21B0895682F90910B0396954A
:103C700081E0890F853208F081E00C94FA1D81E023
:103C80000C94341E682F90910B0396958FEF890F3B
:103C900009F484E20C94FA1D81E00C94421E61E068
:103CA0000C94FA1DEBE0F3E08081816080838695BF
:103CB0000C944F1E80910B0380FD0C94A91D0C9455
:103CC000521E60E00C94FA1D8091CA0281112EC030
:103CD0000E94250E811104C00E94CD0E0E94A619DB
:103CE0000E94901960930B0370930C0380930D0353
:103CF00090930E036E7F61F40E94A6190E949019A2
:103D000060930B0370930C0380930D0390930E0349
:103D10000E947D191092CC0280910B0380FF03C09A
:103D200086950E94611E81E08093CA020895EBE0AF
:103D3000F3E080818160808386950C94611E1092EF
:103D4000C9028091C80281110E94971E0C94E41D43
:103D50000F931F93CF93DF938091CC02882309F4B4
:103D600085C08091CB02E0910B03E695E81BE093C0
:103D7000C402823049F4F0E0E857FC4FE491CE2FC2
:103D8000D0E007E41AE149C0863049F4F0E0EB578F
:103D9000FC4FE491CE2FD0E00BE71AE13EC0893012
:103DA00051F4E695F0E0EE57FC4FE491CE2FD0E0D1
:103DB00005EB1BE132C08F3051F4E695F0E0E1589D
:103DC000FC4FE491CE2FD0E000EF1BE126C08531FF
:103DD00049F4F0E0E458FC4FE491CE2FD0E005E642
:103DE0001CE11BC0883181F0833239F4EAE7F3E04B
:103DF000C591D4910BE81AE110C0843251F4C4EF9C
:103E0000D1E00AE61DE109C0C8E2D0E007ED1CE1FF
:103E100004C0C0EDD7E00BE619E18091C50288230C
:103E200061F01092C5020E949D259093C302809379
:103E3000C2021092C7021092C6020E949D25E09114
:103E4000C202F091C3028E1B9F0B8F3F9F4770F4FD
:103E5000EC0FFD1FF093C302E093C20282EC92E0EC
:103E6000F801DF91CF911F910F910994DF91CF91CC
:103E70001F910F910895882311F0FA0101C0FB01F1
:103E80000994CF93DF93C82FD62F0E94B5198C17B2
:103E900040F00E94B5198D1720F4DF91CF910C945A
:103EA0003F1E8C2FDF91CF910C944F1E1F93CF9309
:103EB000DF93FB0112811111C3C0EC010E946D0D53
:103EC0008272CD3CFCE5DF0709F49AC0A8F5C73C37
:103ED000ECE5DE0709F476C0A8F4C43C9CE5D907FC
:103EE00009F45FC028F4C33CDC4509F457C054C052
:103EF000C53C9CE5D90709F459C0C63CDC4509F42A
:103F00005CC04AC0CA3CFCE5DF0709F46AC050F453
:103F1000C83CECE5DE0709F45AC0C93CDC4509F4AD
:103F20005BC03AC0CB3C9CE5D90709F45FC0CC3CF0
:103F3000DC4509F460C030C0C23DFCE5DF0709F490
:103F40006FC088F4CF3C9CE5D90709F460C008F441
:103F50005CC0C03DFCE5DF0709F45CC0C13DDC4549
:103F600009F45BC019C0C53D9CE5D90709F460C0E0
:103F700050F4C33DFCE5DF0709F455C0C43DDC4502
:103F800009F454C009C0C63D9CE5D90709F455C0E1
:103F9000CE35DD4509F454C011E052C00E945A1ECE
:103FA0004FC04CE45EE16FE37EE104C04FE35EE1AD
:103FB0006CE47EE10E943B1F43C043E75BE166E6A1
:103FC0007BE1F8CF46E65BE163E77BE1F3CF41E9D4
:103FD0005BE162E87BE1EECF42E85BE161E97BE136
:103FE000E9CF4FEA5BE160EA7BE1E4CF40EA5BE1E5
:103FF0006FEA7BE1DFCF48EE59E161ED79E1DACF9D
:1040000041ED59E168EE79E1D5CF81E017C065E077
:1040100082E010C068E086E00DC06EE089E00AC072
:1040200064E18FE007C067E185E104C088E106C074
:1040300062E289E10E94411F03C083E20E944F1E99
:10404000812FDF91CF911F910895539A2BB1277F34
:104050003BB138604FB7F894FC01CB01880F991F32
:10406000680F791F6E0F7F1FE617F70789F08191A0
:1040700098E03BB9000000C087FF2BB9880F000013
:1040800000C000C000C02BB900C09A9591F7ECCFDA
:104090004FBF8FE594E00197F1F700C0000008954D
:1040A0000895FC01680F791F8FEF91E3E617F7077A
:1040B00071F02191822728E030E087FF03C0880F4C
:1040C000892701C0880F21503109B9F7EFCF089532
:1040D0000F931F93CF93DF93C42FD22FFC018281C4
:1040E0008823C9F04093CF020E9433269093CE02DA
:1040F0008093CD0280E28C0F883008F057C0C770E3
:1041000081E001C0880FCA95EAF7DF91CF911F9136
:104110000F910C9482058091CF02481330C080919A
:10412000CD029091CE020E944B26883C910538F535
:1041300010E21D0FCD17B9F080E28C0F883040F4EB
:10414000C77081E001C0880FCA95EAF70E9489050F
:10415000183028F581E09D2F977001C0880F9A953F
:10416000EAF70E948205802F0E9479051830F0F44A
:10417000D77081E001C0880FDA95EAF70AC080E2C3
:104180008C0F883098F4C77081E001C0880FCA9501
:10419000EAF7DF91CF911F910F910C948905802F41
:1041A000DF91CF911F910F910C947905DF91CF9101
:1041B0001F910F9108950F939C01CB01243F4CE573
:1041C000340731F188F4293DFCE53F07D9F02A3D59
:1041D0004CE5340779F1283D3C45A9F506E221EE8E
:1041E00041EE68ED7CE52BC0263FFCE53F07E1F0A2
:1041F000A8F0273F3C4539F507E225EE46EE67EF8C
:104200007CE51DC007E225EE45EE69ED7CE517C0B3
:1042100006E221EE40EE64EF7CE511C007E225EEF8
:1042200044EE65EF7CE50BC006E221EE42EE66EF60
:104230007CE505C008E221E045EE6AED7CE50E94E0
:10424000682080E008C0FC018281882319F0109268
:10425000CF0201C081E00F910895CF93DF93EC016D
:10426000FB018281882309F426C1C430FDE5DF0704
:1042700060F4CB3F9CE5D90768F49E0122503C4591
:104280002431310508F018C105C0C236EDE5DE075E
:1042900009F012C10E94380E9093E7028093E60263
:1042A000C031FCE5DF0709F4CAC008F041C0C830DE
:1042B0009CE5D90709F4A4C0F0F4C430FCE5DF079D
:1042C00009F48CC068F4C2309CE5D90709F482C0B7
:1042D000C330DC4509F0E5C08091E6028260DFC0B2
:1042E000C630FCE5DF0709F483C008F085C0809183
:1042F000E6028860D4C0CC309CE5D90709F490C0B0
:1043000068F4CA30FCE5DF0709F47EC008F084C019
:104310000E9406088091E6028068C1C0CE309CE50C
:10432000D90709F481C008F086C08091E60294C0E4
:10433000CD3FFCE5DF0709F47BC038F5C4319CE5CF
:10434000D90709F49AC058F4C231FCE5DF0709F433
:104350007AC008F07EC08091E6028F7BA0C0CB3F80
:104360009CE5D907F1F108F03FC0C531DC4509F003
:1043700098C08091E60282FB222720F991E09227E3
:1043800090FB82F990FB83F98AC0C1308DE5D80794
:1043900009F467C050F48091E702CF3FECE5DE07F7
:1043A000C1F108F05BC08D7F65C0C3308DE5D807D3
:1043B00009F471C008F46DC0C236DD4509F071C062
:1043C0008091E60284FB222720F991E0922790FB5E
:1043D00084F965C08091E602816061C08091E60247
:1043E00016C08091E70216C08091E702826042C049
:1043F0008091E602806153C08091E60280624FC0E6
:104400008091E60280644BC08091E60288608460FF
:1044100046C0826081602EC08091E6028E7F3FC0E0
:104420008091E6028D7F3BC08091E602877F37C096
:104430008091E70214C08091E6028F7E30C08091A7
:10444000E6028F7D2CC00E9406088091E6028F77DD
:1044500026C08091E602877F8B7F21C08D7F8E7F73
:1044600009C08091E702982F909591708E7F892BDB
:1044700090FB81F98093E70214C00E9406088091A6
:10448000E60287FB222720F991E0922790FB87F92B
:1044900006C081E001C080E00E94CF0E02C0809380
:1044A000E6028091E6029091E7020E94490E0E9486
:1044B000060880E001C081E0DF91CF910895CF939D
:1044C000DF9386319C4541F5EB010E946D0D982FDD
:1044D0008A812091000130910101882379F09A7A34
:1044E00081E009F480E08093D002911102C069E27A
:1044F00001C065E3C9010E9451250AC08091D00224
:10450000811102C069E201C065E3C9010E9453251F
:104510000E94B20D80E001C081E0DF91CF9108954B
:104520008EE14A9B02C08150E1F74A9BFECF08957D
:104530005A9880E28A95F1F75A9A0895FC012AE088
:104540002A95F1F728E090E080E031E040E14A95DB
:10455000F1F7880F4A9B02C08160932700C00000DA
:1045600040E14A95F1F7215089F720E12A95F1F7CA
:1045700029B100C0000030E13A95F1F722FB222773
:1045800020F992272081920F90830895EF92FF9255
:104590000F931F93CF93DF931F92CDB7DEB719828E
:1045A0008C017C01E60EF11C0E151F0551F00E94D6
:1045B0009022CE0101960E949E22F80181938F01E4
:1045C000F3CF81E09981911180E00F90DF91CF913D
:1045D0001F910F91FF90EF900895529A5A9A089563
:1045E00052985A9AEA9AE9E6F0E080818F7C8083BB
:1045F0000895615091E001C0990F6A95EAF720E0B3
:1046000031E0992361F0492F482319F05A9A232762
:1046100001C05A9840E24A95F1F79695F2CF2223CD
:1046200011F05A9A01C05A9880E28A95F1F75A9887
:104630000895FF920F931F93CF93DF93EC018C01AA
:10464000060F111DC017D10741F0F9900E94982262
:1046500068E08F2D0E94F922F5CFDF91CF911F9155
:104660000F91FF9008951F920F920FB60F92112491
:10467000EF92FF920F931F932F933F934F935F936C
:104680006F937F938F939F93AF93BF93EF93FF931A
:10469000CF93DF931F92CDB7DEB719820E9490228D
:1046A000CE0101960E949E22A82FA695A695A695BA
:1046B0009A2F969595702A2F2570920F292F237087
:1046C00096959695920F877089137CC08981811188
:1046D00079C0A43008F076C080E18A95F1F75A9A43
:1046E000529AB2E0BA95F1F700C05A98EA2EF12C2E
:1046F000EAE0AE9FD0011124AD5FBE4F1896ED9158
:10470000FC9119973097B1F06091BD017091BE0195
:1047100016962D913C911797260F371F13968D9162
:104720009C911497680F791F15964C9115971296C6
:104730008C9109958AE08E9DF0018F9DF00D1124DA
:10474000ED5FFE4F6581662351F08091BD01909130
:10475000BE0126813781820F931F0E9419230E9478
:104760009822F0E1FA95F1F75A9852985A9A80E116
:104770008A95F1F78AE08E9D80018F9D100D11249E
:104780000D5F1E4FD80112966C911297662399F017
:104790008091BD019091BE0113962D913C9114978B
:1047A000820F931F0E94C622D801ED91FC918111C6
:1047B00005C082E004C0D801ED91FC9188E08083BF
:1047C0000E9490220F90DF91CF91FF91EF91BF91C6
:1047D000AF919F918F917F916F915F914F913F9199
:1047E0002F911F910F91FF90EF900F900FBE0F90A0
:1047F0001F9018950F931F93CF93DF9384309105EB
:104800000CF0A9C02AE0289FF001299FF00D112487
:10481000ED5FFE4F20813181232B09F49CC0EC0118
:10482000F894529A5A9885E08A95F1F700008C2FF7
:10483000869585709C2F9570890F982F937086951B
:1048400086958E0123E0000F111F2A95E1F7890F4D
:10485000082B0E949822A4E0AA95F1F700C068E016
:10486000802F0E94F922B0E1BA95F1F752985A9A36
:104870004A9902C000C0FCCF87E090E04A9B17C075
:10488000019799F4529A5A9A8AE08C9FF0018D9F71
:10489000F00D1124ED5FFE4F0190F081E02D81E0DD
:1048A0008083789481E090E058C000C0E7CF8AE030
:1048B0008C9F80018D9F100D11240D5F1E4FF801FC
:1048C00065816623B9F08091BD019091BE0126817A
:1048D0003781820F931F0E94C62281110BC0529A0A
:1048E0005A9AD801ED91FC9182E08083789482E01D
:1048F00090E033C00E949022B0E2BA95F1F75A9846
:10490000529AE0E1EA95F1F78AE08C9FF0018D9FE1
:10491000F00D1124ED5FFE4F6281662351F080910E
:10492000BD019091BE0123813481820F931F0E94AB
:1049300019230E9498228AE08C9FF0018D9FF00D30
:104940001124ED5FFE4F0190F081E02D10827894EC
:1049500080E090E002C084E090E0DF91CF911F9171
:104960000F9108959093D7028093D60208950E94E4
:104970000414811103C08091D1020895E091D60200
:10498000F091D702309721F00190F081E02D099449
:1049900080E00895E091D602F091D702309721F09F
:1049A0000280F381E02D09940895E091D602F09100
:1049B000D702309739F022E0DC012C930480F58196
:1049C000E02D099408952091D4023091D502281742
:1049D000390771F09093D5028093D402E091D6020A
:1049E000F091D702309721F00680F781E02D0994ED
:1049F00008952091D2023091D3022817390771F01F
:104A00009093D3028093D202E091D602F091D70224
:104A1000309721F00084F185E02D09940895FC0180
:104A2000329697E080E0915029F021912223D9F32A
:104A30008F5FF9CF0895662349F0FC0132960896FE
:104A40002191621729F0E817F907D1F780E008955E
:104A500081E008959C01FC0132969FEF80E0419136
:104A6000461789F09F3F19F4411101C0982F8F5FBD
:104A70008630A9F79F3F39F0F901E90FF11D97FD45
:104A8000FA956283089508959C012A5F3F4FFC01C7
:104A90004281461301C01282019682179307B9F72B
:104AA00008950C942A250C944425029626E0FC01D6
:104AB00011922A95E9F7089510924003109241034C
:104AC00010924203109243030895CF92DF92EF9227
:104AD000FF926B017C010E94041481110EC00E94A0
:104AE0003F26C61AD70AE80AF90AC0924003D092B4
:104AF0004103E0924203F0924303FF90EF90DF9076
:104B0000CF9008950F931F930E940414882321F0DF
:104B10001F910F910C943F260E943F260091400365
:104B2000109141032091420330914303600F711FA4
:104B3000821F931F1F910F9108950E9404148111E9
:104B40000C9433260E948225CB0108950895089580
:104B50000C94A7250C94A725CF930E94AA250E9408
:104B600073130E94A825C0E08C2F0E940E12892B7F
:104B700029F4CF5FC830C1F780E001C081E0CF9158
:104B800008950C94A7250C94C12580914C03843082
:104B900059F10E94C32580E00E94F7030E94D31DB3
:104BA0001092D80220E488E190E00FB6F894A8951E
:104BB000809360000FBE2093600083B7817F846084
:104BC00083BF83B7816083BF7894889583B78E7FD6
:104BD00083BF0FB6F894A895809160008861809398
:104BE0006000109260000FBE08950C94A7250E94EB
:104BF00006080E94B7240E94F7030E949F1E0C948F
:104C0000F5251F920F920FB60F9211248F939F9349
:104C1000AF93BF938091D802811113C08091440358
:104C200090914503A0914603B09147034196A11D81
:104C3000B11D8093440390934503A0934603B09322
:104C40004703BF91AF919F918F910F900FBE0F902F
:104C50001F90189582E084BD93E095BD9AEF97BDB3
:104C600080936E0008952FB7F8948091440390913B
:104C70004503A0914603B09147032FBF08952FB776
:104C8000F89460914403709145038091460390919C
:104C900047032FBF08959C014FB7F89480914403B8
:104CA00090914503A0914603B09147034FBF821BEB
:104CB000930B0895CF92DF92EF92FF922FB7F89463
:104CC000C0904403D0904503E0904603F090470322
:104CD0002FBFA7019601261B370B480B590BCA01A2
:104CE000B901FF90EF90DF90CF90089578941F92D4
:104CF0000F920FB60F9211248F939F93AF93BF9390
:104D00008091440390914503A0914603B0914703DD
:104D10000196A11DB11D8093440390934503A09378
:104D20004603B0934703BF91AF919F918F910F902E
:104D30000FBE0F901F90189587E797E79093010893
:104D4000809300089AE088E10FB6F894A8958093C4
:104D500060000FBE90936000FFCF9093E5018093B9
:104D6000E40108958091E402089590914C039430F9
:104D700031F58093D9027093DB026093DA0282E00E
:104D80008093E9008FEF9091E800815095FD06C077
:104D900095ED9A95F1F700008111F5CF8091E8002B
:104DA00085FF0DC040E050E063E070E089ED92E0E7
:104DB0000E94C5288091E8008E778093E8000895CE
:104DC000BC0184E00C94B526BC0183E00C94B526AC
:104DD00022E02093E9002FEF3091E800215035FDCB
:104DE00006C035ED3A95F1F700002111F5CF20917D
:104DF000E80025FF0BC040E050E066E070E00E9454
:104E0000C5288091E8008E778093E8000895CF93BD
:104E1000DF9321E02093E9002FEF3091E80021504B
:104E200035FD06C035ED3A95F1F700002111F5CFBB
:104E30002091E80025FF14C0EC0140E050E068E05C
:104E400070E00E94C5288091E8008E778093E8008A
:104E500088E0FE01ACEDB2E001900D928A95E1F799
:104E6000DF91CF91089580914B03811109C00E9479
:104E7000562A0E94B32A8091E20084608093E20067
:104E8000089510924B03089508950895089542E0FF
:104E900061EC81E00E94CF2942E261EC82E00C9457
:104EA000CF2980914E03833009F460C030F4813003
:104EB00071F0823009F499C008958A3009F485C0F0
:104EC0008B3009F46BC0893009F0A7C020C08091F5
:104ED0004D03813A09F0A1C08091E800877F80935B
:104EE000E8008091510390915203892B21F468E0EE
:104EF0008CED92E003C060E080E090E070E00E9402
:104F000010298091E8008B778093E80008958091C4
:104F10004D03813209F081C0809151039091520379
:104F2000029708F07AC08091E800877F8093E800BC
:104F30008091E80082FD05C080914C038111F8CF7B
:104F40006CC02091F3008091F20090E0922B0297C8
:104F500029F48091F1008B7F813021F48091F10060
:104F60008093E4028091E8008B7753C080914D03D9
:104F7000813A09F052C08091510390915203892BDC
:104F800009F04BC08091E800877F8093E800809112
:104F9000E80080FFFCCF8091460136C080914D0330
:104FA0008132D9F58091510390915203892BA9F553
:104FB0008091E800877F8093E8000E94042A809116
:104FC0004F03809346010C94060880914D03813273
:104FD00021F58091E800877F8093E8000E94042AF1
:104FE000809150038093E502089580914D03813AAA
:104FF000A1F48091E800877F8093E8008091E80029
:1050000080FFFCCF8091E5028093F1008091E80061
:105010008E778093E8000C94042A089584B7877FE4
:1050200084BF0FB6F894A895809160008861809342
:105030006000109260000FBE90E080E80FB6F89418
:1050400080936100909361000FBE0C94FD0E0E944E
:10505000562A0E94B32AE2EEF0E0808184608083C9
:1050600078940E94482D0E940B0F8CE391E00C94E1
:10507000B22480914C038530A9F480914C03853093
:1050800079F40E94C52580914A038823B1F30E94D8
:10509000AC25882391F30E94AF280E940608EDCF2B
:1050A0000E94F7250C94170F0C945628292F3327AC
:1050B00023303105C9F060F42130310581F0223010
:1050C000310509F044C08BE390E02DEB34E043C0A0
:1050D00021323105E1F02232310549F138C082E157
:1050E00090E028EF34E037C099278130910549F0EE
:1050F00028F0029761F5E1E9F4E005C0E9EBF4E09E
:1051000002C0E3EAF4E0849190E09F0124C06115BD
:10511000710541F061307105D1F489E090E028EE2D
:1051200034E019C089E090E02FEC34E014C0611540
:10513000710541F06130710551F48BE790E02AE090
:1051400035E009C080E490E025E835E004C080E067
:1051500090E020E030E0FA0131832083089580E17F
:1051600089BD82E189BD09B400FEFDCF8091D800E0
:105170008F7D8093D8008091E00082608093E00072
:105180008091E00081FDFCCF0895CF92DF92EF92F5
:10519000FF920F931F93CF93DF93EC018B017A0162
:1051A0000E94232A811133C0E114F10439F0F70180
:1051B00080819181081B190BC80FD91FC12CD12CDC
:1051C0000115110519F18091E80085FD16C0809147
:1051D000E8008E778093E800E114F10449F0F701CC
:1051E00080819181C80ED91ED182C08285E00FC016
:1051F0000E94232A882321F30AC089918093F10019
:1052000001501109FFEFCF1ADF0ADACF80E0DF91FA
:10521000CF911F910F91FF90EF90DF90CF90089565
:1052200020915303309154032617370748F0611536
:10523000710539F42091E8002E772093E80001C031
:10524000B901FC0120E06115710579F180914C03F1
:105250008823F1F18530F1F18091E80083FD3CC0B5
:105260008091E80082FD2EC08091E80080FFEBCFA6
:105270002091F3008091F20090E0922B611571056E
:1052800051F08830910538F421912093F10061505C
:1052900071090196F3CF21E0089709F020E0809191
:1052A000E8008E778093E800CECF2111CFCF0AC0DF
:1052B00080914C03882361F0853061F08091E80093
:1052C00083FD0AC08091E80082FFF2CF80E008955C
:1052D00082E0089583E0089581E0089520915303CA
:1052E000309154032617370748F06115710539F4DA
:1052F0002091E8002E772093E80001C0B901FC015D
:1053000020E06115710591F180914C03882309F427
:1053100040C0853009F43FC08091E80083FD3DC066
:105320008091E80082FD2FC08091E80080FFE9CFE6
:105330002091F3008091F20090E0922B61157105AD
:1053400059F08830910540F424912093F100319672
:10535000615071090196F2CF21E0089709F020E031
:105360008091E8008E778093E800CBCF2111CCCFDD
:105370000AC080914C03882361F0853061F08091F0
:10538000E80083FD0AC08091E80082FFF2CF80E050
:10539000089582E0089583E0089581E00895982FAC
:1053A000973068F59093E900981739F07091EC0008
:1053B0002091ED005091F00003C0242F762F50E093
:1053C00021FD02C09F5FECCF3091EB003E7F309318
:1053D000EB003091ED003D7F3093ED003091EB001C
:1053E00031603093EB007093EC002093ED0050930C
:1053F000F0002091EE0027FDE5CF80E008958F704A
:105400008093E90081E0089580914D0387FF11C0EA
:105410008091E80082FD05C080914C038111F8CF96
:1054200011C08091E8008B770BC080914C038823DA
:1054300049F08091E80080FFF8CF8091E8008E77F6
:105440008093E80008952091E4003091E50095E60E
:105450004091EC00842F817040FF23C08091E800D0
:1054600080FD1DC080914C03882399F0853099F010
:105470008091EB0085FD11C04091E4005091E50062
:105480002417350729F3915011F09A01E1CF84E0F8
:10549000089582E0089583E0089581E0089580E012
:1054A00008954091E80042FFDDCF08950E94C42A8C
:1054B0000E94CC2AE0EEF0E0808181608083E8EDFC
:1054C000F0E080818F77808319BCA7EDB0E08C91EC
:1054D0008E7F8C9380818F7E808310924B03089502
:1054E0000F931F93CF93DF930E94C42A0E94CC2A6C
:1054F000C8EDD0E088818F77888388818068888331
:1055000088818F7D888319BC10924C0310924803C8
:1055100010924A031092490300EE10E0F8018081D6
:105520008B7F808388818160888342E060E080E0B7
:105530000E94CF29E1EEF0E080818E7F8083E2EE51
:10554000F0E0808181608083808188608083F801C1
:1055500080818E7F8083888180618883DF91CF9175
:105560001F910F910895E8EDF0E080818F7E808398
:10557000E7EDF0E080818160808384E082BF81E09C
:1055800080934B030C94702AE8EDF0E080818E7FCD
:1055900080831092E20008951092DA001092E100E8
:1055A00008951F920F920FB60F9211242F933F93DD
:1055B0004F935F936F937F938F939F93AF93BF931B
:1055C000EF93FF938091E10082FF0BC08091E20096
:1055D00082FF07C08091E1008B7F8093E1000E94F1
:1055E000472D8091DA0080FF1FC08091D80080FF96
:1055F0001BC08091DA008E7F8093DA008091D90001
:1056000080FF0DC080E189BD82E189BD09B400FE43
:10561000FDCF81E080934C030E94332705C019BC65
:1056200010924C030E9441278091E10080FF19C035
:105630008091E20080FF15C08091E2008E7F809310
:10564000E2008091E20080618093E2008091D800C6
:1056500080628093D80019BC85E080934C030E943F
:1056600045278091E10084FF30C08091E20084FFF3
:105670002CC080E189BD82E189BD09B400FEFDCF67
:105680008091D8008F7D8093D8008091E1008F7E3B
:105690008093E1008091E2008F7E8093E200809110
:1056A000E20081608093E20080914803882311F03A
:1056B00084E007C08091E30087FD02C081E001C063
:1056C00083E080934C030E9446278091E10083FF92
:1056D00029C08091E20083FF25C08091E100877F8F
:1056E0008093E10082E080934C0310924803809104
:1056F000E1008E7F8093E1008091E2008E7F8093B5
:10570000E2008091E20080618093E20042E060E08C
:1057100080E00E94CF298091F00088608093F000A3
:105720000E944427FF91EF91BF91AF919F918F917C
:105730007F916F915F914F913F912F910F900FBE8D
:105740000F901F9018951F920F920FB60F92112471
:105750002F933F934F935F936F937F938F939F9379
:10576000AF93BF93CF93DF93EF93FF93C091E90083
:10577000CF708091EC00D82FD17080FDD0E81092CE
:10578000E9008091F000877F8093F00078940E9478
:10579000E72B1092E9008091F00088608093F00080
:1057A000CD2BCF70C093E900FF91EF91DF91CF91A6
:1057B000BF91AF919F918F917F916F915F914F9129
:1057C0003F912F910F900FBE0F901F9018951F9330
:1057D000CF93DF93CDB7DEB7AA970FB6F894DEBFAD
:1057E0000FBECDBFEDE4F3E08091F100819323E0A3
:1057F000E535F207C9F70E9451278091E80083FF41
:105800002EC180914D0390914E03492F50E04A30B4
:10581000510508F024C1FA01E059FF4F0C940831FA
:10582000803821F0823809F01AC108C080914903FC
:1058300090914A03992389F082600FC080915103AF
:105840008F70873008F00BC18093E9008091EB00E6
:1058500085FB882780F91092E9009091E800977FF6
:105860009093E8008093F1001092F100D1C0282FAE
:105870002D7F09F0F4C0882319F0823061F0EFC069
:1058800080914F03813009F0EAC0933009F080E045
:1058900080934A032EC080914F0381112AC08091CA
:1058A00051038F702FEF280F263008F0D8C0809357
:1058B000E9002091EB0020FF1CC0933021F480917F
:1058C000EB00806214C09091EB0090619093EB002C
:1058D00021E030E0A90102C0440F551F8A95E2F78C
:1058E0004093EA001092EA008091EB008860809378
:1058F000EB001092E9008091E800877F8093E80038
:105900000E94042AACC08111AAC010914F031F77D6
:105910008091E3008078812B8093E3008091E80000
:10592000877F8093E8000E94042A8091E80080FF2E
:10593000FCCF8091E30080688093E300111102C0E6
:1059400082E001C083E080934C0389C0805882309C
:1059500008F085C080914F03909150038C3D53E037
:10596000950779F583E08A838AE289834FB7F894B3
:10597000DE01139620E03EE051E2E32FF0E0509389
:105980005700E49120FF03C0E295EF703F5FEF7096
:105990008E2F90E0EA3010F0C79601C0C0968D932C
:1059A0009D932F5F243149F74FBF8091E800877F97
:1059B0008093E8006AE270E0CE0101960E9410290F
:1059C00016C06091510370915203AE014F5F5F4F5B
:1059D0000E945428BC01892B09F441C09091E80031
:1059E000977F9093E80089819A810E946E29809127
:1059F000E8008B778093E80032C0803881F5809191
:105A0000E800877F8093E800809148038093F1004D
:105A10008091E8008E7772CF811121C080914F0371
:105A20009091500399270297D4F48091E800877FE2
:105A30008093E80080914F03809348030E94042ADA
:105A400080914803811106C08091E30087FD02C068
:105A500081E001C084E080934C030E94472780913D
:105A6000E80083FF0AC08091E800877F8093E80008
:105A70008091EB0080628093EB00AA960FB6F894B9
:105A8000DEBF0FBECDBFDF91CF911F910895089566
:105A9000CF9380914C038823A1F0C091E900CF708F
:105AA0009091EC00892F817090FD80E8C82B1092B6
:105AB000E9008091E80083FD0E94E72BCF70C0933E
:105AC000E900CF9108950E94562A10924C03089540
:105AD000E8EDF0E08081806180838AE18A95F1F7CA
