:100000000C946F030C94B6030C94B6030C94042761
:100010000C94B6030C94B6030C94B6030C94B6037C
:100020000C94B6030C94B6030C94562F0C94283001
:100030000C94D2290C94B6030C94B6030C94B6031A
:100040000C94B6030C94B6030C94B6030C94B6034C
:100050000C94B6030C94472A0C94B6030C94B60384
:100060000C94B6030C94B6030C94B6030C94B6032C
:100070000C94B6030C94B6030C94B6030C94B6031C
:100080000C94B6030C94B6030C94B6030C94B6030C
:100090000C94B6030C94B6030C94B6030C94B603FC
:1000A0000C94B6030C94B6030C94B6035307530791
:1000B00085078507D207F007D308D308FB07630835
:1000C0007408740873097309850985097C09850911
:1000D00085098509730973098109850985098109DC
:1000E000F921FC211C222D223522402243224622C6
:1000F00049228F228F224C224F22542261226E22CB
:100100007122752282229530BC30B431BC30B431BA
:1001100008312B31B4318231913107634236B79BBC
:10012000D8A71A39685618AEBAAB558C1D3CB7CC57
:100130005763BD6DEDFD753EF6177231BF000000CF
:10014000803F05A84CCDB2D44EB93836A9020C5028
:10015000B9918688083CA6AAAA2ABE000000803F62
:10016000000014001A000800150017001C001800F9
:100170000C00120013002A002B00040016000700D8
:1001800009000A000B000D000E000F002D002800D2
:10019000E1001D001B000600190005001100100001
:1001A000360037005200E100E000E300E2002C00DE
:1001B0002C412C4200002C00500051004F00000048
:1001C0001E001F002000210022000000000000008F
:1001D000000000000000000023002400250026008D
:1001E00027000000000000000000000000000000E8
:1001F0003A003B003C003D003E00000000000000D3
:1002000000000000000000003F00400041004200EC
:10021000430000000000000000000000000000009B
:1002200000001E001F0020002100220023002400E7
:100230002500260027002A001E021F02200221029C
:100240002202230224022502260227021E001F008A
:1002500057005600550054006700350089002F12E2
:1002600030122D121E001F002B0049002C002C0004
:100270002C412C420000E000E300E2002A000000D4
:100280001E001F00200021002200000000000000CE
:1002900000000000000000002000210022002300D8
:1002A000240000000000000000000000000000002A
:1002B0002000210022002300240000000000000094
:1002C00000000000000000001E001F0020002100B0
:1002D00022000000000000000000000000000000FC
:1002E00000003A003B003C003D003E003F00400063
:1002F0004100420043001E001F0231003300331250
:1003000034005000510052004F002E001E001F000C
:10031000C25CC35CC55CC65CC75CC85CC95C2F00C2
:10032000300031001E001F002B0049002C002C0063
:100330002C412C420000E000E300E2002A00000013
:100340001F00200021002200230000000000000008
:100350000000000000000000200021002200230017
:100360002400000000000000000000000000000069
:1003700020002100220023002400000000000000D3
:1003800000000000000000001E001F0020002100EF
:10039000220000000000000000000000000000003B
:1003A00000000000000000002A2B280000000000D0
:1003B0000000000000000000000000290000000014
:1003C0002C1E3420212224342627252E362D373882
:1003D000271E1F202122232425263333362E37388B
:1003E0001F0405060708090A0B0C0D0E0F10111249
:1003F000131415161718191A1B1C1D2F3130232D15
:10040000350405060708090A0B0C0D0E0F10111212
:10041000131415161718191A1B1C1D2F3130354CC3
:1004200000000000000000000000000000000000CC
:1004300000000000000000000000000000000000BC
:10044000000000007E0F00D4FFFFFFC7000000780F
:1004500000047F3F1F643214643214783C1E1E1463
:100460000A05FFAA7F5540000101010101010101B8
:100470000102020202020202020203030303030357
:100480000303040404040404040505050505060625
:1004900006060607070707070808080809090909E3
:1004A0000A0A0A0B0B0B0C0C0C0D0D0D0E0E0E0F89
:1004B0000F0F101011111112121313141415151619
:1004C000161717181819191A1A1B1B1C1D1D1E1E8A
:1004D0001F202021222223242425262627282929DB
:1004E0002A2B2C2D2D2E2F30313232333435363706
:1004F00038393A3B3C3D3E3F404142434445464704
:1005000048494A4C4D4E4F50515354555658595ADC
:100510005B5D5E5F616264656668696B6C6D6F7080
:1005200072737577787A7B7D7E8082838587888AEF
:100530008C8E8F91939596989A9C9EA0A2A3A5A726
:10054000A9ABADAFB1B3B5B7BABCBEC0C2C4C6C922
:10055000CBCDCFD1D4D6D8DBDDDFE2E4E7E9EBEEDB
:10056000F0F3F5F8FAFDFF100363006F006F006C05
:100570000034003400350000001403740065006C82
:10058000007A006F003200300030003000000004BC
:1005900003090409025B00030100A0FA090400003A
:1005A000010301010009211101000122400007059A
:1005B000810308000A090401000203000000092168
:1005C0001101000122220007058203200001070516
:1005D00003032000010904020001030000000921B7
:1005E00011010001227B000705840320000A12018B
:1005F000000200000008434D450401000102000113
:100600000660FF0961A1010962150026FF0095201F
:10061000750881020963150026FF00952075089171
:1006200002C005010902A10185020901A100050915
:100630001901290815002501950875018102050198
:10064000093009311581257F950275088106093821
:100650001581257F950175088106050C0A3802155C
:1006600081257F950175088106C0C005010980A11B
:1006700001850319012AB700150126B700950175F8
:10068000108100C0050C0901A101850419012AA0EF
:1006900002150126A002950175108100C00501090F
:1006A00006A101050719E029E71500250195087540
:1006B0000181029501750881010507190029FF15BF
:1006C0000026FF0095067508810005081901290517
:1006D000950575019102950175039101C0001124E2
:1006E0001FBECFEFDAE0DEBFCDBF04B603FE27C0EA
:1006F0008091470390914803A0914903B0914A0328
:100700008730904BA740B04BD1F410924703109222
:1007100048031092490310924A0314BE84B7877F9E
:1007200084BF0FB6F894A89580916000886180938B
:100730006000109260000FBEE0E0F8E3099511E060
:10074000A0E0B1E0E0E7FCE602C005900D92A43F16
:10075000B107D9F723E0A4EFB1E001C01D92A7349F
:10076000B207E1F70E94B5160C9436360C940000DF
:1007700081E0089581E008950C94BA0308950C94E3
:10078000BE031F93CF93DF9300D000D01F92CDB74D
:10079000DEB749835A836B833091F60189819A8150
:1007A000311114C0662359F0222349F00E94690ACE
:1007B000182F682F89819A810E94120A03C00E9413
:1007C0003D0A182F69817A81812F04C00E94690A2D
:1007D00069817A810F900F900F900F900F90DF91A9
:1007E000CF911F910C946123FC01262F40815181F0
:1007F0006281738184810C94C10381E00895CF9359
:10080000DF93EC0160E00E94F403BE01DF91CF9121
:100810000C94BF03E1E0F0E0DF0102C0AA0FBB1FB0
:100820006A95E2F7BD01DF0102C0AA0FBB1F4A951E
:10083000E2F7AD01462B01C0EE0F2A95EAF7942F9F
:100840009823491302C08E2B0895E0958E230895B6
:10085000242F462F682F80911B020E940A040C94BB
:10086000CF090E9470120E9482050C94A3120C946E
:100870009F1208950E9461090E9439042FEF84E3BA
:100880009CE0215080409040E1F700C000000C94B3
:100890006D2A0F931F93CF93DF938C0161E00E9429
:1008A000F403EC01B8010E945121882309F44BC0E4
:1008B000B801CE010E94BC03882309F444C0B801EA
:1008C000CE010E94AC248823F1F1B801CE010E9430
:1008D000FE248823C1F1B801CE010E94302688236E
:1008E00091F1B801CE010E94FA1F882361F1F8014D
:1008F0008281882309F1CA358DE5D807C1F050F40B
:10090000C115FCE5DF0781F0CE3DDC45A9F40E946E
:10091000640F19C0CB35EDE5DE0761F0CC35DD4560
:1009200059F40E94F60D08C00E943A040CC00E94BF
:10093000FF0D02C00E94020EC801DF91CF911F91EE
:100940000F910C94B80380E0DF91CF911F910F912C
:100950000895DF92EF92FF920F931F93CF93DF934F
:10096000E82FF0E0E056FC4FD490282F26952695EE
:10097000269530E0F901E05CFB4F0491877010E0B0
:10098000082E02C0159507950A94E2F70170112709
:10099000F901E05DFB4FE490F12C082E02C0F594C4
:1009A000E7940A94E2F791E0E922FF24F901E05E7E
:1009B000FB4FC491D0E002C0D595C7958A95E2F768
:1009C000C170DD270115110519F081EE0E94DC05CB
:1009D000E114F10419F086EE0E94DC058D2D0E94D1
:1009E0000507EF2819F086EE0E948606012B19F004
:1009F00081EE0E948606CD2B51F08CE2DF91CF91E3
:100A00001F910F91FF90EF90DF900C940507DF91FD
:100A1000CF911F910F91FF90EF90DF900895EF928B
:100A2000FF920F931F93CF93DF93EC01162F0AE0F1
:100A30008881882309F455C0813009F043C0898139
:100A4000813041F47E0182E0E80EF11C8A810E942F
:100A5000050709C0823049F47E01E2E0EE0EF11C88
:100A60008A810E94DC05E7012FC0833041F47E01BA
:100A7000F2E0EF0EF11C8A810E948606F4CF8430EA
:100A800011F0219621C02A81229680E090E030E08A
:100A9000205331092A30310558F4089FA001099FDD
:100AA000500D1124C901840F951F21962881EFCF85
:100AB000009751F0EFE9FFE03197F1F700C0000037
:100AC0000197F6CF0E94A9042196812F882309F46B
:100AD000AFCFEFE9FFE03197F1F700C000008150A0
:100AE000F5CFDF91CF911F910F91FF90EF90089577
:100AF00060E00C940F0508950C947B0581E0089547
:100B00000C947E050895CF93C82F0E947C058C2FEE
:100B10000E948005CF910895CF93DF93CDB7DEB7C4
:100B20002B970FB6F894DEBF0FBECDBF4F8358870B
:100B300069877A878B8761110E94250E9E012F5F3E
:100B40003F4F86E0F90111928A95E9F785E0FE01B1
:100B50003796D90101900D928A95E1F789819A81A2
:100B60004C815D81452B31F09F3F31F491E08F3F07
:100B700019F403C091E001C090E090FF09C04981E1
:100B80005A816B817C818D819E810E94250D05C0DB
:100B9000C9010E94FD038111F2CF2B960FB6F89484
:100BA000DEBF0FBECDBFDF91CF910895FC018081E4
:100BB00091810E94960A0895CF93882309F4A4C0D6
:100BC000C82F8238C1F40E94882881FD9DC069E346
:100BD00080910001909101010E9422290E944A0EF9
:100BE0002FEF81EE94E0215080409040E1F700C06B
:100BF000000069E319C0833801F50E94882880FD50
:100C000083C063E580910001909101010E94222937
:100C10000E944A0E2FEF81EE94E0215080409040D8
:100C2000E1F700C0000063E58091000190910101AF
:100C30000E942429CF910C944A0E8438C1F40E945A
:100C4000882882FD61C067E48091000190910101D4
:100C50000E9422290E944A0E2FEF81EE94E021503B
:100C600080409040E1F700C0000067E4DDCF8CEFEA
:100C70008C0F813AD0F46C2F80910001909101018A
:100C80000E94EC28882349F06C2F809100019091FC
:100C900001010E9424290E944A0E6C2F80910001BC
:100CA000909101010E942229C5CF80E28C0F8830EB
:100CB00048F4C77081E001C0880FCA95EAF70E9426
:100CC000080EB8CFEBE5EC0FE33040F4F0E0EB5862
:100CD000FE4F808190E0CF910C94B428E8E5EC0FB2
:100CE000E73150F4F0E0EE0FFF1FE95BFE4F80812B
:100CF0009181CF910C94CA28C03F30F08C2F0E9474
:100D00004217CF910C941418CF910895882309F4B9
:100D100064C0823879F40E94882881FF5EC069E34C
:100D200080910001909101010E9422290E944A0EA7
:100D300069E310C08338B1F40E94882880FF4DC059
:100D400063E580910001909101010E9422290E9497
:100D50004A0E63E580910001909101010E942429CF
:100D60000C944A0E843879F40E94882882FF35C09A
:100D700067E480910001909101010E9422290E9464
:100D80004A0E67E4E7CF9CEF980F913A10F4682F72
:100D9000E1CF90E2980F983050F4877091E001C055
:100DA000990F8A95EAF7892F0E940E0ED9CF9BE5FD
:100DB000980F933020F480E090E00C94B42898E5EC
:100DC000980F973120F480E090E00C94CA28803F7F
:100DD00020F00E949D170C94141808951F93CF9330
:100DE000DF93182FEB010E94DC05209741F08FE97B
:100DF0009FE00197F1F700C000002197F6CF812F07
:100E0000DF91CF911F910C948606893319F060E031
:100E100070E002C060E570E00C94EE06882321F0DB
:100E20000E94080E0C944A0E0895882321F00E9417
:100E30000E0E0C944A0E0895CF92DF92EF92FF921D
:100E40000F931F93CF93DF937C01062FC72FFC01D5
:100E5000D281158112951F700E94DD0D882399F0B3
:100E6000DD2389F08C2F807F803421F080E2800F99
:100E7000883048F082E00E949A0E0E94DD0D91E0D9
:100E8000D82ED92601C0D12CCC2EC2948FE0C822F6
:100E90008C2D90E08C30910508F085C1FC01EA5A58
:100EA000FF4F0C948D358C2F807FCF70882311F0ED
:100EB000C295C07FDD2399F0CC2309F460C180E2A4
:100EC000800F883010F0011104C08C2F0E94080E92
:100ED00003C08C2F0E94180E0E944A0E50C1802F12
:100EE0000E948606CC2309F45EC180E2800F883020
:100EF00010F0011104C08C2F0E940E0E03C08C2F25
:100F00000E941E0E0E944A0E4EC18C2F807FCF7011
:100F1000803211F0C295C07F002319F00130C9F072
:100F200022C0DD2371F0112341F0113031F40E9411
:100F30002B0E8C2B0E94330E36C10E942B0E8C2B55
:100F40001DC0112319F0113009F42DC10E94400E6B
:100F500025C0DD2321F0163008F025C10EC0153064
:100F600008F021C11BC0DD2361F0112331F0F7012E
:100F7000858180FF04C18F7085838C2F0E940E07AE
:100F800012C1112359F0093309F00AC1FFEF27EE0E
:100F900083E0F15020408040E1F700C18C2F0E9497
:100FA000150701C18C2F86958695837019F08130C5
:100FB00061F0F9C0DD2321F0802F9C2F937002C0D7
:100FC00080E090E00E94B428F6C0DD2321F0802F5D
:100FD0009C2F937002C080E090E00E94CA28EBC072
:100FE000802FDD2319F00E94421702C00E949D1736
:100FF0000E941418E0C08C2F837079F5D111D7C0EE
:10100000402F429546954770440F440F202F2F7074
:10101000042E01C0220F0A94EAF704FF08C08FE0F3
:1010200090E001C0880F4A95EAF7809501C080E002
:10103000C695C695C370822BC23049F058F4C130B2
:1010400019F00E94C309B3C00E94BE09B0C00E943B
:10105000C809ADC00E94BC09AAC0DD2319F08C2FBD
:10106000817001C08695882309F4A1C0402F429564
:1010700046954770440F440F202F2F70042E01C057
:10108000220F0A94EAF704FF08C08FE090E001C045
:10109000880F4A95EAF7809501C080E0C695C6950D
:1010A000C370822BC23049F058F4C13019F00E944D
:1010B000070A7DC00E94020A7AC00E940C0A77C00B
:1010C0000E94CF0974C0CF70DD2339F08C2F0E94AD
:1010D000E009802F0E940E076AC0802F0E9415072A
:1010E0008C2F0E94EB0963C0023F01F128F4003FFE
:1010F00041F0013FA1F03FC0033FF9F0043F39F157
:101100003AC0DD2341F0153008F04DC08C2F8F71AF
:101110000E94F70948C0163008F045C0F7CFDD231C
:1011200039F08C2F8F710E94E0093DC0DD23C9F397
:101130008C2F8F710E94EB0936C0DD2329F08C2F94
:101140008F710E94D8092FC00E94D5092CC0DD23C1
:1011500049F0CF718C2F0E94E00963E08C2F0E9430
:101160007F0E21C081E00E949A0E1230E0F082E0F2
:101170000E949A0E18C0DD2331F0112391F2802FC6
:101180000E94DC0510C0112399F2093349F49FEF46
:10119000E7EEF3E09150E040F040E1F700C00000DE
:1011A000802F0E94860688EF8C0D843020F40E94E8
:1011B00088280E948305DD20C9F00E94D90D80FD9A
:1011C00015C0F70112820E94D30D0E94E009C701E9
:1011D0000E9417090E94D30DDF91CF911F910F91AB
:1011E000FF90EF90DF90CF900C94EB09DF91CF91BF
:1011F0001F910F91FF90EF90DF90CF9008950F9384
:101200001F93CF93DF93EC01688179818A810E94DB
:10121000A10A8C010E94110A0E94B009B801CE01F6
:101220000E941C07DF91CF911F910F910895CF93DA
:10123000DF93EC01988189812B813C81232B31F054
:101240008F3F31F481E09F3F19F403C081E001C07A
:1012500080E080FD19C0CE010E94490481110CC0BC
:101260000E94DD0D882381F08A81882369F082E065
:10127000DF91CF910C949A0ECE010E94FF08CE010F
:10128000DF91CF910C94FF03DF91CF91089580E01F
:1012900090E00E94B42880E090E00E94CA280E945A
:1012A000250E0E94280E0E944A0E0E9445190C9499
:1012B000141880910001909101010E9426290C943C
:1012C00047090E94150E0C945909E92FE295EF7019
:1012D0004E2F50E0FA013297EE30F105B0F4EE599E
:1012E000FF4F0C948D35803F91F018F4883E68F4E0
:1012F0000EC0843F51F40BC0883E48F0813F29F472
:1013000006C093FB882780F9089580E0089581E066
:101310000895FC01808191810E94960A0E946509CE
:101320000895CF93DF9300D000D01F92CDB7DEB7E2
:101330000F900F900F900F900F90DF91CF91089525
:10134000CF93DF9300D000D000D0CDB7DEB7269684
:101350000FB6F894DEBF0FBECDBFDF91CF910895D9
:10136000089508950C94B1090C94B2090E94B4092F
:1013700080931C020C9447090C94B60990911C02AE
:10138000892B0C94B60990911C0289230C94B60900
:1013900090911C0289270C94B6090C94B1090E9403
:1013A000CD0980931B020C94470980E00C94CF096F
:1013B00091E001C0990F8A95EAF7892F0C94CF0923
:1013C00021E030E001C0220F8A95EAF780911B02EC
:1013D000822B0C94CF0921E030E001C0220F8A95C6
:1013E000EAF7209580911B0282230C94CF0921E01B
:1013F00030E001C0220F8A95EAF780911B02822714
:101400000C94CF0990911B02892B0C94CF099091D9
:101410001B0289230C94CF0990911B0289270C94FD
:10142000CF0908952CE0929F800D1124E82FE695B6
:10143000E695E695877051E001C0550F8A95EAF769
:1014400083E0E89FF0011124E950FE4F20E030E0F6
:1014500070E04081CB01022E02C0969587950A94D8
:10146000E2F78170819584278523842781932F5FFC
:101470003F4F2330310569F708952CE0929F800D8E
:101480001124682F669566956695982F977083E06E
:10149000689FB001112440E050E080E0FB01E40FC0
:1014A000F51FE950FE4F208130E0092E02C036952D
:1014B00027950A94E2F721703327042E01C0220FEA
:1014C0000A94EAF7822B4F5F5F4F4330510531F7A3
:1014D0000895CF92DF92FF920F931F93CF93DF93E4
:1014E0006C0100911B0280911C02082BC7E0D0E028
:1014F00010E0C8010C2E02C0959587950A94E2F77A
:1015000080FD04C02197A8F7F12C07C0FC2EB6017E
:101510008C2F0E947A110197A9F38F2DDF91CF9123
:101520001F910F91FF90DF90CF900895CF93DF939D
:10153000EC010E94690ABE010E947A11DF91CF91ED
:1015400008951F93CF93DF93EB019091F6019923B8
:1015500021F0CB010E94960A13C0882349F0CB01E9
:101560000E94690A182F682FCE010E94120A04C037
:10157000CB010E943D0A182FBE01812F0E947A11D3
:10158000DF91CF911F9108951F93CF93DF93C09167
:101590001D0216E080911E02C81799F0D0E01C9F32
:1015A000F0011D9FF00D1124E15EFD4F408151813E
:1015B00062817381848195810E94A0092196C77000
:1015C000E9CFDF91CF911F91089540914F02509143
:1015D0005002609151027091520280915302909199
:1015E00054020C94A0090F931F93CF93DF93809123
:1015F000540282958F7009F05DC08091510288235A
:1016000009F458C080911D0210911E0260914F0292
:1016100070915002C0915202D091530291E06F3FFD
:1016200009F090E0292F06E0811709F443C02097C4
:1016300021F07F3F21F030E003C031E001C0322FC4
:1016400090E030FD34C0089FF001099FF00D112497
:10165000DF01A15EBD4F11963C911197371327C052
:101660003C91361324C012963C91129731111FC041
:1016700013964D915C9114974C1B5D0B483C5105A2
:10168000B0F4809154028F70806180935402EC5DBD
:10169000FD4F80818F70806180838FE492E00E9493
:1016A0001709DF91CF911F910F910C94C40A0196F5
:1016B0008770BACFDF91CF911F910F9108959F92BC
:1016C000AF92BF92CF92DF92EF92FF920F931F9350
:1016D000CF93DF93CDB7DEB761970FB6F894DEBF37
:1016E0000FBECDBF8C0185E0F801DE011D96019093
:1016F0000D928A95E1F7F801E28090914F02609196
:10170000500220915202309153022115310531F0DF
:101710006F3F31F481E09F3F19F403C081E001C0C5
:1017200080E0F82FF1709F2E80FD3FC1F8014081CD
:101730005181A380B4808FE4C82E82E0D82EF0902F
:101740005102F501E21BF30BFF2009F4D9C080918F
:101750005402E83CF10508F095C0282F207F09F0DD
:1017600052C0561313C0491311C0FE2CE1100EC015
:101770008F708061809354020E94E50AC6010E9426
:10178000170980915402F80185834CC1AB2831F0D0
:101790005F3F31F481E04F3F19F403C081E001C0A5
:1017A00080E080FD03C081E08E2502C080E090E0F3
:1017B000F82FF170FF2E80FF1CC080911D02209138
:1017C0001E0236E0821709F40BC190E0389FF00149
:1017D000399FF00D1124E15EFD4F6181561306C063
:1017E0006081461303C06281E61203C001968770D0
:1017F000E9CFFE2CEE2009F415C1809154028160DE
:101800008093540254C0561306C0491304C0E1101B
:1018100002C0F80199C0C8010E948909882361F1BA
:10182000EE2051F120915402822F82958F7090E02A
:10183000029774F080914F029091500298878F83A5
:101840001986BB86AA862C87CE0107960E941709A7
:1018500086E0F801AFE4B2E001900D928A95E1F7DD
:101860000E94F30A0E94E50A0AC0561711F1C80146
:101870000E94890981112CC0C8010E941709FF2408
:10188000F394D0C0282F207F81F77A2DB98AA88AB7
:101890006E2D89890E9491098FE492E00E941709B8
:1018A00086E0F60111928A95E9F70E94E50AF12C8B
:1018B000B9C04913DCCFE110DACFF8018583C80144
:1018C0000E94170986E0F60111928A95E9F7AAC0ED
:1018D000EE2091F220915402822F82958F7090E039
:1018E00002970CF4B5CF80914F02909150029A83E9
:1018F00089831B82BD82AC822E83CE010196A6CF46
:10190000E83CF10508F044C0FE2CEE2009F4B4CF09
:10191000561330C049132EC02091540220FD21C01F
:10192000822F82958F70482F50E041155105C9F0E4
:10193000F80125834F30510541F08F5F982F929524
:10194000907F822F8F70892B8583C8010E94170991
:1019500086E0F801AFE4B2E001900D928A95E1F7DC
:101960003CC086E0F801AFE4B2E001900D928A95A8
:10197000E1F758C0C8010E948909811169CF80919F
:101980005402816080935402C8010E9417094AC022
:101990007A2DB98AA88A6E2D89890E94910986E0DC
:1019A000F60111928A95E9F718C0EE2009F464CF88
:1019B000C8010E948909F82E882309F45DCF86E0CA
:1019C000F801AFE4B2E001900D928A95E1F78FE45F
:1019D00092E00E94D6050E94F30A0E94E50A22C006
:1019E0004D875E878D859E850E94960A292F2295B8
:1019F0002F70223028F49F7039F0811105C00BC080
:101A0000243028F49F7049F4805E883020F0C801AB
:101A10000E9417099F2CF92C05C0F8019581907F31
:101A200099F7F9CF8F2D61960FB6F894DEBF0FBEF0
:101A3000CDBFDF91CF911F910F91FF90EF90DF907D
:101A4000CF90BF90AF909F9008951F93CF93DF9357
:101A5000CDB7DEB72C970FB6F894DEBF0FBECDBF63
:101A60004F83588769877A878B879C87CE01079633
:101A70000E945F0B8823D1F09F8188852A853B8552
:101A8000232B31F08F3F31F481E09F3F19F403C0E5
:101A900081E001C080E080FD47C04F8158856985A5
:101AA0007A858B859C850E94A0093EC086E0FE0158
:101AB0003796DE01119601900D928A95E1F7FF812C
:101AC000E8856A857B856115710531F0EF3F31F45A
:101AD00081E0FF3F19F403C081E001C080E080FD98
:101AE00023C020911E0230E0C9010196877099271A
:101AF00040911D0250E084179507F1F1F983EA83C4
:101B00007D836C8396E0929FD001939FB00D11244A
:101B1000A15EBD4FFE01319601900D929A95E1F7BD
:101B200080931E020E94C40A16E080911D029091CB
:101B30001E02891771F1189FC0011124815E9D4F0B
:101B40000E945F0B882329F1E0911D021E9FF00186
:101B50001124E15EFD4F4081518162817381848156
:101B600095810E94A00980911D0290E001968770E6
:101B7000992780931D02D9CF0E94610910921E02FD
:101B800010921D02EFE4F2E086E0DF011D928A95DB
:101B9000E9F72C960FB6F894DEBF0FBECDBFDF91EC
:101BA000CF911F91089580915502859585958595D2
:101BB000089580915502877008959091550297700D
:101BC00081E009F480E008959091D90292FB2227E8
:101BD00020F9281751F080FB92F99093D902809157
:101BE000D8029091D9020C94E10E08958091D90207
:101BF00082FB882780F991E089270C94E40D81E02D
:101C00000C94E40D80E00C94E40D80916102089541
:101C100090916102892B8093610208958095909143
:101C200061028923809361020895109261020895F0
:101C300090916002892B8093600208958095909125
:101C400060028923809360020895109260020895D3
:101C500010925F02089580915602089508950C94A1
:101C60002E0E0C942F0E9091D90292FD08C09091E7
:101C70005602981721F0809356020C94310E089565
:101C800080915602882329F01092560280E00C942D
:101C9000310E0895E0910001F091010180916102FF
:101CA0008083E0910001F0910101908180916002B8
:101CB000892B8083E0910001F09101019081809156
:101CC0005F02892B808380915602882381F0E09106
:101CD0000001F09101019081892B808380910001A6
:101CE000909101010E94E02881110E94400E809194
:101CF0000001909101010C949B280C942E0E909160
:101D0000D90292FD10C098E0899F90011124262BE2
:101D1000209355020E94E009809155028595859592
:101D200085950C947D0E0C94E0091092550280E08C
:101D30000C947D0E2091550280958223809355024C
:101D4000982F977041F430E0482F082E000C550B67
:101D50002417350721F49091D90292FF07C0859589
:101D6000859585950E94EB090C94950E08956FEF6B
:101D70007FEF80E090E00C94203680E090E00E94BD
:101D8000FC35893E9E4F11F40C94F42080E00895B8
:101D900082E090E00C94EE3583E090E00C94EE3518
:101DA000CF9384E090E00E94EE35C82F82E290E06D
:101DB0000E94EE352C2F30E0A901582BCA01CF919B
:101DC0000895CF93C92F682F84E090E00E940236D7
:101DD0006C2F82E290E0CF910C940236AB01BC01F3
:101DE0008FE090E00C941436AB01BC0183E190E0ED
:101DF0000C94143660E070E0CB010C94F40E60E0BB
:101E000070E0CB010E94EE0E0C94FA0E69EE7EEFAC
:101E100080E090E00E94203660E082E090E00E9446
:101E2000023660E083E090E00E94023610921C02CD
:101E300060E084E090E00E94023660E082E290E0A0
:101E40000E94023660E085E090E00E94023660E089
:101E500086E090E00E9402366FEF87E090E00E94FB
:101E6000023640E050E0BA0188E090E00E9414366B
:101E700060E08DE090E00E94023640E050E0BA0160
:101E800088E190E00E94143660E087E190E00E94D3
:101E9000023640E050E0BA018CE190E00E94143636
:101EA00060E070E080E290E00E94203640E050E088
:101EB000BA0188E190E00E94143680E00E940D2172
:101EC0000E9439210C94FF0E0C94060F682F8EE0AF
:101ED00090E00C9402360E94102A6093770270936F
:101EE00078028093790290937A02609373027093E0
:101EF00074028093750290937602089585B7806886
:101F000085BF85B7806885BF08950C9480140895B7
:101F10000C94870F0C94870F0C948A0F0C94870FE6
:101F20000C948E0F0C94870F0E947E0F86E592E131
:101F30000E947E2A0E94920F0C94900F0E94880F9C
:101F40000C94870F0E94FB290E942D290E94482192
:101F50000E9461130E9421240E94081F0C948C0F80
:101F60006F927F928F929F92AF92BF92CF92DF92A9
:101F7000EF92FF920F931F93CF93DF93CDB7DEB70E
:101F80002A970FB6F894DEBF0FBECDBF0E94EF13A5
:101F900081110E946B0F33E6832E32E0932E00E016
:101FA00010E0C02E802F0E948A125C01F401619023
:101FB00071904F016826792661147104B1F40F5FA6
:101FC0001F4F0830110569F78FEF89838A831B82C1
:101FD0000E94042A8160782F9D838C8349815A81D5
:101FE0006B818D810E948C053AC080917B0281FDBE
:101FF0000E949312D12CEE24E394F12CC3018E2184
:102000009F21892B29F10E94850F8823A9F0DE8268
:10201000CF82AE20BF2081E0AB2809F480E0888722
:102020000E94042A8160782F9A8789874E815F8178
:1020300068858A850E948C05000F111FF801ED59F3
:10204000FD4F80819181E826F926F182E08207C068
:10205000D394EE0CFF1CFCE0DF12D0CFB0CF0E9477
:102060004C1F0E9432180E948828909162028917A2
:10207000D1F00E948828809362022A960FB6F894C5
:10208000DEBF0FBECDBFDF91CF911F910F91FF90AB
:10209000EF90DF90CF90BF90AF909F908F907F9008
:1020A0006F900C9483052A960FB6F894DEBF0FBE8E
:1020B000CDBFDF91CF911F910F91FF90EF90DF90F7
:1020C000CF90BF90AF909F908F907F906F9008952A
:1020D000CF93DF930E947F11EC01811521E59207D8
:1020E00008F045C0811530E5930708F094C0883E9C
:1020F000910528F5803E910508F0F8C0883A9105D1
:1021000070F4853A910508F07CC08130910509F49E
:1021100075C008F4E8C0049708F0E8C0E4C08F3B3D
:10212000910508F0E0C0C85AD0E0CC0FDD1FC858B8
:10213000DE4F0990D881C02DCE019464D8C081159E
:1021400040E2940758F4811551E0950708F0CEC09D
:10215000803F910508F4C7C09065C9C0C11580E4EF
:10216000D80708F4C0C0DF70CE01906AC0C08115E6
:1021700025E59207A8F4811534E5930708F095C08A
:10218000811543E5940708F07BC0811552E595075A
:1021900008F061C0D82FCC27CE01816F906AA7C00C
:1021A000C11589E5D807A0F4C11528E5D20708F0C4
:1021B00082C0C11536E5D30708F095C08C2F0E9468
:1021C00013128F7190E0D82FCC27CE0190628FC070
:1021D000C1154AE5D40708F474C0CE0190568115A4
:1021E000904208F080C08D2F8F710E941312DD275E
:1021F000D0628F71AE01582BCA0179C081E090E0A6
:1022000076C0C55AD0E0CA55DE4F8881C82FD0E0CD
:10221000CE0190646CC074E0969587957A95E1F74D
:10222000282F23703C2F337081E090E002C0880F8C
:10223000991F3A95E2F79C68AC01522B9A019C2FAA
:102240009F709695969550E2959FE0011124C901E3
:102250008C2B9D2B4CC08370992721E030E002C06D
:10226000220F331F8A95E2F79C2F9695969580E270
:10227000989FE0011124C22BD32BCE019C6837C05C
:102280008370992721E030E002C0220F331F8A9526
:10229000E2F79C2F9695969540E2949FE0011124D9
:1022A000C22BD32BCE019A6822C0D82FCC27CE01C7
:1022B000846F906A1CC0DC2FCC27CE01806F906A9F
:1022C00016C08C2F8F700E94131294E0D695C7957C
:1022D0009A95E1F7CF70D0E0DC2FCC27D0699E0132
:1022E000282BC90104C080E090E001C0CE01DF913D
:1022F000CF9108950E9461230E946810089582384A
:10230000910569F1B0F48133910509F46DC048F489
:102310008932910509F463C08A32910509F469C0D4
:1023200008958533910509F455C089339105B9F0B5
:102330000895833E910569F138F4803E9105B1F02E
:10234000823E910509F10895863E9105A9F1873EE7
:102350009105B9F1843E910509F064C023C0209134
:10236000D80220FD4FC021FD4DC008958091D802B4
:1023700080FD44C08091D90280FF44C08091D80282
:1023800084FD42C083EE4DC08091D80282FF38C0E8
:10239000F5CF8091D80282FD33C08091D90280FDB3
:1023A00031C0ECCF8091D90281FF32C08091D80238
:1023B00084FD2AC087EE35C08091D80283FF26C0F5
:1023C000F5CF8091D80283FD21C08091D90281FD93
:1023D0001FC0ECCF8091D80285FD1CC01DC080912C
:1023E000D80285FD19C016C08091D80286FD16C09E
:1023F00017C08091D80286FD13C010C089E311C0B8
:1024000082EE0FC080EE0DC080E00BC086EE09C0EA
:1024100084EE07C089E205C085E303C08AE201C0FB
:1024200081E390E008959091D80292FF0DC0282F8B
:102430002871283019F4877F846006C0282F247102
:10244000243011F48B7F886093FF0DC0282F2871F2
:10245000283119F4877E846106C0282F2471243125
:1024600011F48B7E88612091D90220FF0DC0382F96
:102470003871383019F4877F816006C0382F317188
:10248000313011F48E7F886021FF0DC0282F287114
:10249000283119F4877E816106C0282F21712131EE
:1024A00011F48E7E886194FD877E089580E0089502
:1024B0000C94B70E0E94EF138FE39CE90197F1F79C
:1024C00000C000000E94EF1380E00E948A1280FF8B
:1024D00004C00E9458120C946D2A08950C945A124C
:1024E0000E94BD0E811102C00E94640F0E94C80E9E
:1024F00080937B020E94D00E9093D9028093D802E1
:102500000E946E120E94CC0E0E94BC0980911B0298
:102510000C94CD09E82FF0E0EE0FFF1FE651FD4FC0
:10252000808191810895089580EA8A95F1F7089550
:1025300000C008950C94941208950C949C120C946D
:102540009D120C949C120C94A112F894E82FE29521
:10255000EF70F0E031A1282F2F7081E090E001C0F2
:10256000880F2A95EAF7982F9095932391A392A12B
:10257000892B82A37894089508950C94BC120F932C
:102580001F93CF93DF93C9EAD1E089918F3F11F078
:102590000E94A51281E0C53BD807B9F7C5EBD1E091
:1025A00009EB11E089918F3F11F00E94A5120C17E1
:1025B0001D07C1F7DF91CF911F910F910895CF9221
:1025C000DF92FF920F931F93CF93DF93062F10E0BC
:1025D00007551E4FD8012C912F3F09F46AC0C62F12
:1025E000D92FF82EF894E22FE295EF70F0E031A1A8
:1025F0002F70CC24C394D12CC60101C0880F2A951A
:10260000EAF7932F982B91A392A18095892382A317
:1026100078940E94981296010C2E02C0220F331F4C
:102620000A94E2F7B9016095709595EBC92E91E097
:10263000D92EEF2DFD2FAF01485F5F4FD0E0D601BF
:10264000FD906D01BFEFFB16C9F08F2D82958F7045
:1026500090E0DC0190968C9190E0BF2DBF7002C09D
:1026600095958795BA95E2F780FD08C080819181A4
:10267000822B932B91838083D1E006C0808191814E
:1026800086239723918380833296E417F507B9F662
:10269000F80180818F3F11F00E94A5126D2F8C2FC1
:1026A000DF91CF911F910F91FF90DF90CF900C940D
:1026B0009A12DF91CF911F910F91FF90DF90CF90F1
:1026C00008950E949A148091020180910201811163
:1026D00002C094E001C090E09093FB0284E0891B6B
:1026E0008093FA020E94BF12EAEDF2E0AAEEB2E095
:1026F000119211921D921D9282E0EA3EF807C1F7F5
:1027000084E00E9445140E9431040C94A4140F9399
:102710001F93CF93DF93CDB7DEB728970FB6F8940A
:10272000DEBF0FBECDBF0E9480146091FB028823E4
:10273000C9F18E010F5F1F4F88E0F80111928A9551
:10274000E9F7862F90E0880F991FB80186519D4FB9
:102750000E94B214E091FA029E01275F3F4FF0E021
:10276000EE0FFF1FE651FD4FD801882381F010E0E6
:102770008D919D91408151814817590719F091839E
:10278000808311E03296A217B30791F708C0119227
:1027900011921D921D92A217B307C9F711E00E9472
:1027A000370411C08091FA0270E0660F771F6651FE
:1027B0007D4F90E0880F991F86519D4F0E944215D2
:1027C0000E94BD1210E0812F28960FB6F894DEBF4C
:1027D0000FBECDBFDF91CF911F910F910895EF9262
:1027E000FF920F931F93CF93DF93CDB7DEB7609720
:1027F0000FB6F894DEBF0FBECDBF8E010F5F1F4F27
:1028000080E1F80111928A95E9F7F12C6F2DC8014A
:102810000E94DF12F394FCE0FF12F8CF40E150E099
:10282000B8018AED92E00E94D8357C0121E0892B25
:1028300009F420E0E114F10441F080E1F801AAED8F
:10284000B2E001900D928A95E1F76091FB0270E091
:10285000660F771F66517D4F44E08AED92E00E943B
:102860004614EF2819F40E94871302C081E090E01B
:1028700060960FB6F894DEBF0FBECDBFDF91CF914B
:102880001F910F91FF90EF9008950895FF920F937D
:102890001F93CF93DF93F82E092F162FD72FC42F16
:1028A000222349F081E080937E020E94042A9093C3
:1028B0007D0280937C0280917E028823D9F08091F2
:1028C0007C0290917D020E941C2A059798F0EF2DC2
:1028D000F02FA12FBD2F80E090E04C2F50E0841707
:1028E000950734F4219131912D933D930196F7CFC3
:1028F00010927E02DF91CF911F910F91FF9008956A
:102900008091810281110DC00E94ED31811102C0C0
:1029100082E001C081E080938102823011F40E9444
:10292000E83181E090918102913009F080E00895D2
:102930000C9480140E949814809302010E948014C9
:1029400081110C94EA1408950E948014811102C030
:102950000C94EC14089581E0909182029A3008F072
:1029600080E008950F931F93CF93DF93EC018B01C9
:10297000809182028A3038F4B801CE010E9440155D
:1029800081111DC00AC080917F02909180020E9437
:102990001C2A843F914080F715C0809182028F3FAE
:1029A00019F08F5F80938202809182028A3060F0FA
:1029B0000E94042A9093800280937F0203C01092A9
:1029C000820202C080E001C081E0DF91CF911F91BF
:1029D0000F9108950C94BE260C94C126EF92FF929D
:1029E0000F931F93CF93DF937901C82F880FDD0BCF
:1029F00041155105A9F08AE08C9FF0018D9FF00DE3
:102A00001124ED5FFE4F838194818D579D4F22816C
:102A100030E04217530708F49A01A9010E94E535F6
:102A2000CE010E94CB27892B09F50115110501F173
:102A30008AE08C9FF0018D9FF00D1124ED5FFE4F19
:102A4000458150E00417150708F4A8018AE08C9F1F
:102A5000F0018D9FF00D1124ED5FFE4F66817781AF
:102A60006D577D4FC7010E94E53502C080E001C06F
:102A700081E0DF91CF911F910F91FF90EF9008952A
:102A80000C945F160C947B160F931F93CF93DF93D8
:102A900000D000D0CDB7DEB76091A0027091A10246
:102AA0008091A2029091A3020E942B2A64367105A4
:102AB0008105910528F10E945329DC01CB01029682
:102AC000A11DB11D89839A83AB83BC8300E010E014
:102AD00020E030E044E050E0BE016F5F7F4F82E0D5
:102AE0000E94EE14182F882361F00E94102A609330
:102AF000A0027093A1028093A2029093A30201C04E
:102B000011E0812F0F900F900F900F90DF91CF91D8
:102B10001F910F910895AF92BF92CF92DF92EF92E3
:102B2000FF920F931F93CF93DF937C015B016A01A8
:102B30000E94AB14811103C001E010E002C00AE062
:102B400010E0C1E0D0E0F894B501C701F6010995A5
:102B50007894811115C021960C171D0794F0CC9F15
:102B60009001CD9F300D300D112480E090E045E3C1
:102B70004A95F1F70000019682179307C1F7E3CF5A
:102B800081E0DF91CF911F910F91FF90EF90DF9047
:102B9000CF90BF90AF900895AF92BF92CF92DF9247
:102BA000EF92FF920F931F93CF93DF93CDB7DEB7D2
:102BB00029970FB6F894DEBF0FBECDBF7B01C09042
:102BC000BD01D090BE0101E010E09E01275F3F4FA4
:102BD00040E050E060E070E080E00E94EE14182FCA
:102BE000882309F43EC056018FEFA81AB80A6091F5
:102BF0009C0270919D0280919E0290919F020E9482
:102C00002B2A643671058105910518F108E010E062
:102C10009E012F5F3F4F40E050E060E070E081E0B8
:102C20000E94EE14182F68E070E0C5010E94222473
:102C300091E02985281390E0192339F10E94102A88
:102C400060939C0270939D0280939E0290939F02DA
:102C500011C068E070E0C5010E94222499858913A3
:102C6000D5CF88E0F6013196DE01119601900D92E4
:102C70008A95E1F7112349F088E0FE013196A4E935
:102C8000B2E001900D928A95E1F788E0E4E9F2E084
:102C9000D70101900D928A95E1F7812F29960FB601
:102CA000F894DEBF0FBECDBFDF91CF911F910F9182
:102CB000FF90EF90DF90CF90BF90AF9008950F936B
:102CC0001F93CF93DF93EC018B014CEC55E10E94F5
:102CD0008B15882351F044E455E1B801CE01DF9112
:102CE000CF911F910F910C948B1580E0DF91CF91C4
:102CF0001F910F9108950F931F93CF93DF93F89433
:102D0000C091BD01D091BE01CE01019628E0FB012A
:102D1000DC0101900D922A95E1F768E070E00E94D5
:102D2000222488837894F89469857A858B859C859C
:102D300000919002109191022091920230919302A1
:102D4000601771078207930751F0609390027093A8
:102D5000910280939202909393020E943629789474
:102D6000DF91CF911F910F9108950E9477290E94C2
:102D7000122C0E942B2C0E943D2C0E949E0FFBCFF8
:102D80008091AA0280FF0BC06091260185E0689FB8
:102D9000B001112475956795759567952BC081FFD6
:102DA00009C06091260185E0689FB00111247595E6
:102DB000679520C082FF07C06091260185E0689F6B
:102DC000B001112417C09091A9029923D1F060910C
:102DD0002501961788F72091260185E0289F90010C
:102DE0001124929FA001939F500D112470E0CA01FD
:102DF0000E9457356038710540F46115710519F46A
:102E000006C065E070E0862F08958FE7089581E0A1
:102E100008958091AA0280FF08C06091220170E0AD
:102E2000759567957595679521C081FF06C060917E
:102E3000220170E07595679519C082FF04C060910A
:102E4000220170E010C09091A802992399F060913E
:102E500021019617A0F780912201899FC0011124BA
:102E600070E00E9457356038710540F461157105B6
:102E700019F406C061E070E0862F08958FE7089589
:102E800081E00895803F21F40E94C016819504C01E
:102E9000813F29F40E94C0168093AE020895823FBC
:102EA00021F40E94C016819504C0833F29F40E943A
:102EB000C0168093AD020895893F19F40E94091746
:102EC00005C08A3F31F40E94091781958093AF02B3
:102ED00008958B3F21F40E940917819504C08C3F0F
:102EE00029F40E9409178093B00208959CE0980F7E
:102EF000953078F421E030E0A90102C0440F551F5D
:102F00009A95E2F7CA019091AC02892B8093AC02AA
:102F100008958D3F21F48091AA0281600BC08E3FFD
:102F200021F48091AA02826005C08F3F29F480912C
:102F3000AA0284608093AA020895803F39F4909198
:102F4000AE0297FF35C01092AE0259C0813F29F4FE
:102F50009091AE021916BCF32BC09091AD02823F46
:102F600029F497FF25C01092AD0249C0833F19F4A0
:102F70001916CCF31DC09091AF02893F29F41916A0
:102F8000BCF41092AF023BC08A3F19F497FF10C007
:102F9000F8CF8B3F39F49091B00297FF09C010929F
:102FA000B0022DC08C3F21F49091B0021916BCF3F1
:102FB0009CE0980F953080F421E030E0A90102C038
:102FC000440F551F9A95E2F7CA0180959091AC0283
:102FD00089238093AC0213C08D3F21F48091AA0213
:102FE0008E7F0BC08E3F21F48091AA028D7F05C099
:102FF0008F3F29F48091AA028B7F8093AA0280914F
:10300000AD02811106C08091AE02811102C0109202
:10301000A9028091AF02811106C08091B002811196
:1030200002C01092A80208950E94042A2091AD02C5
:10303000211104C02091AE02222321F09093A70217
:103040008093A6022091AF02211104C02091B0020A
:10305000222321F09093A5028093A4028BEA92E0B0
:103060000C94A628EF92FF920F931F93CF93DF93B8
:1030700000D000D000D0CDB7DEB786E0EBEAF2E0BA
:10308000DE01119601900D928A95E1F7E090AD0274
:10309000F090AE020091AF021091B0021092AD021A
:1030A0001092AE021092AF021092B002E11003C073
:1030B000FF2009F45DC08091A6029091A7020E94B2
:1030C0001C2AAC019091A902992339F02091270183
:1030D00030E02417350758F04BC0209128018AE0D2
:1030E000289F900111242417350718F041C09F3FF5
:1030F00019F09F5F9093A902EE2061F00E94C01624
:103100001E1414F09FEF01C091E0989F902D1124A0
:103110009093AD02FF2061F00E94C0161F1414F0BE
:103120009FEF01C091E0989F902D11249093AE02E3
:103130003091AD023323E1F02091AE022223C1F0A1
:1031400045EB3403C0011124992319F09093AD028B
:1031500003C081E08093AD0235EB2303C00111244D
:10316000992319F09093AE0203C081E08093AE02E0
:10317000011103C0112309F45DC08091A402909154
:10318000A5020E941C2AAC019091A802992339F053
:103190002091230130E02417350758F04BC02091CF
:1031A00024018AE0289F900111242417350718F084
:1031B00041C09F3F19F09F5F9093A802002361F0E8
:1031C0000E940917101614F09FEF01C091E0989F1C
:1031D000902D11249093AF02112361F00E940917E2
:1031E000111614F09FEF01C091E0989F902D1124CB
:1031F0009093B0023091AF023323E1F02091B002FE
:103200002223C1F045EB3403C0011124992319F0A6
:103210009093AF0203C081E08093AF0235EB2303AC
:10322000C0011124992319F09093B00203C081E0EA
:103230008093B0028091AD0281110BC08091AE02EB
:10324000811107C08091AF02811103C08091B0024B
:1032500081110E941418EB82FC820D831E8386E08C
:10326000FE013196ABEAB2E001900D928A95E1F74A
:1032700026960FB6F894DEBF0FBECDBFDF91CF917B
:103280001F910F91FF90EF900895EBEAF2E086E036
:10329000DF011D928A95E9F71092A9021092A80207
:1032A0001092AA020895EF92FF920F931F93CF936B
:1032B000DF938B01682F11110AC0442329F0E82FF6
:1032C000F0E0E959FB4F6491762F862F75C0212FCE
:1032D00030E0E82FF0E0442321F0E959FB4FE4917E
:1032E000F0E046E0049FC0011124CFEFD0E0BE0122
:1032F0000E9443354BEA4603C001479F900D1124BD
:10330000800F911D800F911D982F990F890FAE018D
:10331000421B530B4E9FD0014F9FB00D5E9FB00DCF
:1033200011249B2F189FA0011124452F55278E0192
:10333000041B150B0E9FA0010F9F500D1E9F500DDB
:1033400011247E01E81AF108E29E8001E39E100D2F
:10335000F29E100D1124212F3327C21BD30BCE9FB9
:103360009001CF9F300DDE9F300D1124623071052A
:10337000A9F048F46115710569F061307105C9F46F
:103380008B2F752F0DC06430710581F058F06630B9
:10339000710579F47E2F8B2F932F0DC0832F7B2FF8
:1033A0009E2F09C08E2F7B2F952F05C08E2F732F38
:1033B00002C07E2F852F692FDF91CF911F910F9132
:1033C000FF90EF90089541E00E94531908950895E9
:1033D0000E94E3190895CF93DF93762FE901682FB8
:1033E000842F0E94E819798368838A83DF91CF91C3
:1033F00008958091FD02282F269530E02115310592
:1034000019F48170826005C02532310524F0817085
:1034100088648093FD02089588E090E00C94F6356E
:10342000CF92DF92EF92FF926B017C010E94F9191B
:10343000B701A60188E090E0FF90EF90DF90CF9079
:103440000C9414366091FD027091FE028091FF028F
:10345000909100030C94101AEDEFF2E083E080836A
:1034600011828FEF828383831482608171818281D4
:1034700093810C94101A8091FD0280FF02C0869502
:10348000089580E0089590910103933018F49F5FB0
:1034900090930103882351F06091FD027091FE0228
:1034A0008091FF02909100030C94101A089581E01E
:1034B0000C94431A90910103992319F09150909321
:1034C0000103882351F06091FD027091FE0280910A
:1034D000FF02909100030C94101A089581E00C945F
:1034E0005A1A80910103089580930103662351F0D5
:1034F0006091FD027091FE028091FF0290910003A5
:103500000C94101A089560E00C94741A8091FE02D5
:1035100008958091FF02089580910003089570E05E
:103520000C94C92060912D018091FD0280FF0AC09A
:1035300080912C0123E0829FC00111248E5F9C4F5B
:103540000C948F1A80912E0190912F01891780F78A
:10355000E82FF0E09F01220F331FE20FF31FEE5F11
:10356000FC4F1182108212828F5FF0CF9091FD028A
:1035700090FF16C090912E0120912F01921770F4A8
:10358000E92FF0E0DF01AA0FBB1FEA0FFB1FEE5F80
:10359000FC4F8183608342839F5FF0CF0C94921A2B
:1035A0000895CF93DF9300D01F92CDB7DEB79091EF
:1035B000FD0290FF0AC09E012F5F3F4F0E94EB1952
:1035C0004B8169818A810E94B61A0F900F900F90EB
:1035D000DF91CF910895CF93DF93EC016C8170E080
:1035E00080E090E00E94443320E030E04FE753E475
:1035F0000E9467322BED3FE049E450E40E946D34B5
:103600000E94DA340E94E1322BE43AE34EE25FE3B7
:103610000E94FA3120EF3BEF48ED52E40E946D34F6
:103620000E941333462FEDEFF2E0628181810E9408
:10363000D11A8C818F5F8C83DF91CF910895CF93C6
:10364000DF93EC01EDEFF2E0438162818C810E9417
:10365000D11A8C818F5F8C83DF91CF9108950F9366
:103660001F93CF93DF9300D01F92CDB7DEB78C01AD
:103670008091B10281110AC09E012F5F3F4F4FEF31
:103680006FEF0E94EB198A818093B102F801848167
:10369000813051F028F0823061F44091B1020AC0CB
:1036A0008091B10240E007C06091B10240E080E04B
:1036B00003C040E080E060E00E94B61AF801848117
:1036C00090E0019663E070E00E94573584830F908C
:1036D0000F900F90DF91CF911F910F910895AF92AE
:1036E000BF92CF92DF92EF92FF920F931F93CF93EF
:1036F000DF9300D01F92CDB7DEB7182FF62E042F20
:10370000E22E9091FD0290FF6DC0E92FE695AE2F5D
:10371000B0E0A154BE4F8C918093BD029E7F923049
:1037200061F49E012F5F3F4F812F0E94EB194B8167
:1037300069818A810E94B61A43C0823019F40091CF
:1037400000033EC0863019F41091FE0239C0893062
:10375000D9F38931A9F5E9518E2F8170D82EE695DC
:10376000F0E0EE59FB4FA590B490C12CBB246091C2
:103770003001C61618F52C2D30E0A29EC001A39E84
:10378000900DB29E900D112470E00E944335812F60
:10379000D11002C0860F01C0861B90912E01290F07
:1037A000311DA901440F551F240F351F2E5F3C4FBB
:1037B000402F6F2D0E94EB19C394D9CF0E94921A0B
:1037C0001093FE02F092FF0200930003EE2051F0EE
:1037D0006091FD027091FE028091FF0290910003C2
:1037E0000E94101A0F900F900F90DF91CF911F91B0
:1037F0000F91FF90EF90DF90CF90BF90AF90089522
:10380000EDEFF2E09181282F4381628188E0890FFA
:103810000C946F1B81E00C94001CEDEFF2E09181A1
:10382000282F4381628188EF890F0C946F1B81E000
:103830000C940D1CEDEFF2E0628128E0620F08F4B9
:103840006FEF282F438181810C946F1B81E00C94D2
:103850001A1CEDEFF2E0628128E0621B08F460E0E0
:10386000282F438181810C946F1B81E00C94291CCB
:10387000EDEFF2E0438128E0420F08F44FEF282FEC
:10388000628181810C946F1B81E00C94381CEDEFF8
:10389000F2E0438128E0421B08F440E0282F6281D7
:1038A00081810C946F1B81E00C94471C20E00C94E8
:1038B0006F1BFF920F931F93CF93DF93EC01F12CBB
:1038C0000FEF10E060913001F616F0F480912E01B8
:1038D0002F2D30E0280F311DC901880F991F280FA7
:1038E000391F2E5F3C4F70E0C8010E945735962F5C
:1038F0008C81409100036091FF02F99E800D11249C
:103900000E94EB19F394DECF0E94921A9A818C8167
:1039100090FF02C08F5F01C081508C83DF91CF91F7
:103920001F910F91FF900895BF92CF92DF92EF9277
:10393000FF920F931F93CF93DF93FC01828180FF4F
:1039400002C00FEF01C001E010E0809130011817B4
:1039500008F040C080912E01C12ED12CE601C80F85
:10396000D11DCE01880F991FC80FD91FCE5FDC4F24
:10397000198218821A8234E0E32EF12CB12C809146
:10398000B3028B0D813114F08F7005C087FF03C027
:1039900090913001890F082E000C990BC816D9069A
:1039A00091F4809100038E9DA0018F9D500D1124F4
:1039B00055954795559547959E016091FF028091D9
:1039C000FE020E94EB19B00EF1E0EF1AF108B9F611
:1039D0001F5FBBCF0E94921A8091B302013031F475
:1039E000811102C080913001815007C090E00196A2
:1039F0006091300170E00E9457358093B302DF91EF
:103A0000CF911F910F91FF90EF90DF90CF90BF90DB
:103A10000895CF9380912E0190912F01891770F412
:103A2000E82FF0E09F01220F331FE20FF31FEE5F3C
:103A3000FC4F1182108212828F5FF0CFC0E0609144
:103A40003001C617C0F5EC2FF0E070E0CF010E9406
:103A5000573520912E01820F2091B202022E000CC8
:103A6000330B90E0E217F307CCF020912B01022EEC
:103A7000000C330B2E173F078CF09C01220F331FD5
:103A8000820F931F9C012E5F3C4F40910003609179
:103A9000FF028091FE020E94EB190BC0FC01EE0FA9
:103AA000FF1F8E0F9F1FFC01EE5FFC4F11821082E3
:103AB0001282CF5FC4CF0E94921A20912A01809176
:103AC000B202820F8093B20290912B01920F9093D9
:103AD0002B0119165CF4082E000C990B4091300153
:103AE00050E041505109841795071CF0219520930F
:103AF0002A01CF9108958F929F92AF92BF92CF9259
:103B0000DF92EF92FF920F931F93CF93DF938C017D
:103B1000FC014481C42FD0E09E01DE010E94A23549
:103B20009B01AC010E94B8356B017C01E0E2F0E042
:103B3000EC1BFD0BA5E5B0E09B01AC010E94B83584
:103B40004B015C019F01DF010E949A359B01AC0192
:103B50000E94C3359B01AC012C0D3D1D4E1D5F1D08
:103B6000C501B4010E946B35C22FD22F2A3228F42E
:103B7000F3E02F9F900111240DC025E530E02C1BB0
:103B80003109C901880F991F280F391F37FF02C05B
:103B90002F5F3F4F35952795C22FC095F12C85E5B6
:103BA000E82EED1A80913001F816C8F4F1FC02C03D
:103BB0008E2D01C08D2F90912E012F2D30E0290FD9
:103BC000311DA901440F551F240F351F2E5F3C4F97
:103BD0004C2F6091FF020E94EB19F394E3CF0E94F7
:103BE000921AF8018481811102C091E003C08032F1
:103BF00019F49FEF9093290190912901890FF80101
:103C00008483DF91CF911F910F91FF90EF90DF9010
:103C1000CF90BF90AF909F908F9008950F931F9378
:103C2000CF93DF93EC0100E010E080913001282F6A
:103C300030E00217130724F590912E019801290F07
:103C4000311DA901440F551F240F351F2E5F3C4F16
:103C5000869590E04C81081719071CF4442331F035
:103C600002C0411103C04091000301C040E06091D7
:103C7000FF028091FE020E94EB190F5F1F4FD5CF0C
:103C80000E94921A8C8190E00196817099278C8312
:103C9000DF91CF911F910F910895EDEFF2E08081B8
:103CA0008E7F808360817181828193810E94101A4E
:103CB0001092BE022FEF80E792E0215080409040AA
:103CC000E1F700C000000C94921AEDEFF2E0808161
:103CD0008E7F80831092BE022FEF80E792E021500A
:103CE00080409040E1F700C000000C94921A1092BE
:103CF000BE028091BB0281110AC081E08093BB02A9
:103D00008091FD0281708093BA020C94651E089523
:103D10006091FD02669570E04BE050E081E391E038
:103D20000E94CB35892B19F481E08093BE020E945A
:103D30006E299093B5028093B40208959091FD028C
:103D400090FF35C09170811102C0926006C085322B
:103D500010F0986402C0880F982B9093FD026623A0
:103D600051F06091FD027091FE028091FF029091EE
:103D700000030E94101A6091FD02669570E04BE00E
:103D800050E081E391E00E94CB35892B19F010922D
:103D9000BE0202C00E94881E81E08093B70240915B
:103DA00000036091FF028091FE020C94561C08955E
:103DB000682F9091FD02969581E0890F853208F079
:103DC00081E00C949E1E81E00C94D81E682F909187
:103DD000FD0296958FEF890F09F484E20C949E1EE4
:103DE00081E00C94E61E61E00C949E1EEDEFF2E083
:103DF00080818160808386950C94F31E8091FD0202
:103E000080FD0C944D1E0C94F61E60E00C949E1EDA
:103E10008091BC0281112EC00E94BD0E811104C090
:103E20000E94640F0E942C1A0E940C1A6093FD02DB
:103E30007093FE028093FF02909300036E7F61F403
:103E40000E942C1A0E940C1A6093FD027093FE02CD
:103E50008093FF02909300030E94F9191092BE0212
:103E60008091FD0280FF03C086950E94051F81E0BE
:103E70008093BC020895EDEFF2E080818160808341
:103E800086950C94051F1092BB028091BA02811195
:103E90000E943B1F0C94881E0F931F93CF93DF93B8
:103EA0008091BE02882309F485C08091BD02E09113
:103EB000FD02E695E81BE093B602823049F4F0E09B
:103EC000E25AFB4FE491CE2FD0E00BEE1AE149C04D
:103ED000863049F4F0E0E55AFB4FE491CE2FD0E074
:103EE0000FE11BE13EC0893051F4E695F0E0E85A5D
:103EF000FB4FE491CE2FD0E009E51CE132C08F30BA
:103F000051F4E695F0E0EB5AFB4FE491CE2FD0E070
:103F100004E91CE126C0853149F4F0E0EE5AFB4F7C
:103F2000E491CE2FD0E009E01DE11BC0883181F083
:103F3000833239F4E0E5F4E0C591D4910FE21BE15E
:103F400010C0843251F4C4EFD1E00EE01EE109C08C
:103F5000C8E2D0E00BE71DE104C0C0EDD7E007EEFA
:103F600019E18091B702882361F01092B7020E9494
:103F70006E299093B5028093B4021092B902109208
:103F8000B8020E946E29E091B402F091B5028E1B36
:103F90009F0B8F3F9F4770F4EC0FFD1FF093B5020E
:103FA000E093B40284EB92E0F801DF91CF911F918E
:103FB0000F910994DF91CF911F910F91089588235C
:103FC00011F0FA0101C0FB010994CF93DF93C82FD0
:103FD000D62F0E943B1A8C1740F00E943B1A8D1777
:103FE00020F4DF91CF910C94E31E8C2FDF91CF91C1
:103FF0000C94F31E1F93CF93DF93FB0112811111D9
:10400000C3C0EC010E94050E8272CC3CFCE5DF07C8
:1040100009F49AC0A8F5C63CECE5DE0709F476C0C1
:10402000A8F4C33C9CE5D90709F45FC028F4C23C5E
:10403000DC4509F457C054C0C43C9CE5D90709F4D9
:1040400059C0C53CDC4509F45CC04AC0C93CFCE52C
:10405000DF0709F46AC050F4C73CECE5DE0709F459
:104060005AC0C83CDC4509F45BC03AC0CA3C9CE578
:10407000D90709F45FC0CB3CDC4509F460C030C00F
:10408000C13DFCE5DF0709F46FC088F4CE3C9CE538
:10409000D90709F460C008F45CC0CF3CFCE5DF0739
:1040A00009F45CC0C03DDC4509F45BC019C0C43DE7
:1040B0009CE5D90709F460C050F4C23DFCE5DF0778
:1040C00009F455C0C33DDC4509F454C009C0C53DE1
:1040D0009CE5D90709F455C0CD35DD4509F454C038
:1040E00011E052C00E94FE1E4FC040EF5EE163EE41
:1040F0007EE104C043EE5EE160EF7EE10E94DF1FDF
:1041000043C047E15CE16AE07CE1F8CF4AE05CE172
:1041100067E17CE1F3CF45E35CE166E27CE1EECF71
:1041200046E25CE165E37CE1E9CF43E55CE164E420
:104130007CE1E4CF44E45CE163E57CE1DFCF4EE683
:104140005AE167E57AE1DACF47E55AE16EE67AE1CE
:10415000D5CF81E017C065E082E010C068E086E05E
:104160000DC06EE089E00AC064E18FE007C067E13E
:1041700085E104C088E106C062E289E10E94E51F92
:1041800003C083E20E94F31E812FDF91CF911F9124
:104190000895539A2BB1277F3BB138604FB7F894FD
:1041A000FC01CB01880F991F680F791F6E0F7F1FCD
:1041B000E617F70789F0819198E03BB9000000C04D
:1041C00087FF2BB9880F000000C000C000C02BB9CA
:1041D00000C09A9591F7ECCF4FBF8FE594E001971F
:1041E000F1F700C00000089583E290E00E94EE35F0
:1041F000823281F484E290E00E94EE35873051F4FF
:1042000085E290E00E94EE3591E0803309F090E085
:10421000892F01C080E081700895CF93C82F81114C
:1042200002C06FEF01C062E283E290E00E940236BA
:10423000C11102C06FEF01C067E084E290E00E940C
:104240000236C11102C06FEF01C060E385E290E069
:10425000CF910C940236089586E290E00E94EE35EC
:10426000682F70E080E090E0089586E290E00C9482
:10427000023680E00E940D2160E070E0CB010E94D8
:1042800035210E94DC220E94B92381E00C940D218B
:104290000E942B210E94F420811102C00C9439212C
:1042A0000895CF93FB01C281CC23E9F09C012251F8
:1042B0003F452031310520F482510E94C9230CC0B2
:1042C0008031FFE59F0751F481E00E94E00943E05F
:1042D00062E081E00E942804C0E018C081319F455F
:1042E000A9F482E0F2CF8031EFE59E0711F481E07E
:1042F00004C081319F4549F482E00E94EB0943E00C
:1043000062E081E00E94280401C0C1E08C2FCF91BF
:1043100008952FEFFC0120830895CF93DF93EC01E4
:104320008881813889F028F48038A1F40E948C1AA1
:1043300010C0823861F0833869F40E94861A89833C
:104340000E94891A8A8306C00E943B1A02C00E94FA
:10435000711A8983DF91CF910895CF93DF93EC0198
:1043600088818138B1F058F4803851F5D9810E94A4
:10437000891AC82F0E94861A4D2F6C2F1DC08238B3
:10438000B1F08338E9F40E948C1A482F6A81898140
:1043900013C089810E94051F8981811104C0DF91AA
:1043A000CF910C94651EDF91CF910C943B1F8981B6
:1043B000DF91CF910C94831ADF91CF910C94561C0E
:1043C000DF91CF910895EF92FF920F931F93CF93B8
:1043D000DF93EC01062F0196E8814E2F50E0FA01A1
:1043E0003197E331F10508F09AC0E059FF4F0C9482
:1043F0008D35198289E056C08981823039F0833049
:1044000061F0813029F50E94102A02C00E942C21FF
:104410009A838B837C836D8384C07E0110E0812F1F
:104420000E948A12F701928383831F5FF2E0EF0EEE
:10443000F11C1830A1F775C08981823049F46A8176
:104440007B818C819D810E9493350E94352169C0BA
:10445000602FCE010E94892164C04B816A818981CD
:104460000E94AE229C838D835CC02C813D813227CB
:10447000232732274B816A8189810E94C72251C03C
:104480000E94DC224EC00E94AD214BC00E948D21B3
:1044900048C00E94221A45C00E946E2324C00E9478
:1044A000702399838A833DC06B8170E089819A81F2
:1044B000AE014C5F5F4F9827892798270E9473238E
:1044C00030C06B8170E089819A81AE014C5F5F4F93
:1044D0009827892798270E94972323C00E94B923F1
:1044E00020C00E949B2289831CC06B8170E089815F
:1044F0009A81AE014C5F5F4F9827892798270E94C9
:104500001B230FC06B8170E089819A81AE014C5FE3
:104510005F4F9827892798270E943F2302C08FEF7B
:104520008883602FCE01DF91CF911F910F91FF9073
:10453000EF900C94032B84E0089550E0440F551F36
:1045400028E1629F400D511D11249A0160EC869F65
:10455000200D311D1124C901879608950F931F93D3
:10456000CF93DF930E949D228C010E94EE35C82FCD
:10457000D0E0DC2FCC27C80101960E94EE359E01C9
:10458000282BC901DF91CF911F910F9108950F93AF
:104590001F93CF93DF93122F032F0E949D22EC01D4
:1045A000602F0E940236612FCE010196DF91CF91DC
:1045B0001F910F910C940236AF92BF92CF92DF926F
:1045C000EF92FF920F931F93CF93DF93A12CE12CD7
:1045D000F12CB12C00E010E0C0E0D0E06701C00E8B
:1045E000D11EFE01EE0FFF1FEC0DFD1DE05AFE4F28
:1045F000259134914C2F6B2D8A2D0E94C722219634
:10460000CC30D10571F7085E1F4FB39488E0B81223
:10461000E3CF80ECE80EF11CA39484E0A812D9CF7C
:10462000DF91CF911F910F91FF90EF90DF90CF908E
:10463000BF90AF900895EF92FF920F931F93CF9387
:10464000DF93EA017A01E60EF71E8C01C801879616
:10465000CE15DF0569F0011523E0120720F40E9452
:10466000EE35888301C0188221960F5F1F4FEECF71
:10467000DF91CF911F910F91FF90EF900895EF92EE
:10468000FF920F931F93CF93DF93EA017A01E60E17
:10469000F71E8C01C8018796CE15DF0559F001156C
:1046A00023E0120718F468810E94023621960F5FFA
:1046B0001F4FF0CFDF91CF911F910F91FF90EF909F
:1046C0000895462F843038F4783028F46C3018F48C
:1046D000672F0C94AE2280E090E0089580E1089569
:1046E00089ED90E00895EF92FF920F931F93CF937F
:1046F000DF93EA017A01E60EF71E8C01C801895D9D
:104700009C4FCE15DF0561F0093D110520F40E9494
:10471000EE35888301C0188221960F5F1F4FEECFC0
:10472000DF91CF911F910F91FF90EF900895EF923D
:10473000FF920F931F93CF93DF93EA017A01E60E66
:10474000F71E8C01C801895D9C4FCE15DF0551F025
:10475000093D110518F468810E94023621960F5F09
:104760001F4FF0CFDF91CF911F910F91FF90EF90EE
:104770000895CF93DF93C7E2D3E060E0CE010E94BB
:1047800002362196C11584E0D807B9F7DF91CF91A1
:104790000895DF92EF92FF920F931F93CF93DF93D1
:1047A00000D000D0CDB7DEB7F82E8FE08F15E8F13E
:1047B0008FEF93E00E94EE35811137C007E213E0DE
:1047C000FF2069F0011584E0180779F1C8010E9403
:1047D000EE35811101C0FA940F5F1F4FF1CF19829E
:1047E0001A821B821C82DD24D39478018FEFE81A91
:1047F000F80AC8010E94EE3589831A828823A9F03D
:104800009FEF980F933058F48A83D9820E5F1F4F21
:10481000C7010E94EE358B83882339F07801CE01E1
:1048200001960E9478058701E0CF0F900F900F90BE
:104830000F90DF91CF911F910F91FF90EF90DF903C
:1048400008950895FC01680F791F8FEF91E3E61733
:10485000F70771F02191822728E030E087FF03C03D
:10486000880F892701C0880F21503109B9F7EFCF90
:1048700008950F931F93CF93DF93C42FD22FFC0182
:1048800082818823C9F04093C1020E94042A909338
:10489000C0028093BF0280E28C0F883008F057C0BE
:1048A000C77081E001C0880FCA95EAF7DF91CF9108
:1048B0001F910F910C940E078091C102481330C0D4
:1048C0008091BF029091C0020E941C2A883C9105F1
:1048D00038F510E21D0FCD17B9F080E28C0F88304B
:1048E00040F4C77081E001C0880FCA95EAF70E94C2
:1048F0001507183028F581E09D2F977001C0880FAB
:104900009A95EAF70E940E07802F0E94050718303B
:10491000F0F4D77081E001C0880FDA95EAF70AC099
:1049200080E28C0F883098F4C77081E001C0880F56
:10493000CA95EAF7DF91CF911F910F910C9415075B
:10494000802FDF91CF911F910F910C940507DF917C
:10495000CF911F910F9108950F939C01CB01233F9D
:104960004CE5340731F188F4283DFCE53F07D9F0E8
:10497000293D4CE5340779F1273D3C45A9F506E290
:1049800021EE41EE67ED7CE52BC0253FFCE53F07BE
:10499000E1F0A8F0263F3C4539F507E225EE46EE6A
:1049A00066EF7CE51DC007E225EE45EE68ED7CE58F
:1049B00017C006E221EE40EE63EF7CE511C007E28E
:1049C00025EE44EE64EF7CE50BC006E221EE42EEFC
:1049D00065EF7CE505C008E221E045EE69ED7CE588
:1049E0000E94392480E008C0FC018281882319F0EC
:1049F0001092C10201C081E00F910895CF93DF931F
:104A0000EC01FB018281882309F426C1C330FDE556
:104A1000DF0760F4CA3F9CE5D90768F49E01225085
:104A20003C452431310508F018C105C0C136EDE51B
:104A3000DE0709F012C10E94D00E9093D902809334
:104A4000D802C031FCE5DF0709F4CAC008F041C054
:104A5000C8309CE5D90709F4A4C0F0F4C430FCE5E3
:104A6000DF0709F48CC068F4C2309CE5D90709F46B
:104A700082C0C330DC4509F0E5C08091D802826075
:104A8000DFC0C630FCE5DF0709F483C008F085C04D
:104A90008091D8028860D4C0CC309CE5D90709F455
:104AA00090C068F4CA30FCE5DF0709F47EC008F066
:104AB00084C00E9461098091D8028068C1C0CE3054
:104AC0009CE5D90709F481C008F086C08091D8021E
:104AD00094C0CC3FFCE5DF0709F47BC038F5C43156
:104AE0009CE5D90709F49AC058F4C231FCE5DF0708
:104AF00009F47AC008F07EC08091D8028F7BA0C0F4
:104B0000CA3F9CE5D907F1F108F03FC0C531DC454B
:104B100009F098C08091D80282FB222720F991E009
:104B2000922790FB82F990FB83F98AC0C1158DE52D
:104B3000D80709F467C050F48091D902CE3FECE564
:104B4000DE07C1F108F05BC08D7F65C0C2308DE526
:104B5000D80709F471C008F46DC0C136DD4509F00D
:104B600071C08091D80284FB222720F991E092271E
:104B700090FB84F965C08091D802816061C080910A
:104B8000D80216C08091D90216C08091D9028260E5
:104B900042C08091D802806153C08091D802806267
:104BA0004FC08091D80280644BC08091D802886049
:104BB000846046C0826081602EC08091D8028E7F62
:104BC0003FC08091D8028D7F3BC08091D802877F03
:104BD00037C08091D90214C08091D8028F7E30C036
:104BE0008091D8028F7D2CC00E9461098091D802EB
:104BF0008F7726C08091D802877F8B7F21C08D7FE1
:104C00008E7F09C08091D902982F909591708E7FE8
:104C1000892B90FB81F98093D90214C00E9461090D
:104C20008091D80287FB222720F991E0922790FB00
:104C300087F906C081E001C080E00E94660F02C0D3
:104C40008093D8028091D8029091D9020E94E10EFF
:104C50000E94610980E001C081E0DF91CF91089559
:104C6000CF93DF9386319C4541F5EB010E94050E01
:104C7000982F8A812091000130910101882379F0D9
:104C80009A7A81E009F480E08093C202911102C017
:104C900069E201C065E3C9010E9422290AC080912E
:104CA000C202811102C069E201C065E3C9010E942C
:104CB00024290E944A0E80E001C081E0DF91CF915B
:104CC00008958EE14A9B02C08150E1F74A9BFECFD6
:104CD00008955A9880E28A95F1F75A9A0895FC014E
:104CE0002AE02A95F1F728E090E080E031E040E109
:104CF0004A95F1F7880F4A9B02C08160932700C054
:104D0000000040E14A95F1F7215089F720E12A950A
:104D1000F1F729B100C0000030E13A95F1F722FB2C
:104D2000222720F992272081920F90830895EF92F5
:104D3000FF920F931F93CF93DF931F92CDB7DEB7F0
:104D400019828C017C01E60EF11C0E151F0551F035
:104D50000E946126CE0101960E946F26F801819380
:104D60008F01F3CF81E09981911180E00F90DF9165
:104D7000CF911F910F91FF90EF900895529A5A9AF8
:104D8000089552985A9AEA9AE9E6F0E080818F7C79
:104D900080830895615091E001C0990F6A95EAF708
:104DA00020E031E0992361F0492F482319F05A9A05
:104DB000232701C05A9840E24A95F1F79695F2CF21
:104DC000222311F05A9A01C05A9880E28A95F1F78D
:104DD0005A980895FF920F931F93CF93DF93EC019E
:104DE0008C01060F111DC017D10741F0F9900E94E8
:104DF000692668E08F2D0E94CA26F5CFDF91CF91FA
:104E00001F910F91FF9008951F920F920FB60F926E
:104E10001124EF92FF920F931F932F933F934F9381
:104E20005F936F937F938F939F93AF93BF93EF9312
:104E3000FF93CF93DF931F92CDB7DEB719820E9405
:104E40006126CE0101960E946F26A82FA695A695F1
:104E5000A6959A2F969595702A2F2570920F292F37
:104E6000237096959695920F877089137CC08981DF
:104E7000811179C0A43008F076C080E18A95F1F7FD
:104E80005A9A529AB2E0BA95F1F700C05A98EA2EAF
:104E9000F12CEAE0AE9FD0011124AD5FBE4F189611
:104EA000ED91FC9119973097B1F06091BD0170912F
:104EB000BE0116962D913C911797260F371F13961A
:104EC0008D919C911497680F791F15964C911597A9
:104ED00012968C9109958AE08E9DF0018F9DF00DC0
:104EE0001124ED5FFE4F6581662351F08091BD0175
:104EF0009091BE0126813781820F931F0E94EA267E
:104F00000E946926F0E1FA95F1F75A9852985A9A58
:104F100080E18A95F1F78AE08E9D80018F9D100DCA
:104F200011240D5F1E4FD80112966C9112976623C3
:104F300099F08091BD019091BE0113962D913C9105
:104F40001497820F931F0E949726D801ED91FC9130
:104F5000811105C082E004C0D801ED91FC9188E088
:104F600080830E9461260F90DF91CF91FF91EF9196
:104F7000BF91AF919F918F917F916F915F914F9171
:104F80003F912F911F910F91FF90EF900F900FBEC7
:104F90000F901F9018950F931F93CF93DF9384303A
:104FA00091050CF0A9C02AE0289FF001299FF00D7F
:104FB0001124ED5FFE4F20813181232B09F49CC029
:104FC000EC01F894529A5A9885E08A95F1F700001E
:104FD0008C2F869585709C2F9570890F982F9370D4
:104FE000869586958E0123E0000F111F2A95E1F723
:104FF000890F082B0E946926A4E0AA95F1F700C04A
:1050000068E0802F0E94CA26B0E1BA95F1F7529865
:105010005A9A4A9902C000C0FCCF87E090E04A9BB0
:1050200017C0019799F4529A5A9A8AE08C9FF0011E
:105030008D9FF00D1124ED5FFE4F0190F081E02D6A
:1050400081E08083789481E090E058C000C0E7CF91
:105050008AE08C9F80018D9F100D11240D5F1E4FE3
:10506000F80165816623B9F08091BD019091BE0180
:1050700026813781820F931F0E94972681110BC0D2
:10508000529A5A9AD801ED91FC9182E080837894EB
:1050900082E090E033C00E946126B0E2BA95F1F759
:1050A0005A98529AE0E1EA95F1F78AE08C9FF00174
:1050B0008D9FF00D1124ED5FFE4F6281662351F04C
:1050C0008091BD019091BE0123813481820F931F95
:1050D0000E94EA260E9469268AE08C9FF0018D9F3B
:1050E000F00D1124ED5FFE4F0190F081E02D108254
:1050F000789480E090E002C084E090E0DF91CF916E
:105100001F910F9108959093C9028093C80208954A
:105110000E948014811103C08091C3020895E09120
:10512000C802F091C902309721F00190F081E02D82
:10513000099480E00895E091C802F091C902309787
:1051400021F00280F381E02D09940895E091C802D6
:10515000F091C902309739F022E0DC012C930480F1
:10516000F581E02D099408952091C6023091C7027F
:105170002817390771F09093C7028093C602E09117
:10518000C802F091C902309721F00680F781E02D26
:10519000099408952091C4023091C5022817390757
:1051A00071F09093C5028093C402E091C802F0911F
:1051B000C902309721F00084F185E02D099408950B
:1051C000FC01329697E080E0915029F02191222352
:1051D000D9F38F5FF9CF0895662349F0FC01329629
:1051E00008962191621729F0E817F907D1F780E0B6
:1051F000089581E008959C01FC0132969FEF80E0C4
:105200004191461789F09F3F19F4411101C0982F31
:105210008F5F8630A9F79F3F39F0F901E90FF11D43
:1052200097FDFA956283089508959C012A5F3F4F88
:10523000FC014281461301C0128201968217930736
:10524000B9F708950C94FB280C941529029626E0D2
:10525000FC0111922A95E9F70895109232031092F9
:10526000330310923403109235030895CF92DF92E6
:10527000EF92FF926B017C010E94801481110EC09D
:105280000E94102AC61AD70AE80AF90AC092320305
:10529000D0923303E0923403F0923503FF90EF9005
:1052A000DF90CF9008950F931F930E94801488235E
:1052B00021F01F910F910C94102A0E94102A009146
:1052C0003203109133032091340330913503600F82
:1052D000711F821F931F1F910F9108950E948014C8
:1052E00081110C94042A0E945329CB01089508953A
:1052F00008950C9478290C947829CF930E947B29E7
:105300000E94EF130E947929C0E08C2F0E948A121C
:10531000892B29F4CF5FC830C1F780E001C081E05C
:10532000CF9108950C9478290C94922980913E0392
:10533000843059F10E94942980E00E9483050E94E4
:10534000771E1092CA0220E488E190E00FB6F8942C
:10535000A895809360000FBE2093600083B7817F83
:10536000846083BF83B7816083BF7894889583B757
:105370008E7F83BF0FB6F894A895809160008861F6
:1053800080936000109260000FBE08950C947829FD
:105390000E9461090E9488280E9483050E94431F81
:1053A0000C94C6291F920F920FB60F9211248F935F
:1053B0009F93AF93BF938091CA02811113C08091D4
:1053C000360390913703A0913803B0913903419689
:1053D000A11DB11D8093360390933703A09338032A
:1053E000B0933903BF91AF919F918F910F900FBEF2
:1053F0000F901F90189582E084BD93E095BD9AEFC1
:1054000097BD80936E0008952FB7F894809136036E
:1054100090913703A0913803B09139032FBF0895BD
:105420002FB7F89460913603709137038091380359
:10543000909139032FBF08959C014FB7F894809144
:10544000360390913703A0913803B09139034FBFD1
:10545000821B930B0895CF92DF92EF92FF922FB7AA
:10546000F894C0903603D0903703E0903803F09062
:1054700039032FBFA7019601261B370B480B590B89
:10548000CA01B901FF90EF90DF90CF900895789412
:105490001F920F920FB60F9211248F939F93AF9389
:1054A000BF938091360390913703A0913803B09158
:1054B00039030196A11DB11D8093360390933703E4
:1054C000A0933803B0933903BF91AF919F918F910F
:1054D0000F900FBE0F901F90189587E797E7909356
:1054E0000108809300089AE088E10FB6F894A89527
:1054F000809360000FBE90936000FFCF9093F50102
:105500008093F40108958091D602089590913E030E
:10551000943029F58093CB027093CD026093CC0236
:105520009093E9008FEF9091E800815095FD06C0BF
:1055300095ED9A95F1F700008111F5CF8091E80083
:1055400085FF0DC040E050E063E070E08BEC92E03E
:105550000E94FF2C8091E8008E778093E8000895E8
:10556000BC0184E00C94862ABC0183E00C94862A5A
:1055700024E02093E9002FEF3091E800215035FD21
:1055800006C035ED3A95F1F700002111F5CF2091D5
:10559000E80025FF0BC040E050E066E070E00E94AC
:1055A000FF2C8091E8008E778093E8000895CF93D8
:1055B000DF9321E02093E9002FEF3091E8002150A4
:1055C00035FD06C035ED3A95F1F700002111F5CF14
:1055D0002091E80025FF14C0EC0140E050E068E0B5
:1055E00070E00E94FF2C8091E8008E778093E800A5
:1055F00088E0FE01AEECB2E001900D928A95E1F7F1
:10560000DF91CF910895CF93603219F520913E0339
:105610002430F9F4C091E900CF703091EC00232FD1
:10562000217030FD20E8C22B22E02093E900209178
:10563000E80020FF0BC040E050E060E270E00E9414
:10564000FF2C8091E8008E778093E800CF70C093A4
:10565000E900CF91089580913D03811109C00E9416
:10566000DB2E0E94382F8091E20084608093E2005C
:10567000089510923D03089508950895089542E015
:1056800061EC81E00E94542E42E261EC84E00E94D1
:10569000542E42E261EC82E00E94542E42E260EC21
:1056A00083E00C94542E80914003833009F462C04F
:1056B00030F4813071F0823009F49BC008958A3053
:1056C00009F487C08B3009F46DC0893009F0A9C096
:1056D00020C080913F03813A09F0A3C08091E80087
:1056E000877F8093E8008091430390914403892B46
:1056F00021F468E08EEC92E003C060E080E090E08E
:1057000070E00E94952D8091E8008B778093E800EF
:10571000089580913F03813209F083C08091430353
:1057200090914403009719F0029709F07AC0809194
:10573000E800877F8093E8008091E80082FD05C043
:1057400080913E038111F8CF6CC02091F3008091CD
:10575000F20090E0922B029729F48091F1008B7F68
:10576000813021F48091F1008093D6028091E8008D
:105770008B7753C080913F03813A09F052C08091EA
:10578000430390914403892B09F04BC08091E800BA
:10579000877F8093E8008091E80080FFFCCF8091B4
:1057A000460136C080913F038132D9F58091430391
:1057B00090914403892BA9F58091E800877F80931D
:1057C000E8000E94892E80914103809346010C9449
:1057D000610980913F03813221F58091E800877F44
:1057E0008093E8000E94892E809142038093D70223
:1057F000089580913F03813AA1F48091E800877F6A
:105800008093E8008091E80080FFFCCF8091D70270
:105810008093F1008091E8008E778093E8000C94EB
:10582000892E089584B7877F84BF0FB6F894A89512
:1058300080916000886180936000109260000FBECC
:1058400090E080E80FB6F894809361009093610037
:105850000FBE0C94940F0E94DB2E0E94382FE2EEB4
:10586000F0E080818460808378940E94CD310E9432
:10587000A20F8CE391E00C948328CF93DF93CDB7F4
:10588000DEB7A0970FB6F894DEBF0FBECDBF8091F4
:105890003E038530A9F480913E03853079F40E945F
:1058A000962980913C038823B1F30E947D298823A7
:1058B00091F30E94E92C0E946109EDCF0E94C82952
:1058C0000E94B00F80913E03843011F583E08093F5
:1058D000E9008091E80082FF1BC08091E80085FF0D
:1058E0000AC040E050E060E270E0CE0101960E9404
:1058F0004A2D91E001C090E08091E8008B77809381
:10590000E800992329F060E2CE0101960E94E3218C
:10591000A0960FB6F894DEBF0FBECDBFDF91CF913A
:1059200008950C94932C292F332723303105C9F087
:1059300060F42130310581F02230310509F041C099
:105940008BE590E023E935E040C021323105E1F0FC
:105950002232310531F135C082E190E02EEE35E0A2
:1059600034C099278130910549F028F0029749F514
:10597000E7E6F5E005C0EFE8F5E002C0E9E7F5E0AD
:10598000849190E09F0121C063307105D0F4660FCF
:10599000771FFB01E351FE4F2081318189E090E0C8
:1059A00014C06330710568F4FB01EE0FFF1FE9516D
:1059B000FE4F20813181FB01EC51FE4F808190E050
:1059C00004C080E090E020E030E0FA0131832083E1
:1059D000089580E189BD82E189BD09B400FEFDCF53
:1059E0008091D8008F7D8093D8008091E000826004
:1059F0008093E0008091E00081FDFCCF0895CF927C
:105A0000DF92EF92FF920F931F93CF93DF93EC01FE
:105A10008B017A010E94A82E811133C0E114F10498
:105A200039F0F70180819181081B190BC80FD91F2C
:105A3000C12CD12C0115110519F18091E80085FDCB
:105A400016C08091E8008E778093E800E114F1049D
:105A500049F0F70180819181C80ED91ED182C082A0
:105A600085E00FC00E94A82E882321F30AC08991E7
:105A70008093F10001501109FFEFCF1ADF0ADACF4E
:105A800080E0DF91CF911F910F91FF90EF90DF9019
:105A9000CF900895CF92DF92EF92FF920F931F93D2
:105AA000CF93DF93EC018B017A010E94A82E811124
:105AB00033C0E114F10439F0F70180819181081BB2
:105AC000190BC80FD91FC12CD12C0115110519F1C3
:105AD0008091E80085FD16C08091E8008B77809367
