:100000000C94B7020C94D4020C94D4020C94D40235
:100010000C94D4020C94D4020C94D4020C94D40208
:100020000C94D4020C94D4020C94E2310C94B632A9
:100030000C94792C0C94D4020C94D4020C94D40219
:100040000C94D4020C94D4020C94D4020C94D402D8
:100050000C94D4020C94002D0C94D4020C94D40271
:100060000C94D4020C94D4020C94D4020C94D402B8
:100070000C94D4020C94D4020C94D4020C94D402A8
:100080000C94D4020C94D4020C94D4020C94D40298
:100090000C94D4020C94D4020C94D4020C94D40288
:1000A0000C94D4020C94D4020C94D40200001400DA
:1000B0001A000800150017001C0018000C001200A0
:1000C00013002A002B0004001600070009000A0094
:1000D0000B000D000E000F002D002800E1001D0098
:1000E0001B00060019000500110010003600370043
:1000F0005200E100E000E300E2002C002C002C00A4
:1001000000002C00500051004F000000FD377A58CD
:100110005A000004E6D6B446020021011600000091
:10012000742FE5A3E001F800E75D003D8889C6541F
:1001300036C3174FE4EFB08749EC9310AF57E64151
:10014000FE90B053D559ED99082C79FFE6F3D65BB4
:100150001C8D8D6A0CCFD265CC3B83F3AE1B1E2861
:100160007F03116789F81C377FF2B89AA6CC53DE5B
:10017000FD77CE1584B5F88D7EB169643E07B093E6
:10018000E44025DC8AEFBCF9EA5CEF875A5E706ECA
:10019000B88D77B1E6D924A81B0C8238822FB746D8
:1001A0009EC5409EAA9CB1D6EBF064A785B9E48BAE
:1001B0006C51AE7E581684BC10833A2FE5452E292B
:1001C000AF9DCFD9CF4196C57760AFD53CABE7A9FE
:1001D00084CB056499463052A75BDB2B985B7D1876
:1001E000157242C3CA741A39A0797F7FC90B71BBDB
:1001F0004B9CAE0FC1C17B22E0BF5F4E857D47AEF9
:1002000021D80BE6BC3DC07ED4BEA57B3358D44B71
:1002100039000000B1E0E44D86D5EDE00001830235
:10022000F9030000BF0699D8B1C467FB02000000C3
:100230000004595A010001006E04FE19301A000032
:10024000020002006A04FE19301A000003000100D7
:100250006F04FE19301A0000040002005404FE1955
:10026000301AF719050001007004FE19301A000059
:10027000060002005604FE19301A000007000200B2
:100280006C04FE19301A0000080001007104FE1908
:10029000301A0000090002005804FE19301ADF1855
:1002A0000A0002005A04FE19301ADF180B0002007F
:1002B0005C04FE19301ADF180C0002005E04FE19FF
:1002C000301ADF180D0002006004FE19301ADF1822
:1002D0000E0002006204FE19301ADF180F0002003F
:1002E0006404FE19301ADF18100002006604FE19BB
:1002F000301ADF18110002006804FE19301ADF18E6
:10030000120002007204FE19301A000013000200ED
:100310007404FE19301A0000140001007604FE195E
:10032000301A000015000000000004197E190000BA
:1003300000000000000000002A2B28000000000040
:100340000000000000000000000000290000000084
:100350002C1E3420212224342627252E362D3738F2
:10036000271E1F202122232425263333362E3738FB
:100370001F0405060708090A0B0C0D0E0F101112B9
:10038000131415161718191A1B1C1D2F3130232D85
:10039000350405060708090A0B0C0D0E0F10111283
:1003A000131415161718191A1B1C1D2F3130354C34
:1003B000000000000000000000000000000000003D
:1003C000000000000000000000000000000000002D
:1003D000000000007E0F00D4FFFFFFC70000007880
:1003E0001C037600690061006C003A00660036006C
:1003F0003400630032006200330063000000100329
:1004000063006F006F006C003400340035000000A2
:100410000A036D002E006B0069000000040309044C
:1004200009025B00030100A0FA09040000010301B6
:100430000100092111010001224400070581030880
:10044000000109040100020300000009211101005C
:100450000122220007058203200001070503032073
:10046000000109040200010300000009211101003C
:1004700001227B0007058403200001120100020015
:10048000000008434D45040001010203010660FF1E
:100490000961A1010962150026FF009520750881F8
:1004A000020963150026FF00952075089102C0051A
:1004B000010902A10185020901A10005091901290B
:1004C000081500250195087501810205010930090B
:1004D000311581257F95027508810609381581251A
:1004E0007F950175088106050C0A38021581257F64
:1004F000950175088106C0C005010980A101850329
:1005000019012AB700150126B70095017510810061
:10051000C0050C0901A101850419012AA0021501D9
:1005200026A002950175108100C005010906A101F0
:10053000050719E029E715002501950875018102D5
:100540009501750881010507190029FF150026FF8F
:100550000095067508810005081901290515002573
:1005600001950575019102950175039101C0112452
:100570001FBECFEFDAE0DEBFCDBF11E0A0E0B1E0FB
:10058000EEEFFAE602C005900D92A63BB107D9F74F
:1005900024E0A6EBB1E001C01D92A938B207E1F753
:1005A0000E94C4140C9459350C940000811112C09F
:1005B000643080F44C3070F4E42FF0E08CE0689FFD
:1005C000E00DF11D1124EE0FFF1FE455FF4F859143
:1005D0009491089581E090E008959C013A95211549
:1005E0003F4150F5FC01EE27F170BC0166277270A7
:1005F000AC01442754709C012227387094FF0EC030
:1006000080E1EF2B09F480E0672B09F08062452B35
:1006100009F08064232B89F08068089581E0EF2B36
:1006200009F480E0672B09F08260452B09F08460B3
:10063000232B19F08860089580E00895CF93DF930D
:10064000EB010E94ED02FE010995DF91CF91089523
:10065000CF93DF93EC01805E9109089720F06CED59
:1006600075E0209711F46EEC75E0CE010E941E0338
:100670008C2F0E942D05DF91CF910895CF93DF93AA
:10068000EC010E947605CE01805E9109089720F06A
:1006900063EE75E0209711F465ED75E0CE010E94E0
:1006A0001E03DF91CF91089581E008950E945403C5
:1006B000089581E008950E94540308950E945B0309
:1006C000089508950E9461030895A6E0B0E0EBE666
:1006D000F3E00C94A13449835A839E833091BD0189
:1006E00089819A8131111AC03E81332399F02223E6
:1006F00089F00E94C709182F682F89819A810E946A
:10070000A30969817A81812F0E944D122696E3E028
:100710000C94BD340E94B509182FF3CF0E94C7096D
:1007200069817A81F1CFFC01262F8781908500971E
:1007300041F44081518162817381848195810E945D
:10074000650308950F931F93CF93DF93EC0161E04E
:100750000E9493038C01BE010E945603882351F02E
:10076000BE01C8010E94CC1F8170DF91CF911F9103
:100770000F91089580E0F8CFCF93DF93EC0160E014
:100780000E949303BE010E946203DF91CF910895FE
:1007900081E008950E94C8030895CF93C82F0E9456
:1007A00000068C2F0E94CA032FEF84E39CE02150A7
:1007B00080409040E1F700C00000CF91089581E0B3
:1007C0000E94CD030E94242D089580E00E94CD0355
:1007D0000E94352D08950F931F93CF93DF93EC0163
:1007E0008B010E947C28882329F061E0C8010E94C7
:1007F0009303EC01B801CE010E94F029811106C0DB
:1008000080E0DF91CF911F910F910895B801CE0143
:100810000E9491188823A1F3B801CE010E945E03C3
:10082000882371F3B801CE010E94A428882341F3E4
:10083000B801CE010E94E41C882311F3B801CE0157
:100840000E9442298823E1F2F8018581882361F022
:10085000C330FCE7DF07E9F058F4C115ECE7DE0729
:10086000A9F0C130DC47B9F0C8010E945903C9CFD3
:10087000CB358CE7D807A9F0CC35ECE7DE0771F073
:10088000CA35DC4789F70E947B0FEECF0E94DF0359
:10089000B7CF0E94830F0E94E503B2CF0E94710F71
:1008A000E3CF0E947F0FE0CFCF93DF93EC0161E0B5
:1008B0000E949303BE010E94EB03DF91CF91089544
:1008C0000E94552C0E94980408950E949C040E9446
:1008D0005A2C0895982F92959F7011F0892F94E0CB
:1008E000282F2695269511F09E5F822F869509F078
:1008F0009F5F892F0895089581E008950895CF930B
:10090000DF93D82F0E947C04C82F882319F08D2FE5
:100910000E947E048C2FDF91CF9108950895CF938C
:10092000C82F0E947B048C2F0E947F04CF910895D2
:1009300080E00E948F0408950E942B2B0E948F0458
:100940000895CF930E942B2BC82F8091B8018C174C
:1009500079F0C093B8010E94E52C6093B9017093BF
:10096000BA018093BB019093BC018C2F0E948F042D
:10097000CF910895019708F40895EFE9FFE03197CA
:10098000F1F700C00000F6CFAFE0B0E0EAECF4E031
:100990000C94A0344A875B876C877D878E879F87FE
:1009A000882349F08091BE019091BF0101969093F8
:1009B000BF018093BE018F8581110E94580E1F8256
:1009C0001886198686E0FE013A96DE01119601909E
:1009D0000D928A95E1F78091F10382FF12C0809118
:1009E000560490915704892B61F00E94140E8823BD
:1009F00019F082E00E94450F0E94F00D81110E94C3
:100A0000C50E8D8181110FC009811A812B813C8116
:100A10004D815E816F81788589850E94640D2F9656
:100A2000E4E00C94BC34CE0101960E94A203811133
:100A3000EBCFF5CFFC012481213021F4808191811D
:100A40000E94F4090895662329F00E9415250E944A
:100A5000FA2508950E948125FACFCF93C82F8823C5
:100A600099F08CEF8C0F813A88F48C2F0E94B02B78
:100A7000882329F08C2F0E94F32B0E94160F8C2FB5
:100A80000E94EB2B0E94160FCF91089580E28C0FED
:100A9000883048F4C77081E001C0880FCA95EAF732
:100AA0000E94380EEFCFEBE5EC0FE33040F4F0E0BE
:100AB000E65AFE4F808190E00E94512BE5CFE8E599
:100AC000EC0FEB3150F4F0E0EE0FFF1FEC5DFE4F4A
:100AD000808191810E94762BD7CF83E38C0F833165
:100AE00098F661E08C2F0E942305CECF882381F1F8
:100AF0009CEF980F913A28F40E94F32B0E94160F56
:100B0000089590E2980F983050F4877091E001C0FA
:100B1000990F8A95EAF7892F0E943E0EEFCF9BE549
:100B2000980F933028F490E080E00E94512B0895B4
:100B300098E5980F9B3128F490E080E00E94762B96
:100B4000089593E3980F933118F460E00E94230511
:100B500008951F93CF93DF93182FEB010E942D056B
:100B6000209739F4812F0E947605DF91CF911F9154
:100B700008958FE99FE00197F1F700C000002197E9
:100B8000EFCF6091740470917504893321F0609106
:100B90007204709173040E94A9050895882321F0BE
:100BA0000E94380E0E94160F0895882321F00E949B
:100BB0003E0E0E94160F0895882321F00E944B0ECE
:100BC0000E94160F0895882321F00E94510E0E9462
:100BD000160F089590E080E00E94512B90E080E095
:100BE0000E94762B0E94580E0E94160F0E94162615
:100BF0000E94FA2508950E94FB2B0E94EA050895A1
:100C00000E94450E0E94FB05089592959F709630B4
:100C100091F058F4925F9F70923058F4803F19F031
:100C200030F4883E30F481E008959A5FF4CF843F39
:100C3000D1F380E00895883EB0F3813FD1F7F3CF40
:100C4000FC018481882371F087819085009729F0C9
:100C50000E942F110E9405060895808191810E94B3
:100C6000F409F8CF80E00895B0E0A0E0EAE3F6E010
:100C70000C949B346C01EB01FC011581F680F2941D
:100C80009FE0F9220E942E0EE82E8823F9F0E12E33
:100C90001123E1F08D2F807F803461F080E28C0F92
:100CA000883010F18D2F807E803221F4C230E0F048
:100CB000FF20D1F08091F10382FF16C082E00E94F4
:100CC000450F0E942E0E91E0E82EE926BD2EB2942B
:100CD0008FE0B822FBE0FB1508F463C0EB2DF0E0D9
:100CE000E55AFA4C0C948534E12CF0CF0D2F0F709F
:100CF0008D2F807F11F00295007F112399F0002342
:100D000059F080E28C0F883010F0C11107C0802F9D
:100D10000E94380E0E94160F8C2F3BC0802F0E941D
:100D20004B0EF8CF8C2F0E9476050023D1F180E284
:100D30008C0F883010F0C11104C0802F0E943E0E2D
:100D400003C0802F0E94510E0E94160F2AC00D2F43
:100D50000F708D2F807F803211F00295007FCC23A1
:100D600051F0C13009F480C0112309F48CC0FF2078
:100D700009F445C0D1CF8091F10382FD3CC011231D
:100D800059F0002329F0802F0E94380E0E94160F80
:100D900080E00E942D0505C080E00E9476050111CB
:100DA000CCCFEB2DE850FF0B349720F40E942B2B77
:100DB0000E948F04CE010E940506811189C1109204
:100DC000BF011092BE01EE2089F00E94100E80FD3E
:100DD0000DC0F60115820E940A0E0E941709C60175
:100DE0000E94A9080E940A0E0E942309CDB7DEB70F
:100DF000E9E00C94B7341123E9F0F11004C0802F1E
:100E00000E94CE05CECF21E0F21204C0802F0E94B6
:100E10007E0EC7CF80917004823018F28F11C1CF3F
:100E2000802F0E94CE05802F0E94950E802F0E9459
:100E3000620EB7CFF1100AC0802F0E94D505802F17
:100E40000E94950E802F0E946E0EABCF8091700491
:100E5000823008F4A6CF31E0F312A3CF0E94350E02
:100E6000802309F49ECFE8CF80917604112321F0EE
:100E70008F1508F496CFC3CFF81608F092CF802FC5
:100E80000E94D5058ECFFF20D1F3809174049091FC
:100E90007504C93321F080917204909173040E940B
:100EA000BA048C2F0E9476057CCF8D2F869586956F
:100EB000837061F0813009F074CFCE01937011110D
:100EC00002C080E090E00E94762B6BCFCE01937041
:100ED000111102C080E090E00E94512B62CF612F7F
:100EE0008C2F0E9423055DCF8D2F837081F511110A
:100EF00058CF4C2F429546954770440F440F8C2F86
:100F00008F70042E01C0880F0A94EAF72C2F2071ED
:100F1000C4FF07C02FE030E001C0220F4A95EAF776
:100F200020959D2F969596959370822B923049F03F
:100F300058F4913019F00E94F30833CF0E94ED0865
:100F400030CF0E94F9082DCF0E94EA082ACF86955B
:100F5000112311F08D2F8170882309F422CF4C2F9B
:100F6000429546954770440F440F8C2F8F70042E86
:100F700001C0880F0A94EAF72C2F2071C4FF07C024
:100F80002FE030E001C0220F4A95EAF720959D2F0F
:100F9000969596959370822B923049F058F4913043
:100FA00019F00E944209FDCE0E943C09FACE0E942F
:100FB0004809F7CE0E940509F4CE0D2F0F701123BA
:100FC00029F0802F0E9417098C2F1ACF8C2F0E9496
:100FD000D505802F0E942309E4CEC23F51F160F471
:100FE000C03FB9F0C13F81F0112309F46CC0F1108A
:100FF00093CE8D2F8F7121C0C33F11F1C43FA1F754
:101000008091F10382FD26C08D2F8F71112311F382
:1010100014C080917604112341F0F81608F0C1CE77
:101020008D2F8F710E943009BCCE8F1508F4B9CE78
:10103000F7CF8D2F8F711111CDCF0E941709B1CE2F
:10104000112329F08D2F8F710E940E09AACE0E94C4
:101050000A09A7CE80917004823010F11123B1F0FB
:101060000E94100E843041F40E943B0F8D2F8F712F
:101070000E942309E12C95CE8091700463E0F8165C
:10108000C8F78D2F8F710E941D0FF4CFF81620F036
:101090000E943B0F64E0F5CF81E00E94450FEACF4C
:1010A000112331F063E08D2F8F710E941D0F79CED7
:1010B00081E00E94450F81E08F1508F072CE82E03A
:1010C0000E94450F6ECEF110E0CE8D2F8F7182CF32
:1010D000112319F0F11073CE76CEF11070CE20E00E
:1010E000F6014081518162817381848195810E94E2
:1010F0006503B6010E944A1B882309F460CE8091E3
:10110000BE019091BF01029709F059CE8C2F0E9429
:10111000C10555CE0F931F93CF93DF93EC018F81C1
:101120009885009781F00E942F118C010E944E0932
:101130000E94E908B801CE010E943406DF91CF91E8
:101140001F910F910895688179818D810E94FF0917
:10115000ECCFCF93DF93EC018C81882399F0CE0103
:101160000E945404811111C00E942E0E882351F058
:101170008D81882339F08091F10382FF03C082E0E2
:101180000E94450FDF91CF910895CE010E948A08F9
:10119000CE010E94BC03F6CFA6E0B0E0E2EDF8E09D
:1011A0000C94A2342696E2E00C94BE34A9E0B0E0A0
:1011B000ECEDF8E00C94A0342996E4E00C94BC34F7
:1011C00008950E94E00808950E94E1088093D301E9
:1011D000089508950E94E40808959091D301892B01
:1011E0000E94E40808959091D30189230E94E408A5
:1011F00008959091D30189270E94E40808950E94E0
:10120000E00808950E94FF0808950E940209809353
:10121000D201089580E00E940509089591E001C07F
:10122000990F8A95EAF7892F0E940509089521E010
:1012300030E001C0220F8A95EAF78091D201822B1B
:101240000E940509089521E030E001C0220F8A952F
:10125000EAF720958091D20182230E940509089522
:1012600021E030E001C0220F8A95EAF78091D20197
:1012700082270E94050908959091D201892B0E942E
:10128000050908959091D20189230E9405090895C6
:101290009091D20189270E94050908950895262F6B
:1012A000277091E001C0990F2A95EAF723E076951F
:1012B00067952A95E1F7FB01EE0FFF1FE60FF71F79
:1012C000E40FF51F50E040E0682F70E08191DF01EE
:1012D00011979B01042E02C0369527950A94E2F7D8
:1012E000217021952827292328272C934F5F5F4FB2
:1012F0004330510559F70895A82FA77023E096951C
:1013000087952A95E1F7FC01EE0FFF1FE80FF91F03
:10131000E60FF71F50E040E080E0219130E00A2E18
:1013200002C0369527950A94E2F721703327042EE0
:1013300001C0220F0A94EAF7822B4F5F5F4F4330C0
:10134000510559F70895262F943070F48C3060F4CD
:10135000682F70E08CE0989F600D711D112440ECA7
:1013600051E0822F0E944F090895292F943068F48C
:101370008C3058F490E060EC71E03CE0239F800DED
:10138000911D11240E947C09089580E00895CF9258
:10139000DF92FF920F931F93CF93DF936C01009125
:1013A000D2018091D301082BC3E0D0E010E0FC2EE5
:1013B000C8010C2E02C0959587950A94E2F780FD2E
:1013C0000CC02197A0F7F12C8F2DDF91CF911F91A9
:1013D0000F91FF90DF90CF900895B6018C2F0E945F
:1013E0006812019771F3F0CFCF93DF93EC010E9465
:1013F000C709BE010E946812DF91CF9108951F9323
:10140000CF93DF93EB019091BD01992339F0CB018C
:101410000E94F409DF91CF911F910895882369F00C
:10142000CB010E94C709182F682FCE010E94A30983
:10143000BE01812F0E946812EDCFCB010E94B50939
:10144000182FF6CFE1E0F0E0DF0102C0AA0FBB1FCA
:101450006A95E2F7BD01DF0102C0AA0FBB1F4A95E2
:10146000E2F76A2B01C0EE0F2A95EAF7962F982330
:10147000961302C08E2B0895E0958E230895242F95
:10148000462F682F8091D2010E94220A0E940509EE
:101490000895FF920F931F93CF93DF93C091D401D0
:1014A00089E0F82E8091D5018C1305C0CDB7DEB749
:1014B000E5E00C94BB34D0E0FC9EF001FD9EF00D05
:1014C0001124EA52FE4F008111812281338144812F
:1014D00055816681778180850E94D6082196C770E4
:1014E000E1CF0F931F9300911E0210911F022091D4
:1014F00020023091210240912202509123026091FA
:10150000240270912502809126020E94D6081F9124
:101510000F910895482F2091D4019091D50159E061
:10152000291302C080E0089530E0529FF001539FDC
:10153000F00D1124EA52FE4F8181681306C08081AC
:10154000481303C085818111EECF2F5F3F4F277075
:10155000E7CFB0E0A0E0EFEAFAE00C949D34809190
:101560002402807F09F054C080912302882309F46B
:101570004FC0E091D40189E0D82E8091D5018E171B
:1015800009F446C00E2F10E0ED9DF0011124EA523F
:10159000FE4F8481882309F440C0D09EE001D19E93
:1015A000D00D1124FE01EA52FE4F918180911F025D
:1015B000981333C0908180911E0298132EC08581AC
:1015C00081112BC0E280F380809120029091210252
:1015D000E81AF90A60E08EE192E00E9493036EE15E
:1015E00072E00E947118E816F906B8F4809124029E
:1015F0008F70806180932402C452DE4F88818F7087
:10160000806188838EE192E00E94A9080E94490AC5
:10161000CDB7DEB7E7E00C94B934F8013196E77046
:10162000ACCF2F923F925F926F927F928F929F9258
:10163000AF92BF92CF92DF92EF92FF920F931F93E0
:10164000CF93DF93CDB7DEB768970FB6F894DEBFC0
:101650000FBECDBF8C0186E0F801DE0153960190EC
:101660000D928A95E1F7D80114967C9014971596FF
:10167000EC908EE1282E82E0382E8091220281119A
:101680003AC071101BC0FF24F3948F2D68960FB6DB
:10169000F894DEBF0FBECDBFDF91CF911F910F91A8
:1016A000FF90EF90DF90CF90BF90AF909F908F9082
:1016B0007F906F905F903F902F900895EE20B9F04B
:1016C000C8010E942006F82E882389F089E0F801DD
:1016D000AEE1B2E001900D928A95E1F78EE192E0E1
:1016E0000E941A050E94A90A0E94710ACECFC80161
:1016F0000E94A908C8CFF80160805180C280D380C1
:1017000060E08EE192E00E9493035C01F09023027E
:101710008091200290912102FF2009F433C14601FB
:10172000881A990A60E08EE192E00E9493036EE1CC
:1017300072E00E9471188816990608F0BEC07720E2
:1017400009F4A1CF80912402382F307F20911F020D
:10175000D80111969C91119731115CC0291321C0B9
:1017600020911E029C9129131CC04091250250918A
:10177000260217962D913C914217530791F4E110E0
:1017800095C18F708061809324020E94710A8EE15E
:1017900092E00E94A90880912402F8018683F12C2E
:1017A00074CFE11083C1652D862D0E948A0A88239B
:1017B00009F45BC16EE172E0C5010E943F1B882302
:1017C00009F453C18EE192E00E94A90889E0EEE19C
:1017D000F2E0DF011D928A95E9F70E94710ADFCFDE
:1017E0002A5F2F70223078F0C8010E94A908EF2CE0
:1017F0005BC1992319F0882309F456C1805E8830B3
:1018000008F452C1F1CF803F08F44EC1815F8330AC
:1018100058F74AC1291320C020911E029C91291318
:101820001BC0409125025091260217962D913C91A4
:1018300018974217530781F4E1100EC016968C9347
:10184000C8010E94A90889E0F801AEE1B2E0019068
:101850000D928A95E1F748CFC8010E94200688239F
:1018600009F445CFEE2009F442CF80912402803262
:10187000B8F020911E0230911F023B872A87DD8637
:10188000CC86909122029E871F86888B80912502AC
:10189000909126029A8B898BCE010A960E94A90804
:1018A00089E0F801AEE1B2E001900D928A95E1F78E
:1018B0000E94A90A0E94710AE6CE80912402982F04
:1018C000907FA1F46C2DDE8ACD8A462D552D7E8920
:1018D000872D9E2D0E94CC088EE192E00E94A908DF
:1018E00089E0F10111928A95E9F777CF772009F421
:1018F000CACE20911F02D80111969C9111972913ED
:101900001DC020911E029C91291318C040912502F0
:101910005091260217962D913C9118974217530724
:1019200069F4E1100BC016968C93C8010E94A908B7
:1019300089E0F10111928A95E9F7A7CEC8010E94CA
:101940002006882309F4D3CEEE2009F4D0CE80916E
:101950002402803208F4A4CF20911E0230911F028D
:101960003A832983DC82CB82909122029D831E825E
:101970008F83809125029091260299878887CE01D6
:1019800001968CCF5601A81AB90A60E08EE192E068
:101990000E9493036EE172E00E947118A816B906C6
:1019A00008F053C0772009F46ECEFE2CEE2009F427
:1019B0009ECE90911F02D80111968C911197981389
:1019C00036C090911E028C91981331C0209125024F
:1019D0003091260217968D919C912817390739F579
:1019E0008091200290912102C81AD90AB8ECCB1636
:1019F000D104A0F49091240290FD10C0907F71F06A
:101A000080912402F8018683903F09F419CF982F22
:101A1000907F905F8F70892B868312CF89E0F801C9
:101A2000AEE1B2E001900D928A95E1F72ECEC801A9
:101A30000E942006811134CF80912402816080931E
:101A40002402C8010E94A90820CE6C2DDE8ACD8A0E
:101A5000462D552D7E89872D9E2D0E94CC0889E02C
:101A6000D1011D928A95E9F73FCE652D862D0E9402
:101A70008A0AE82E811193CE6B8A5C8A8B899C89B5
:101A80000E94F409292F22952F70243008F0A8CE47
:101A90009F70223008F4ADCE992309F4AFCEF8013F
:101AA0009681907F09F0AACEFE2CEFCD8091240282
:101AB0008160809324026EE172E0C5010E94431BA5
:101AC000882309F46CCE7ECEA2E1B0E0EAE6FDE028
:101AD0000C949F340A871B872C873D874E875F872E
:101AE000688B798B8A8BCE010A960E94110B882312
:101AF000C9F04E85442351F00A851B852C853D8510
:101B00005F85688979898A890E94D60889E0F82EDC
:101B10008091D4019091D50189133DC06296E5E092
:101B20000C94BB3489E0FE013A96DE0111960190D7
:101B30000D928A95E1F78E85882341F32091D50196
:101B400030E0C9010196877099274091D401481768
:101B5000190699F099E0929FD001939FB00D11243E
:101B6000AA52BE4FFE01319601900D929A95E1F76F
:101B70008093D5010E94490AC9CF0E9400061092A5
:101B8000D5011092D40189E0EEE1F2E0DF011D926F
:101B90008A95E9F7BBCF8F9DC00111248A529E4FD1
:101BA0000E94110B882309F4B9CFE091D401FE9E65
:101BB000F0011124EA52FE4F00811181228133810C
:101BC000448155816681778180850E94D608809105
:101BD000D40190E00196877099278093D40198CF23
:101BE0008091560490915704892B89F00E94D92C3A
:101BF0002091320230913302AC01421B530B81E041
:101C000020915604309157044217530708F480E09E
:101C10008170089580913102869586958695089504
:101C200080913102877008950E94D92C20912F0253
:101C300030913002821B930B20915604309157044F
:101C40008217930748F08091310282FB882780F940
:101C500091E089278170089580E0FCCF9091310256
:101C6000977081E009F480E0089580913F02089523
:101C700090913F02892B80933F0208958095909127
:101C80003F02982390933F02089510923F020895D7
:101C900080913E02089590913E02892B80933E02EE
:101CA0000895809590913E02982390933E02089566
:101CB00010923E02089580913502089508950E9481
:101CC0005E0E089590913402292F2823281729F0B9
:101CD000892B809334020E945F0E08959091340204
:101CE000292F282331F080958923809334020E9484
:101CF0005F0E089508950E947A0E0895CF93C82F1D
:101D0000809135028C238C1771F00E94D92C90930E
:101D1000330280933202809135028C2B80933502FE
:101D20008C2F0E947B0ECF91089590913502292F20
:101D3000282381F08095892380933502882359F0E8
:101D40000E94D92C90933302809332028091350205
:101D50000E947B0E089590E080E0F4CFCF93C82FCF
:101D60008091F10382FF0FC0809135028C1759F0EA
:101D70000E94D92C9093330280933202C093350293
:101D80008C2F0E947B0ECF9108958091350288237D
:101D900049F010923502109233021092320280E024
:101DA0000E947B0E08950F931F93CF93DF930091B2
:101DB000000110910101C0913F0280913E02C82BA9
:101DC00080913502882399F08091560490915704B0
:101DD000892B29F00E94F00D81110E94C50E80917F
:101DE0003502C82B0E949B2B81110E94C50EF80161
:101DF000C083C0910001D091010148E050E067E24A
:101E000072E0CE010E94D234892B59F088E0FE01A5
:101E1000A7E2B2E001900D928A95E1F7CE010E940F
:101E2000382BDF91CF911F910F9108950E94D30E0F
:101E3000089508950E94190F08959091F10392FF5B
:101E400017C098E0899F90011124622B60933102A2
:101E50000E9417090E94D92C9093300280932F0280
:101E6000809131028695869586950E941A0F089575
:101E70000E941709089510923102109230021092B8
:101E80002F0280E00E941A0F0895909131028095F0
:101E9000892380933102282F277069F4891759F01C
:101EA0009091F10392FF07C08695869586950E94D2
:101EB00023090E943B0F08959091F10392FB222782
:101EC00020F9281769F080FB92F99093F103809133
:101ED000F0039091F1030E94A50F82E00E94450F4C
:101EE00008958091F10382FB882780F991E089278A
:101EF0000E945C0F089581E00E945C0F089580E0CD
:101F00000E945C0F08956FEF7FEF90E080E00E94E9
:101F10003B35089590E080E00E940735853E9E4F56
:101F200019F40E948B29089580E0089582E090E0E2
:101F30000E94FF34089583E090E00E94FF340895EA
:101F400084E090E00E9407350895BC0184E090E0B1
:101F50000E943B350895AB01BC018FE090E00E94E8
:101F60002F350895AB01BC0183E190E00E942F352D
:101F7000089560E070E0CB010E94B20F089560E028
:101F800070E0CB010E94AB0F0E94B90F0895A8E04A
:101F9000B0E0EDECFFE00C94A23465EE7EEF90E053
:101FA00080E00E943B3560E082E090E00E941D35B9
:101FB00081E08093D30161E083E090E00E941D35D1
:101FC00060E074E184E090E00E943B3560E086E0F0
:101FD00090E00E941D3560E087E090E00E941D3592
:101FE00040E050E0BA0188E090E00E942F3560E0C8
:101FF00083E290E00E941D3560E08CE090E00E945A
:102000001D3560E08DE090E00E941D3519821A8236
:102010001B821C821D821E821F82188648E050E0AF
:1020200067E170E0CE0101960E940D3540E050E07E
:10203000BA018FE190E00E942F3580E00E94A42930
:102040000E94D3290E94BF0F2896E2E00C94BE3470
:102050000E94C70F0895A6E0B0E0E1E3F0E10C9420
:10206000A0340E94D92C8C018091400290914102B1
:102070008017910781F019821A820E94D92C682F4B
:1020800049815A81792F80E090E00E94C404109326
:102090004102009340022696E4E00C94BC340E9476
:1020A000E52C60934E0270934F0280935002909300
:1020B000510260934A0270934B0280934C029093BA
:1020C0004D020895089508950E946210089508959C
:1020D0000E94671008958EE593E10E94DB140E9430
:1020E00059150E944B1A0E9463100E9464100895B3
:1020F00081E008950E94781008950E947810089554
:10210000089508950E9480100E94811008950E94F1
:102110008A0F811102C00E9428100E94960F80939E
:1021200052020E94A00F9093F1038093F0030E944B
:10213000161E0E949B0F0E94EA088091D2010E9405
:10214000020908950E94D02C0E94E3290E943414B1
:102150000E9487100E948E040E94681008950E94B9
:1021600006290E94851F0E94A91C0895A6E0B0E0E0
:10217000ECEBF0E10C9496340E947A1081110CC0C3
:102180000E942B100E94AF100E9438260E94A104CA
:102190002696EEE00C94B2340E944A1422E4822E79
:1021A00022E0922E640110E0F601E190F1906F01BF
:1021B000812F0E947E131F5F143009F44BC0E81674
:1021C000F90691F38091520281FD0E9487130E94CB
:1021D0007D10782E10E066246394812F0E947E1378
:1021E0007C01F401A190B1904F018A159B0561F12A
:1021F000A826BF2400E0CC24C394D12CC5018C2197
:102200009D21892BC1F07720B1F009831A830E94A8
:10221000D92C9C838B836D8221E0C7018C219D2169
:10222000892B09F420E049815A816B817C818D8161
:10223000922F0E94C4040F5FCC0CDD1C0C30F1F611
:10224000F4013297F182E0821F5F143031F60E9470
:102250004F1098CFE816F90609F0B4CF91CF1F932D
:10226000CF93DF930E946D12EC01C11580E5D80772
:10227000F0F5C11580E4D80708F09CC0C03ED10538
:1022800020F5CD3CD10508F082C0C83AD10578F4DC
:10229000C53AD10508F073C0C130D10519F12097B6
:1022A00009F1C430D105F0F4D0E0C0E01BC0C33C5C
:1022B000D105D0F7C85AD0E0CC0FDD1FC35ADE4F8E
:1022C0000990D881C02DD4640DC0C11580E2D80713
:1022D00008F0D1C0C11581E0D80708F05AC0C83E47
:1022E000D10510F7CE01DF91CF911F910895C0362F
:1022F00082E5D80718F5C03482E5D80708F06BC02E
:10230000C03282E5D80708F05FC0C11582E5D80762
:1023100008F497C02C2F2695269580E2289F9001DF
:1023200011248C2F8370C1E0D0E002C0CC0FDD1FE0
:102330008A95E2F7C22BD32BDD68D4CFC03A82E571
:10234000D80760F4C03882E5D80708F459C0CF71C7
:10235000D0E0DC2FCC27C46FD06AC4CFC03C82E56C
:10236000D80708F462C0C03E82E5D80708F09CCFC9
:10237000DC2FCC27CC27DF71C06FD06AB3CFC55A12
:10238000D0E0CD56DE4FC881D0E0D064ABCFD06571
:10239000A9CF8D2F0E940F13182FCE0199270E94CD
:1023A0006D12C12FD0E0DC2FCC27CC27DF71C82BDA
:1023B000D92B98CFCE0199270E946D12CC27DF70C0
:1023C000C82BD92BD06A8ECFCF71D0E0DC2FCC2791
:1023D000C16FD06A87CF2C2F26952695277080E273
:1023E000289F900111248C2F8370C1E0D0E002C09F
:1023F000CC0FDD1F8A95E2F7C22BD32BDC6872CF9E
:102400002C2F26952695277080E2289F9001112475
:102410008C2F8370C1E0D0E002C0CC0FDD1F8A9505
:10242000E2F7C22BD32BDA685DCF8C2F8F710E941D
:102430000F13C82FD0E0DC2FCC27CC27DF71D06260
:1024400051CF8C2F8F710E940F1355E0D695C795F1
:102450005A95E1F7CF70D0E0DC2FCC27282F30E061
:1024600084FF05C044E0220F331F4A95E1F7C22BD9
:10247000D32BD06937CF8D2F8F710E940F13182F58
:10248000CE0199270E946D12C12FD0E0DC2FCC27FE
:10249000CC27DF71C82BD92BD2CF462F2091240314
:1024A00030912503232B89F4703F39F4603F69F4A0
:1024B00080915204909153040895743030F46C303C
:1024C00020F4672F0E944423089590E080E008954F
:1024D0000E944D120E942F11089582389105B9F182
:1024E000B0F48133910509F47DC048F48932910537
:1024F00009F46DC08A32910509F47BC008958533D3
:10250000910509F45FC08933910509F10895833E6F
:102510009105D9F138F4803E910529F1823E91056B
:1025200079F10895863E9105D9F1873E910509F428
:102530003EC0843E910541F52091F10321FF24C066
:102540008091F00384FD19C087EE90E008952091FA
:10255000F003237009F05AC02091F10323FF14C047
:1025600089E290E008952091F00320FD38C0309179
:10257000F10330FF09C024FF43C090E080E00895DC
:102580002091F00322FDF7CF08952091F00322FD62
:102590003AC03091F10330FD39C024FFF5CFEDCFC3
:1025A0002091F00323FFF0CF24FDE7CFCDCF209182
:1025B000F00323FD2EC03091F10331FFEECF84EE06
:1025C00090E008952091F00325FFDECFC9CF209140
:1025D000F00325FD21C02091F10323FFD5CF89E32E
:1025E00090E0D2CF2091F00326FFCECF8AE290E098
:1025F00008952091F00326FFC7CF81E390E008956E
:1026000083EE90E0089582EE90E0089580EE90E0F1
:10261000089586EE90E0089585E390E00895909106
:10262000F00392FF10C041E0282F2471243009F0FC
:1026300040E031E0282F2871283009F030E04317BE
:1026400011F02CE0822793FF10C041E0282F247165
:10265000243109F040E031E0282F2871283109F0B9
:1026600030E0431711F02CE082273091F10330FF66
:1026700010C051E0282F2171213009F050E041E0D5
:10268000282F2871283009F040E0541711F029E074
:10269000822731FF10C041E0282F2171213109F03C
:1026A00040E031E0282F2871283109F030E043174D
:1026B00011F029E0822794FD877E089580E0089537
:1026C00008950E946013089508950E946413089568
:1026D000E82FF0E0EE0FFF1FE650FC4F21E030E066
:1026E00002C0220F331F6A95E2F78081918128236F
:1026F000392381E0232B09F480E00895E82FF0E0EE
:10270000EE0FFF1FE650FC4F8081918108950895E0
:1027100080EA8A95F1F7089500C008950E94881311
:102720000895F894E82FE295EF70F0E031A1282F9A
:102730002F7081E090E001C0880F2A95EAF7982F6A
:102740009095932391A392A1892B82A378940895C5
:10275000CF93DF9385E30E94911384E30E9491134A
:1027600081E30E94911387EF0E949113C6E9D1E0A3
:1027700089918F3F11F00E94911381E0C23AD807EE
:10278000B9F7DF91CF910895AF92BF92DF92EF92A8
:10279000FF920F931F93CF93DF938C01D62EC62FFA
:1027A000D0E0CE018E559E4F7C01FC0120812F3F51
:1027B00009F44DC0F894E22FE295EF70F0E031A1FA
:1027C0002F7081E090E001C0880F2A95EAF7932FDF
:1027D000982B91A392A18095892382A378940E943B
:1027E0008C13E6E9F1E042EA51E021E030E0B12C5F
:1027F000A12C61916F3FA9F1A62FA295AF70B0E017
:1028000090968C9190E06F7002C0959587956A952F
:10281000E2F780FD26C0C901A82AB92A220F331F7A
:102820004E175F0731F7F70180818F3F11F00E944B
:10283000911361E0A114B10409F460E08D2D0E94B0
:102840008E13CC0FDD1FC00FD11FB982A882DF917C
:10285000CF911F910F91FF90EF90DF90BF90AF90BD
:10286000089590E080E0D8CF0E94A81388E0EAEFB6
:10287000F3E0DF01982F1D929A95E9F7E2EFF3E07C
:10288000DF011D928A95E9F784E00E9485140E9479
:1028900061130895A8E0B0E0E0E5F4E10C949F3402
:1028A0008E010F5F1F4F88E0F80111928A95E9F7BA
:1028B000F12C6F2DC8010E94C413F394F4E0FF12B1
:1028C000F8CF48E050E0B80182EF93E00E94D234A4
:1028D00021E0009709F420E0892B41F088E0F8011D
:1028E000A2EFB3E001900D928A95E1F744E06AEF20
:1028F00073E082EF93E00E948614182F0E94651304
:10290000812F2896E5E00C94BB340895B0E0A0E058
:10291000ECE8F4E10C949C346C017B01042FC22F91
:10292000222379F081E0809355020E94D92C909364
:1029300054028093530280E0CDB7DEB7E8E00C94F8
:10294000B834D0915502DD23B1F3809153029091B8
:1029500054020E94F12C059770F310E0000F111F34
:10296000A801B601C7010E94D234892B31F0A80119
:10297000B601C7010E94DF34CD2F109255028C2F73
:10298000DBCF0E94B61008950E94722C0E94C52EC3
:102990000E946B100E94DF2E0E94A2100E94EC2E5B
:1029A0000E94F12E0E94C1140E940B2F0E94932DB1
:1029B0000E948210F5CF9093B7018093B6010895DD
:1029C00081152CE7920741F42091260330912703CB
:1029D000232B11F490E080E00895EEE8F2E090E01F
:1029E00080E06AE478E146ED57E123E637E177835A
:1029F000668351874087338722879787868701962A
:102A000070968830910599F70895CF92DF92EF92F2
:102A1000FF921F93CF93DF93CDB7DEB72A970FB600
:102A2000F894DEBF0FBECDBFE2E0F4E080E5DF0149
:102A30001D928A95E9F7E6E5F2E088E3DF011D9251
:102A40008A95E9F782E0C82E84E0D82E7F0110E055
:102A5000F701D182C082BE016F5F7F4F812F0E943C
:102A60002422892B79F488E0FE013196D601019069
:102A70000D928A95E1F789859A85D70113969C93E3
:102A80008E931297BAE0CB0ED11CE7E0EE0EF11C4C
:102A90001F5F1830E9F62A960FB6F894DEBF0FBE16
:102AA000CDBFDF91CF911F91FF90EF90DF90CF903E
:102AB00008950E94ED140E9405150895CF92DF92AB
:102AC000FF920F931F93CF93DF93CDB7DEB72A9773
:102AD0000FB6F894DEBF0FBECDBF8C01603269F532
:102AE000DC011196EC911197EE3038F5F0E0E959E0
:102AF000FA4C0C94853488E0ECE1F1E0DE011196AB
:102B000001900D928A95E1F780E2F80111928A9581
:102B1000E9F786E0D8018C9311961C9211971296D2
:102B20001C92129713961C92139788E0FE0131961F
:102B3000149601900D928A95E1F72A960FB6F894B3
:102B4000DEBF0FBECDBFDF91CF911F910F91FF90E0
:102B5000DF90CF90089588E2F801808381E081833F
:102B600012821382EACF13968C911397682F70E02C
:102B7000762F662712968C91860F972F911D092E1E
:102B8000000CAA0BBB0B45E0880F991FAA1FBB1FA7
:102B90004A95D1F7AC01BD01405E5F4F6F4F7F4F4B
:102BA000481759076A077B0740F28832E1E09E0721
:102BB000A105B10510F64932F1E05F076105710525
:102BC00020F048E251E060E070E0481B590BBC0186
:102BD000645F7E4FC8010E94C934AFCF40E250E02D
:102BE0006FEF70E00E94E83480912603D8018C9347
:102BF0008091240311968C93119712961C92129730
:102C000013961C92139781E014968C931497159643
:102C10008C9393CF81E090E09093250380932403DD
:102C200082E390E090932303809322030E94D92CA7
:102C3000909321038093200380CF8091240390916F
:102C40002503892B91F160E080E00E946813D82E63
:102C500061E081E00E946813F82E8091200390913A
:102C600021030E94F12C8536910550F1DD2041F1C0
:102C7000FF2031F10E94D92C9093210380932003EF
:102C800080912203909123030197909323038093D3
:102C90002203892B51F4109225031092240381E022
:102CA00090E0909327038093260380912603F801F8
:102CB00080838091240381838091220382833DCF8E
:102CC00082E390E09093230380932203EECF10924F
:102CD00027031092260331CF40E250E0BC01129648
:102CE0008D919C910E94C01A28CFBC016F5F7F4FCD
:102CF0004FE150E0FC01828193810E94F01AD801DB
:102D00008C931BCFBC016C5F7F4F4CE150E0FC010A
:102D1000828193810E940B1BF2CF0E94701A0DCF0B
:102D2000FC018281823009F447C0E0F48823D9F1A4
:102D3000813009F002CF13968C912AE0F22EFE0129
:102D400031966F01DF01EF2D1D92EA95E9F7B6018B
:102D50000E94FC21D8018D93F60101900D92FA9406
:102D6000E1F7EBCE833009F454C0843009F0E5CEAE
:102D70001396FC908AE03496DE01119601900D9234
:102D80008A95E1F789859A850E94E0149A87898758
:102D9000BE016F5F7F4F8F2D0E943822F801808324
:102DA0000E940515CACE80E21D928A95E9F788E057
:102DB000808381831282C1CE1396FC908AE0349680
:102DC000DE01119601900D928A95E1F789819A8131
:102DD0000E94E0149A8389838B819C810E94E01475
:102DE0009C838B838D819E810E94E0149E838D83C2
:102DF0008F8198850E94E01498878F83BE016F5F52
:102E00007F4F8F2D0E941022F80180830E94ED14C5
:102E100094CE13968C919AE0F92EFE0131966F01B3
:102E2000DF01EF2D1D92EA95E9F7B6010E942422F9
:102E300091CFA6E0B0E0EFE1F7E10C94A2349093DB
:102E4000530480935204811520E2920730F40E94CB
:102E500028032696E2E00C94BE3480EF89838A83AF
:102E60000E94D92C8160682F9C838B8349815A8171
:102E70007C8181E091E00E94C404EBCFA6E0B0E049
:102E8000E4E4F7E10C94A234909353048093520449
:102E9000811520E2920730F40E943E032696E2E07C
:102EA0000C94BE3480EF89838A830E94D92C816080
:102EB000682F9C838B8349815A817C8181E090E0DB
:102EC0000E94C404EBCF0F931F93CF93DF938C0129
:102ED000EB016EE073E08C2F0E94FC21892BA1F4A2
:102EE0008091720490917304019798F4DD27C85E75
:102EF000DC4F8881F80112821882833029F180F436
:102F0000813091F08230B9F0DF91CF911F910F9114
:102F10000895EFE9FFE03197F1F700C00000E4CF3A
:102F20008430B9F0853081F780910E0390910F03C2
:102F3000009751F306C08091100390911103009700
:102F400099F30E943E17E0CF8091120390911303F2
:102F5000F6CF8091140390911503009791F720917B
:102F60000E0330910F0380911003909111032115EE
:102F70003105F1F2009729F7C901E3CFCF93DF9331
:102F8000EC010E94191780917204909173040197CB
:102F900030F4CE010E943E17DF91CF910895EFE902
:102FA000FFE03197F1F700C00000F1CF0F931F93BE
:102FB000CF93DF938C01EB016EE073E08C2F0E94C6
:102FC000FC21892B09F05CC0FE01FF27D801129675
:102FD0008C911297E85EFC4F8130B9F415969C9164
:102FE00092FF02C080830AC090FFFCCF82E0808302
:102FF00080911003909111030097B9F480910E0312
:1030000090910F030097E1F110C08230B9F5159649
:103010008C9182FD28C080FD0BC083E0808380916D
:10302000120390911303009701F10E94191728C011
:1030300084E0808380911403909115030097A9F791
:1030400080910E0390910F030097F9F00E94BE1734
:103050008091100390911103009739F780910E032E
:1030600090910F03E2CF85E0808380910E039091D1
:103070000F03009729F00E94BE17F0CF86E08083EF
:10308000DF91CF911F910F9108958091100390913E
:103090001103B8CF0F931F93CF93DF938C01862F2B
:1030A0006EE073E00E94FC21892BB1F4C0910E0305
:1030B000D0910F03209781F0F8018281833051F481
:1030C000CE010E94BE17CE010E94BE17CE010E9403
:1030D000BE1702C08430D0F7DF91CF911F910F91BE
:1030E0000895AAE0B0E0E7E7F8E10C949E348C0183
:1030F0007B0197558F3F910509F070F4BE016F5F1A
:103100007F4F802F0E94FC21892B31F489859A857D
:103110002A96E6E00C94BA34B701C8010E943A1B23
:10312000F7CFCF93DF93FB012581211131C0EC0153
:10313000D755CF3FD10509F058F56EE073E08C2FDD
:103140000E94FC21892B21F5CE0124E0880F991FD4
:103150002A95E1F7FC01E257FD4F22812130E1F48D
:1031600020910E0330910F03232B91F02091100337
:1031700030911103232B61F020911203309113033E
:103180004091140350911503242B352B232B61F010
:1031900081E0DF91CF9108952230D1F72091120381
:1031A00030911303232BA1F3FC01ED56FD4F208139
:1031B0002E7F208382579D4F0E945828E9CFE4E557
:1031C000F4E0848195812AE030E0B9010E945D3409
:1031D00060930D01868180930C01828580930B01A1
:1031E000848580930A0186859785B9010E945D34A4
:1031F0006093090180898093080182898093070187
:103200008489809306010895B0E0A0E0EAE0F9E146
:103210000C949A348FEF9FEF4430510508F469C045
:103220004091F00341FB882780F990E0880F991FB7
:1032300042FB002700F910E0000F111F000F111FC3
:10324000802B912B40FBCC24C0F8D12C8C299D29BC
:1032500043FB222720F9C22FE0E0DE2F53E0CC0F02
:10326000DD1F5A95E1F78C2B9D2B44FBAA27A0F973
:10327000B0E0E4E0AA0FBB1FEA95E1F78A2B9B2B95
:1032800045FBEE27E0F9F0E0A5E0EE0FFF1FAA9561
:10329000E1F78E2B9F2B46FB222720F930E0B6E08A
:1032A000220F331FBA95E1F7822B932B47FB22277E
:1032B00020F930E03695322F222737952795822B3B
:1032C000932B2091F103322F3170F32EE82EF92A3F
:1032D00026952170B22EBB0CA82EBF28C501BB0CB1
:1032E000AA0BBB0BFB0180839183A283B38390E085
:1032F00080E0CDB7DEB7EAE00C94B634CF92DF922F
:10330000EF92FF928FEF9FEF4430510508F46AC0AF
:10331000FB01C080D180E280F3800E940006809192
:10332000F003C0FA80F9B701A60176956795579525
:10333000479540FB81F9B701A60122E07695679594
:10334000579547952A95D1F740FB82F9B701A60119
:1033500033E076956795579547953A95D1F740FBB9
:1033600083F9B701A601E4E07695679557954795EF
:10337000EA95D1F740FB84F9B701A601F5E076950F
:10338000679557954795FA95D1F740FB85F9B701B1
:10339000A601A6E07695679557954795AA95D1F72A
:1033A00040FB86F9B701A601B7E07695679557957A
:1033B0004795BA95D1F740FB87F98093F003809148
:1033C000F103D0FA80F9D1FACC24C0F8C0FA81F91F
:1033D0008093F1038091F0039091F1030E94A50F77
:1033E00090E080E0FF90EF90DF90CF900895809183
:1033F0005404909155040E94DF1C0895DB01FC01E8
:103400003296259134914217530758F0FC013496B7
:1034100065917491A901CD010E94DF3490E080E0B4
:1034200008958FEF9FEF08950F931F93CF93DF932E
:1034300004E514E0D0E0C0E0CE010E94EA21F801EA
:1034400061918F01861719F0CE010E94F421219617
:10345000C432D10589F7DF91CF911F910F91089563
:10346000DA019C012E5F3F4FF90145915491F9011A
:1034700025913491A217B30758F0FC013496859139
:1034800094910E94DF340E94141A90E080E0089525
:103490008FEF9FEF08950F931F93CF93DF9304E572
:1034A00014E0D0E0C0E0CE010E94EA21F80181934F
:1034B0008F012196C432D105B1F7CEE3D2E0FE01EF
:1034C00085919491009711F0FC0109952C96F3E0F9
:1034D000CA33DF07A1F7DF91CF911F910F910895B4
:1034E000E4E5F4E0128E138E8FEA90E091838083FE
:1034F00025E0248F88E893E1938382838AE090E03B
:103500009583848344E150E05783468348E050E04C
:1035100051874087938782876EE170E07587648763
:103520009787868780E590E0918B808B538B428BC9
:1035300048E250E0558B448B42E350E0578B468B7A
:1035400048EC50E0518F408F158E178E168E91A348
:1035500080A322A30E94141A0E9400061092F10375
:103560001092F003E1EFF3E080818460808380912A
:10357000F0039091F1030E94A50F0E944B1A089549
:10358000EF92FF920F931F93CF93DF937C01EB0198
:103590008A016FEF70E0CE010E94E83424E332E04C
:1035A000A0E3B3E090E080E0AC014E5F5F4F041712
:1035B000150788F0F90165917491E616F70630F465
:1035C0008C0F9D1FFC0171836083CA01245F3F4FF4
:1035D000A217B30749F7CDB7DEB7E6E00C94BA34CB
:1035E0009C0184E392E0FC01A591B4912A173B076A
:1035F00041F00C96E3E080339E07A9F78FEF9FEF31
:103600000895FC0136962591349121153105B1F3C9
:10361000F901099508950F931F93CF93DF93C4E3A6
:10362000D2E0FE01259134918217930741F02C9648
:1036300023E0C033D207A9F70FEF1FEF15C0FE013B
:1036400038962591349121153105B1F3CE01F90158
:1036500009958C01892B41F4FE013A96859194914C
:10366000009711F0FC010995C801DF91CF911F91DE
:103670000F91089580916C0490916D04089580914C
:10368000710481700895809171048695817091E034
:10369000892708958091710483FB882780F9089514
:1036A00080916A0490916B0408958832910538F4F2
:1036B0008E319105E8F40497A0F480E008958933F1
:1036C000910558F48D32910510F48B97B1F78091E4
:1036D0006F0482FB882780F908C084369105B9F30E
:1036E000ECCF80916F048295817091E089270895D5
:1036F00080916F0483FB882780F9F7CF80916F0456
:1037000085FB882780F9089580916F0486FB8827C0
:1037100080F9089580910201877F8093020182E001
:103720000E94510E8091020184FF06C08F7E80931B
:10373000020182E00E94380E8091020185FF06C0DE
:103740008F7D8093020180E20E94380E0E94160F46
:103750000895CF93DF93EC01662319F082E00E9475
:103760004B0ECE0190528115904308F4DD27CE0117
:103770000E942803DF91CF9108959C0130522115BA
:10378000304308F499270E943E030895FC0123E08A
:10379000F695E7952A95E1F7EE71FF27E85DFC4F76
:1037A00020813181AC014F70552781E090E002C04B
:1037B000880F991F4A95E2F7662329F0822B932BF5
:1037C0009183808308958095909582239323F8CFE9
:1037D000FC0123E0F695E7952A95E1F7EE71FF27C6
:1037E000E85DFC4F8F70992721E030E002C0220F86
:1037F000331F8A95E2F7808191812823392381E064
:10380000232B09F480E00895B0E0A0E0EAE0FCE1B9
:103810000C949D34EC017B01D42E8901809102012E
:1038200082FF83C020915103309152032C173D0732
:1038300019F0209709F079C0909102019B7F909335
:10384000020161E091FD10C08091530390915403F7
:10385000A701481B590B61E080910301909104017D
:103860004817590708F460E061708091020160FB1D
:1038700081F980930201C9010E94C61B0E94350E86
:1038800081FF08C08091020180618093020182E083
:103890000E943E0E0E94350E85FF08C080910201F5
:1038A00080628093020180E20E943E0E60910201DC
:1038B00066956170A80180915103909152030E9416
:1038C000A91BD11014C080917204909173040197C8
:1038D00028F56091020166956170A80180915103FD
:1038E000909152030E94BD1B0E948A1B2DC0B801FB
:1038F00080915103909152030E947E1B882319F3FB
:10390000B80180915103909152030E94841B811150
:10391000DACFCDB7DEB7E7E00C94B934EFE9FFE0DA
:103920003197F1F700C00000D2CFCE010E94E81B12
:10393000A801682FCE010E94BD1B80915103909178
:1039400052038C179D0781F2F0925403E0925303C7
:10395000E0CF80916F0480FF1EC08091020182FF42
:103960001AC00E94D92C2091530330915403AC010A
:10397000421B530B2091030130910401421753075E
:1039800050F028E433E041E0BC0180915103909174
:1039900052030E94041C089590910201892F8E7F8A
:1039A00090FF8160809302010E948A1B089580919C
:1039B00002018E7F809302010E948A1B08959093DA
:1039C0000401809303010895B0E0A0E0EAEEFCE179
:1039D0000C949C34EC017B0180916F0480FD07C046
:1039E00011E0812FCDB7DEB7E8E00C94B8340E9427
:1039F000D92C6C01F7018581882369F1809102013E
:103A000082FF08C028E433E040E0B60190E080E0A7
:103A10000E94041CC431FCE7DF07D1F0C5312CE75C
:103A2000D20751F0C3318CE7D80741F480910201ED
:103A300081608093020102C00E94CC1CCE01905292
:103A400081159043B0F41092520310925103C8CFE5
:103A50000E94D71CF3CF809102018F7EC13ED10519
:103A600031F0C53ED105B9F5809102018F7D80937B
:103A700002018091020180FFB3CFB701CE010E9405
:103A8000551BF7011581882309F4AFC0112309F4F0
:103A9000A5C00E94350E182F0E945B0E812B8D7FD2
:103AA00001F1109252031092510380916F0481FD35
:103AB00018C060E0CE010E94C61BA70160E0CE01E5
:103AC0000E94A91B0E945B0E8D7F0E94AE0E82E0B9
:103AD0000E94450F59C0CE0190528115904348F67F
:103AE0007FCF89E0F701A8E4B3E001900D928A95B9
:103AF000E1F710924B0310924A0380915103909189
:103B00005203C817D90709F04AC0B701CE010E9475
:103B10007E1B882309F443C08091020181FD36C0D9
:103B200080915303909154038601081B190BB70130
:103B300080915103909152030E9471180817190740
:103B400070F50E94350E81FF08C0809102018061EE
:103B50008093020182E00E943E0E0E94350E85FF96
:103B600008C08091020180628093020180E20E947D
:103B70003E0E6091020166956170A701809151032C
:103B8000909152030E94A91B10E02BCFB7018091A6
:103B90005103909152030E94841B8111C1CF0E9456
:103BA000350E182F0E945B0E812B9091020181FB34
:103BB00091F9909302010E945B0E8D7F0E94AE0EE0
:103BC000D0935203C0935103D0925403C092530335
:103BD0008091020184608093020179CF970140E0D7
:103BE000B601CE010E94041CFCCE11112CCFF8CEE0
:103BF0000E94830F089580E00E947E1381700895D3
:103C00000E944A142FEF86E791E0215080409040B7
:103C1000E1F700C000000E944A140E94FB1D8823A7
:103C200021F00E94F81D0E94242D08950E94001E7C
:103C300008950895EF92FF920F931F93CF93DF9310
:103C40008091C803882361F0E09155038DE0F82E40
:103C50008091C803E81748F01092C80310925503EA
:103C6000CDB7DEB7E6E00C94BA34EE24E394EE0E62
:103C7000E0925503CE2FD0E0EF9DF0011124E05AE1
:103C8000FC4F84818823B1F087819085892BA1F432
:103C9000818592858F3F980779F061E00E94191E17
:103CA000FC9EF001FD9EF00D1124E05AFC4F1482A1
:103CB0000E94580EEE2DCCCF0081118122813381DC
:103CC000448155816681778180850E94640DE8CFAB
:103CD00008951092CA031092C903E6E5F2E08581C7
:103CE000811102C014821682379682E0EE38F807FE
:103CF000B1F70895DC0160915E0380915F03962F18
:103D0000891301C00895292F30E0F901EE0FFF1F3C
:103D1000EA5AFC4F408151814A175B07A1F487E0C2
:103D20008A9FA0018B9F500D11244A5A5D4F81E05C
:103D3000FA0184839613E6CF2F5F3F4F237033271A
:103D400020935E0308952F5F3F4F922F9370D8CF3B
:103D50006F927F929F92AF92BF92CF92DF92EF923B
:103D6000FF920F931F93CF93DF93DB0114962C9157
:103D70001497211157C0A090C803E0E6F3E030E0AB
:103D800020E0B12C66246394712C2A1508F048C0F9
:103D9000C384D484ED90FC9011976FEF7FEF912C4A
:103DA000492D50E08A01000F111F0E0D1F1DE80163
:103DB000088119810115110531F0C016D10609F4E9
:103DC000BA019394EDCF6F3F7607D9F1E30102C0BA
:103DD000CC0FDD1F6A95E2F7BC2AB30102C0660F63
:103DE000771F9A94E2F7AB0141505109B4161506BA
:103DF00039F512964D915C9113976DE0629FF00139
:103E0000639FF00D1124E05AFC4F5087478324E054
:103E10002483108211829287818721E015962C934A
:103E20000E947A1EDF91CF911F910F91FF90EF902A
:103E3000DF90CF90BF90AF909F907F906F9008954C
:103E400014822F5F3F4F3D96A0CF1F93CF93DF93F8
:103E5000C0915E0317E080915F038C1308C00E943D
:103E60001A1E0E94691EDF91CF911F910895D0E024
:103E7000FE01EE0FFF1FEA5AFC4F80819181189FCF
:103E8000B001199F700D11246A5A7D4F0E94A81E1F
:103E90002196C370E0CF0F931F93CF93DF93DC0184
:103EA0002D913C91119740E090E080E0E82FF0E008
:103EB000EE0FFF1FE20FF31FC081D1812097B9F0F1
:103EC000FB010081118190E005C0CE17DF0709F4E6
:103ED00041E09F5FE92FF0E0EE0FFF1FE00FF11FC1
:103EE0000190F081E02D309781F78F5FDFCF442381
:103EF00049F0981708F4DB01CD01DF91CF911F91B4
:103F00000F910895B0E0A0E0F7CF809105018823DC
:103F100041F18091CB039091CC03009711F10E9465
:103F2000F12C2091C9033091CA0328173907C8F42E
:103F300090915E0380915F03981759F00E94251FAE
:103F40001092CA031092C9031092CC031092CB03B3
:103F500008950E941A1E1092CC031092CB030E9467
:103F6000691E08951092CC031092CB0310920501A4
:103F700080915F0380935E030E94691E0E941A1E57
:103F8000089580910501882319F00E94B21F0895B9
:103F900081E0809305010895ADE0B0E0E2EDFFE13E
:103FA0000C9492344C016B0180352CE7920761F43C
:103FB000FB0115811123E9F081E080930501812F38
:103FC0002D96E2E10C94AE348135FCE79F0739F47D
:103FD000FB011581112369F00E94B21FF0CF8235D9
:103FE0009C4739F4FB011581112319F00E94C11F70
:103FF000E6CF9091D2018091D301892B0E946A046F
:10400000182F0E94681E181731F0F6016081718127
:104010000E944D124C0166E5E62E62E0F62EB12CB0
:10402000A12C1D8666246394712CCE0101969B877A
:104030008A87F7012081318144244A94542C212C11
:10404000822D90E0FC01EE0FFF1FE20FF31F408175
:1040500051814115510531F08416950609F42C0162
:104060002394EECF312CFFEF4F165F0609F44CC0BE
:10407000F701448130900501832D411180E0F82F34
:10408000F1703F2EF6018581882309F4D6C03320D4
:1040900009F4D3C0B701C5010E94501B8C01F70180
:1040A0008581811114C09301042C01C0220F0A9450
:1040B000EAF78681822B86838091C9039091CA0397
:1040C0008017910720F41093CA030093C903C3011A
:1040D000022C02C0880F991F0A94E2F70197F7019A
:1040E00026812817190681F48091CB039091CC0387
:1040F000009709F44FC00E94F12C0817190708F027
:1041000049C021E0F7012483FD85F329FD872FEFC6
:10411000A21AB20A87E0E80EF11C98E0A916B104D1
:1041200009F087CFF6018581882309F4F1C0FD8568
:10413000FF2309F4EDC00E94D92C9093CC03809307
:10414000CB038091C803883008F591E0980F9093D5
:10415000C80399E0F601DE01119601900D929A953F
:10416000E1F72DE0829FC0011124805A9C4F29E085
:10417000FE013196DC0101900D922A95E1F72FEFB7
:104180003FEFFC01328721879486838611E0FD850D
:104190001F2715CF20905E0380915F038C8790E0EE
:1041A00080E02C85221216C08E159F0509F4ACCF35
:1041B000422C512CF201EE0FFF1FEA5AFC4FB18244
:1041C000A0828FEF481A580A93E049225524409262
:1041D0005F039ACF422C512CF201EE0FFF1FEA5AD7
:1041E000FC4F80819181E7E0E89F8001E99F100DFD
:1041F00011240A5A1D4FB701C8010E944B1F009796
:10420000A9F021E0FC0124838E159F0509F47CCFE1
:1042100020915E0322120AC08017910739F492019F
:104220002F5F3F4F2370332720935E03EFEF4E1A2B
:104230005E0AF42DF3702F2EB4CFF701F581FC87C1
:10424000F701868190E0FC85F11120C09301022CDA
:1042500002C0220F331F0A94E2F7215031092817B8
:10426000390731F4442309F451C0C5010E947A1E74
:10427000C301042C01C0880F0A94EAF7982F909587
:10428000F7018681892386833C843ECFAC01042CD0
:1042900002C0559547950A94E2F7BA0161707727F5
:1042A0009C012150310982239323892B59F5672BD7
:1042B00049F1F70182819381892BF9F0EA85FB8529
:1042C00027E011922A95E9F70E94D92C282F8B8399
:1042D0009C8384E08D83F70182819381782F888786
:1042E000998709811A813C8144E05E816F81892F21
:1042F0000E94640DF7011582BBCF60E0C5010E94EA
:10430000191EF8CFF42FF170FC87B2CF3C86B0CFE6
:1043100090915E0380915F03981719F00E94251F0A
:1043200035CF0E941A1E1092CC031092CB030E942C
:10433000691E2CCF84E0089550E0440F551F98E18A
:10434000699F400D511D112490E6899F400D511D1C
:104350001124CA01889608950F931F93CF93DF937A
:104360008430C8F46430B8F44C30A8F40E949C2126
:104370008C010E94FF34C82FD0E0DC2FCC27C8016D
:1043800001960E94FF349E01282BC901DF91CF9135
:104390001F910F91089590E080E0F8CF0F931F9345
:1043A000CF93DF93122F032F843078F4643068F4B6
:1043B0004C3058F40E949C21EC01602F0E941D3566
:1043C000612FCE0101960E941D35DF91CF911F9183
:1043D0000F9108958432910528F488559E4F0E94CC
:1043E000FF34089580E008958432910520F48855C3
:1043F0009E4F0E941D3508959B01883070F49AE00D
:10440000899FB001112464537E4F4AE050E0C901F6
:104410000E94EF3490E080E008958FEF9FEF0895C1
:104420009B01883070F49AE0899FB0011124645395
:104430007E4F4AE050E0C9010E94413590E080E0A3
:1044400008958FEF9FEF08959B01883070F49AE0F4
:10445000899FB0011124645E7D4F4AE050E0C9019C
:104460000E94EF3490E080E008958FEF9FEF089571
:104470009B01883070F49AE0899FB0011124645E3A
:104480007D4F4AE050E0C9010E94413590E080E054
:1044900008958FEF9FEF0895A4E1B0E0E2E5F2E226
:1044A0000C949C34C0902603D090270381E090E0C8
:1044B000909327038093260300E010E012C04F2D55
:1044C000612F802F0E94D6029C014F2D612F802FDB
:1044D0000E94CE21F3948CE0F812F1CF1F5F1430CC
:1044E00011F0F12CECCF0F5F043039F70E94701AF5
:1044F0001C861B861E861D86188A1F861A8A198AA4
:1045000088EC90E09C8B8B8B10E0BE01655F7F4F49
:10451000812F0E9410221F5F1830B9F7FE013196DB
:104520007F018AE011928A95E9F710E0B701812FA7
:104530000E9438221F5F1830C9F7D0922703C0921B
:1045400026036496E8E00C94B834EF92FF920F9340
:104550001F93CF93DF93EC018A017C01E60EF71ED7
:10456000CE018896CE15DF0529F4CDB7DEB7E6E09B
:104570000C94BA34C03821E0D20740F40E94FF34D2
:10458000F80180830F5F1F4F2196EACFF801108258
:10459000F9CFB0E0A0E0EFECF2E20C949434EC013F
:1045A0007B018A0180389140D8F480E891E08C1B2F
:1045B0009D0B86179707A0F03E0138E2630E711C31
:1045C00080912603909127032E01460E571E892BBA
:1045D00061F07E01C7018896E414F50409F043C038
:1045E000CDB7DEB7E0E10C94B0346E0181E0C822B3
:1045F000DD24C0FF0FC0CE0187960E94FF34F80172
:10460000908189279827892781159C4719F48FEF76
:10461000F8018083570140FE13C0F1E0AF1AB108E2
:1046200048018A0C9B1CC3018E0D9F1D0E94FF3404
:10463000F401908181159C4719F48FEFF401808378
:10464000F801EC0DFD1D2FEFCA14DB0410F690816C
:10465000818181159C4711F42083218382E0C80E5B
:10466000D11C3296F1CFE0E8EE16E1E0FE0640F410
:10467000F701EC1BFD0BE00FF11F60810E941D355F
:10468000FFEFEF1AFF0AA6CF843038F4643028F425
:104690004C3018F40E94AC21089590E080E0089519
:1046A00080E1089584E991E00895EF92FF920F93DD
:1046B0001F93CF93DF93EC018A017C01E60EF71E76
:1046C000CE0184599D4FCE15DF0529F4CDB7DEB755
:1046D000E6E00C94BA34C43921E0D20740F40E94D9
:1046E000FF34F80180830F5F1F4F2196E9CFF80157
:1046F0001082F9CFB0E0A0E0E0E8F3E20C949C3443
:104700007C016A018C01060F171FEC01CE01845950
:104710009D4FC017D10729F4CDB7DEB7E8E00C9460
:10472000B834C43921E0D20740F4FE01EE19FF0984
:10473000EC0DFD1D60810E941D352196E7CFCF93C2
:10474000DF93CCE6D2E060E0CE010E941D352196D9
:10475000C11584E0D807B9F7DF91CF910895A4E09F
:10476000B0E0E5EBF3E20C949534F82E2FE0281737
:1047700008F4B1C08FEF93E00E94FF348111ABC009
:104780000CE612E0F11039C034E0C32ECE010196E0
:104790005C0155245A94F5012C2D11922A95E9F7C4
:1047A00078014FEFE41AF40AC8010E94FF348983AC
:1047B000882309F490C0813009F088C0480152E094
:1047C000850E911CC7010E94FF34D82E8A8388234E
:1047D00009F481C08FEF8D0D8330E8F4780183E018
:1047E000E80EF11CC4010E94FF348B83882319F06A
:1047F000C5010E9435288701CECF011544E014077A
:1048000009F469C0C8010E94FF34811101C0FA9403
:104810000F5F1F4FB7CF8BEF8D0D833060F53801E1
:1048200093E0690E711CC4010E94FF348B837301F5
:10483000882309F37801E4E0EE0EF11CC3010E9425
:10484000FF348C838823B9F28B819C818130FFEF08
:104850009F0710F0982F882726E0D21631F047E006
:10486000D41631F00E94BE17C6CF0E941917C3CFCD
:104870000E943E17C0CF54E07401D512BCCFC401D2
:104880000E94FF34D82E780184E0E80EF11CC801A4
:1048900003960E94FF34DD20F1F08823E1F0E82F39
:1048A000E150FF0B5E9EC0015F9E900D11244D2DC7
:1048B0004150550B840F951F019708F49CCFEFE9E9
:1048C000FFE03197F1F700C00000F6CF60E0C501CE
:1048D0000E94CA2790CF2496EFE00C94B134282F81
:1048E00035EB2303C001112497FF04C080589109C0
:1048F000892F089580589F4FFBCF8091D3036091FB
:104900005C0470915D0480FF16C020910B01269F0E
:10491000C001279F900D1124BC017695679576956F
:1049200067956038710508F043C06115710509F499
:1049300041C0862F089581FF0BC020910B01269F57
:10494000C001279F900D1124BC0176956795E9CF92
:1049500082FF09C080910B019B01829FB001839F60
:10496000700D1124DECF2091D2032223D1F2909139
:104970000A0180910B01482F50E0291748F0CB0124
:10498000849FB001859F700D949F700D1124C9CF35
:10499000289F90011124269FA001279F500D369F2C
:1049A000500D1124692F70E0CA010E945D34B9CF07
:1049B0008FE7089581E008958091D30380FF0CC0B4
:1049C0006091070170E0759567957595679561151C
:1049D000710549F1862F089581FF06C06091070196
:1049E00070E075956795F3CF6091070182FD0BC06C
:1049F0009091D1039923A1F0609106018091070164
:104A0000961738F0682F70E06038710500F38FE773
:104A10000895899FC001112470E00E947134F4CF81
:104A200061E070E0D7CF81E008959091D6032091A6
:104A3000D703922B2091D903922B2091D803922B4C
:104A400031F098E09093D20391E09093D1038D3CA4
:104A500031F40E947D2481958093D70308958E3C84
:104A600019F40E947D24F8CF8F3C31F40E947D24FC
:104A700081958093D6030895803D19F40E947D248A
:104A8000F8CF893D29F40E94DC248093D80308954F
:104A90008A3D21F40E94DC248195F7CF8B3D31F4CF
:104AA0000E94DC2481958093D90308958C3D19F4EC
:104AB0000E94DC24F8CF9FE2980F983070F4815D5B
:104AC000990B21E030E001C0220F8A95EAF780912E
:104AD000D503822B8093D50308958D3D31F48091C9
:104AE000D30381608093D30308958E3D21F4809198
:104AF000D3038260F7CF8F3DB9F78091D3038460F1
:104B0000F1CF4091D6038D3C59F48091D70387FFB4
:104B10000DC01092D70341110BC01092D20308C0F0
:104B20008E3C81F48091D70318169CF3442381F0C6
:104B30008091D8039091D903892B09F05AC0109223
:104B4000D10308958F3C49F447FFF0CF1092D6036C
:104B50008091D7038111ECCFE0CF803D19F414167A
:104B6000ACF3E4CF9091D803893D29F41916F4F6FB
:104B70001092D803DBCF8A3D19F497FFD7CFF8CF37
:104B80009091D9038B3D29F497FFD0CF1092D90390
:104B9000CDCF8C3D19F41916CCF3C8CF9FE2980FF6
:104BA000983090F4815D990B21E030E0B90102C0AA
:104BB000660F771F8A95E2F7CB0180959091D50318
:104BC00089238093D503B2CF8D3D31F48091D303F7
:104BD0008E7F8093D303AACF8E3D21F48091D3039F
:104BE0008D7FF7CF8F3D09F0A1CF8091D3038B7FCD
:104BF000F0CF08950E94D92C9C019091D60380910A
:104C0000D703982B21F03093D0032093CF039091BA
:104C1000D8038091D903982B21F03093CE032093B1
:104C2000CD0384ED93E00E94432B089586E0E4EDEC
:104C3000F3E0DF011D928A95E9F71092D2031092FA
:104C4000D1031092D3030895FC01828181110EC01B
:104C5000838181110BC08481811108C091E085811D
:104C6000811101C090E0892F8170089581E0FCCF0F
:104C7000A6E0B0E0EEE3F6E20C94A13486E0E4EDC9
:104C8000F3E0DE01119601900D928A95E1F7109202
:104C9000D6031092D7031092D8031092D9038B81B8
:104CA0009C81892B89F08091CF039091D0030E9441
:104CB000F12CAC019091D2039923C9F180910C01A0
:104CC0008417150608F440C08D819E81892B91F0D0
:104CD0008091CD039091CE030E94F12CAC01909174
:104CE000D103992309F46AC080910801841715063D
:104CF00008F472C0BE016F5F7F4F84ED93E00E94A5
:104D0000062C811105C084ED93E00E9424268111B8
:104D10000E94FA2586E0FE013196A4EDB3E00190F1
:104D20000D928A95E1F72696E3E00C94BD3420912C
:104D30000D018AE0289F900111242417350720F6E1
:104D40009F5F9093D20302C09F3FD1F71B81112335
:104D500059F00E947D249FEF11160CF491E0899F79
:104D6000802D11248093D6031C81112359F00E94B9
:104D70007D249FEF11160CF491E0899F802D112462
:104D80008093D7038091D603882309F49DCF109197
:104D9000D703112309F498CF0E946F24882351F080
:104DA0008093D603812F0E946F24882329F080935B
:104DB000D7038ACF81E0F4CF81E0F9CF20910901B8
:104DC0008AE0289F900111242417350708F092CF1C
:104DD0009F5F9093D10302C09F3FD1F71D811123A4
:104DE00059F00E94DC249FEF11160CF491E0899F8A
:104DF000802D11248093D8031E81112359F00E9425
:104E0000DC249FEF11160CF491E0899F802D112472
:104E10008093D9038091D803882309F46BCF109134
:104E2000D903112309F466CF0E946F24882351F01F
:104E30008093D803812F0E946F24882329F08093C8
:104E4000D90358CF81E0F4CF81E0F9CFB0E0A0E002
:104E5000ECE2F7E20C949B34E82FF0E0E05DFC4FCD
:104E6000B490282F26952695269530E0F901E05339
:104E7000FC4F0491877010E0082E02C0159507952D
:104E80000A94E2F701701127F901E054FC4FE49015
:104E9000F12C082E02C0F594E7940A94E2F791E011
:104EA000E922FF24F901E055FC4FC491D0E002C093
:104EB000D595C7958A95E2F7C170DD27C62ED12C0E
:104EC0000115110549F5E114F10431F086EE0E9457
:104ED0002D05C601009771F5B6018B2D0E94A9051D
:104EE000C601009779F5E114F104A1F5011511054A
:104EF00031F081EE0E947605C6010097C9F5CD2BF1
:104F000031F08CE20E94C105C114D104C9F5CDB7BE
:104F1000DEB7E9E00C94B73481EE0E942D05C6019E
:104F2000009789F2EFE9FFE03197F1F700C0000048
:104F30000197F6CFEFE9FFE03197F1F700C00000ED
:104F40000197C8CFEFE9FFE03197F1F700C000000B
:104F50000197C7CF86EE0E947605C601009731F211
:104F6000EFE9FFE03197F1F700C000000197F6CFBD
:104F7000EFE9FFE03197F1F700C000000197BDCFE6
:104F80008FE99FE00197F1F700C0000091E0C91A96
:104F9000D108BACFEF92FF920F931F93CF93DF9375
:104FA000EC01162F0AE08881882309F459C081306A
:104FB00009F052C08981813071F47E0182E0E80EEF
:104FC000F11C8A810E94C105E701812F90E00097C2
:104FD000D9F52196E8CF823041F47E01E2E0EE0E71
:104FE000F11C8A810E942D05EFCF833041F47E01B0
:104FF000F2E0EF0EF11C8A810E947605E5CF843045
:1050000011F02196E2CF2A81229690E080E0AE0155
:105010004F5F5F4F2053330B2A30310550F000971C
:10502000A1F2EFE9FFE03197F1F700C0000001972E
:10503000F6CF089FB001099F700D1124C901860F9A
:10504000971F2981EA01E3CFEFE9FFE03197F1F7FC
:1050500000C000000197BBCF612F0E942627B9CF67
:10506000CDB7DEB7E6E00C94BA3460E00E94CA2700
:1050700008954115510511F0FA0109950895CF934E
:10508000DF93EC014A855B856E857F850E94392818
:105090008B810E94510E8C810E943E0E0E94160F41
:1050A00086E0FE0111928A95E9F7DF91CF9108958C
:1050B000CF93DF93EC018D8181FD11C082608D83E0
:1050C0008B810E944B0E8C810E94380E0E94160F1D
:1050D000488559856E857F85CE010E9439281092BA
:1050E000DD031092DC038D8180FD03C0CE010E94A0
:1050F0003F28DF91CF910895CF93FB01C581CC2349
:10510000F1F0E091DC03F091DD033097D9F0E8177E
:10511000F907C1F0FF2724E0EE0FFF1F2A95E1F702
:10512000DF01AD56BD4F2C9124602C93E257FD4F0B
:1051300091838083CF010E9458280E94580E8C2FA3
:10514000CF910895C0E0FBCF0F931F93CF93DF93D0
:105150008C0197558F3F910509F0C8F5C801992733
:1051600024E0880F991F2A95E1F7EC01C257DD4F23
:10517000FB012581FC01ED56FD4F808120FB80F96C
:105180008083222351F10E94D92C9093DB038093DA
:10519000DA038A818F5F8A830E94350E8B830E9497
:1051A000480E9B81892B8B830E945B0E8C834E81E2
:1051B0005F816E857F85CE010E9439288D8181FFB8
:1051C00002C010E000E01093DD030093DC0381E0F7
:1051D000DF91CF911F910F9108954C855D856E856C
:1051E0007F85CE010E9439288D8181FFF0CFCE01CD
:1051F0000E943F288091DC039091DD038017910786
:1052000031F71092DD031092DC03E1CFA9E0B0E0AA
:10521000ECE0F9E20C94A0348091DC039091DD0382
:10522000892B61F18091DA039091DB030E94F12CCC
:105230008C01BE016F5F7F4F89E0FB0111928A955F
:10524000E9F78091DC039091DD030E9471188017CB
:105250009107A0F48091DC039091DD03992724E06D
:10526000880F991F2A95E1F7FC01ED56FD4F20812B
:1052700022FD04C082579D4F0E9458282996E4E0E1
:105280000C94BC341F93CF93DF9387372CE792079E
:1052900059F0C1E088379C47E1F4FB01C581CC237C
:1052A00071F10E94852906C0FB01C581CC23B1F0B4
:1052B0000E9482290E9417090E948829D82F0E94E3
:1052C0008529C82F0E9482294D2F6C2F0E943F0AEA
:1052D000C0E08C2FDF91CF911F9108950E94822909
:1052E0000E9423090E948829182F0E948529D82FFF
:1052F0000E948229412F6D2F0E943F0AEACF0E940F
:105300008529EECF80911001089580910F010895B5
:1053100080910E01089584E290E00E94FF34883E5F
:1053200089F485E290E00E94FF34803C59F486E2E3
:1053300090E00E94FF3491E0863A09F090E0892FD6
:105340008170089580E0FCCFCF93C82F6FEF81115B
:1053500068EE84E290E00E941D356FEFC11160ECB1
:1053600085E290E00E941D356FEFC11166EA86E28A
:1053700090E00E941D35CF910895089587E290E056
:105380000E94FF34682F70E090E080E00895089557
:10539000CF93C62F0E94C7296C2F87E290E00E940E
:1053A0001D35CF91089580E00E94A42960E070E04F
:1053B000CB010E94C8290E944C220E949F2381E0B9
:1053C0000E94A42908950E94BD290E94BE290E941E
:1053D000C7290E948B29811102C00E94D3290895F8
:1053E0009C01FB018581882351F0A9015757403862
:1053F000510530F4822F0E94AF2380E0089581E0B0
:1054000008952FEFFC0120830895EF92FF920F93F0
:105410001F93CF93DF93EC01162F888120912403F3
:1054200030912503232B79F08E3F09F05CC08981F0
:10543000833020F08550833008F055C0612FCE01B5
:105440000E945E1550C08B3009F4EAC0D0F484305D
:1054500009F488C060F4823009F44EC008F075C0C9
:105460008130F1F1612FCE010E94012A3CC08630CB
:1054700009F48EC008F481C08A30A0F78FEF8883CA
:1054800032C0803109F4A4C000F58D3009F487C022
:1054900008F481C08E3009F48AC08F3019F78091EA
:1054A000260390912703892BF1F06B8170E06D3119
:1054B0007105C8F489819A81AE014C5F5F4F9827CE
:1054C000892798270E947A230EC0823109F486C06A
:1054D00008F481C0833109F492C08E3F19F6AECF33
:1054E000198289E08A83612FCE010E948A2DCDB76F
:1054F000DEB7E6E00C94BA348981823071F08330F3
:1055000079F0813009F0AECF0E94E52C0E948B34F7
:105510006A837B838C839D83E6CF0E94BE29F6CF6E
:105520008091260390912703892BE9F27E0100E008
:10553000802F0E947E13F701928383830F5FF2E036
:10554000EF0EF11C0430A1F7CECF8981823009F033
:1055500089CF6A817B818C819D810E948B340E94DE
:10556000C829C1CF4B816A8189810E94AC219827CB
:10557000892798279D838C83B6CF2C813D81322744
:10558000232732274B816A8189810E94CE21ABCFAC
:105590000E944C22A8CF0E9450238983A4CF0E944E
:1055A00052239827892798279A8389839CCF6B81D8
:1055B00070E06D31710508F096CF89819A81AE0156
:1055C0004C5F5F4F9827892798270E9455238BCFE0
:1055D0000E949F2388CF0E949A21DFCF6B8170E0C9
:1055E0006D31710508F07FCF89819A81AE014C5FE2
:1055F0005F4F9827892798270E94A52274CF6B8137
:1056000070E06D31710508F06ECF89819A81AE012D
:105610004C5F5F4F9827892798270E94C92263CF44
:105620008091260390912703892B09F45CCFCE014A
:105630000E948A2D2FEF81EE94E02150804090400F
:10564000E1F700C000000E94242D4DCF9093E303AA
:105650008093E2030895E091E203F091E303309731
:1056600029F00190F081E02D0995089580E00895DA
:10567000E091E203F091E303309721F00280F3819F
:10568000E02D09950895E091E203F091E30330974E
:1056900039F022E0DC012C930680F781E02D09959A
:1056A0000895A3E0B0E0E7E5FBE20C94A23420917A
:1056B000E0033091E10328173907A1F09093E1034B
:1056C0008093E003E091E203F091E303309751F01F
:1056D00023E029839B838A830084F185E02DCE011A
:1056E000019609952396E2E00C94BE34A3E0B0E065
:1056F000ECE7FBE20C94A2342091DE033091DF034F
:1057000028173907A1F09093DF038093DE03E0911F
:10571000E203F091E303309751F024E029839B8367
:105720008A830084F185E02DCE01019609952396A8
:10573000E2E00C94BE3440910001509101019A01C5
:105740002E5F3F4F485F5F4F80E02417350709F415
:105750000895F90191919F019923B9F38F5FF5CFD6
:10576000882371F02091000130910101F9013296F6
:10577000285F3F4F9191981729F0E217F307D1F76F
:1057800080E0089581E008959C01FC0132969FEF2E
:1057900080E04191461751F09F3F19F4411101C03B
:1057A000982F8F5F8630A9F79F3F09F40895290F3E
:1057B000311D97FD3A95F90162830895FC013296F7
:1057C00008962191261303C0DF0111971C92E81758
:1057D000F907B9F70895682F8091000190910101B0
:1057E0000E94C42B0895682F8091000190910101BF
:1057F0000E94DE2B0895E0910001F09101013296A4
:1058000086E0DF011D928A95E9F70895DC01FB012E
:1058100011969C9111978181981322C012968C91B8
:105820001297882319F0928189131AC013968C91CC
:105830001397882319F09381891312C015968C91C0
:105840001597882319F0958189130AC014969C91A5
:10585000992321F081E02481291303C080E001C055
:1058600081E08170089508950E94332C089581117C
:1058700006C081E08093E4030E94342C089582E006
:10588000F9CF83E08093E4030E94342C08950E94B2
:10589000372C089581E08093E4030E94342C08950E
:1058A0000E944A2C0895089508950E94542C08954A
:1058B000089508950E94532C0895CF930E94582C68
:1058C0000E944A140E94592CC0E08C2F0E947E1323
:1058D000892B31F4CF5FC430C1F780E0CF910895B8
:1058E00081E0FCCF85B7806885BF85B7806885BFBC
:1058F00008951F921FB61F9211248F939F93AF9309
:10590000BF938091E503811113C080917804909139
:105910007904A0917A04B0917B044196A11DB11D38
:105920008093780490937904A0937A04B0937B04D5
:10593000BF91AF919F918F911F901FBE1F9018959F
:1059400080918004843031F10E9460041092E5035C
:1059500088E190E020E40FB6F894A8958093600069
:105960000FBE2093600083B7817F846083BF83B7BD
:10597000816083BF7894889583B78E7F83BF0FB68D
:10598000F894A895809160008861809360001092DF
:1059900060000FBE08950E9400060E9465040895ED
:1059A00082E084BD93E095BD9AEF97BD80936E0031
:1059B00008952FB7F8948091780490917904A0917C
:1059C0007A04B0917B042FBF08952FB7F8946091AB
:1059D00078047091790480917A0490917B042FBFB0
:1059E00008959C014FB7F8948091780490917904C0
:1059F000A0917A04B0917B044FBF821B930B089552
:105A000078941F921FB61F9211248F939F93AF9388
:105A1000BF938091780490917904A0917A04B09119
:105A20007B040196A11DB11D8093780490937904A5
:105A3000A0937A04B0937B04BF91AF919F918F9113
:105A40001F901FBE1F90189587E797E79093010856
:105A50008093000888E19AE00FB6F894A8958093A7
:105A600060000FBE90936000FFCF88E19AE00FB610
:105A7000F894A895809360000FBE90936000FFCFCC
:105A80008091EE03089508959B01BA0190918004DE
:105A90009430E9F48F708093E9009FEF8091E800E3
:105AA000915085FD06C085ED8A95F1F700009111B2
:105AB000F5CF8091E80085FF0AC050E040E0C901C1
:105AC0000E94872F8091E8008E778093E8000895E8
:105AD00043E050E0BC0184E00E94442D089546E07C
