:100000000C94E4010C9401020C9401020C94010282
:100010000C9401020C9401020C9401020C94010254
:100020000C9401020C9401020C94A2200C947621F1
:100030000C94311B0C9401020C9401020C940102EB
:100040000C9401020C9401020C9401020C94010224
:100050000C9401020C94B81B0C9401020C94010244
:100060000C9401020C9401020C9401020C94010204
:100070000C9401020C9401020C9401020C940102F4
:100080000C9401020C9401020C9401020C940102E4
:100090000C9401020C9401020C9401020C940102D4
:1000A0000C9401020C9401020C9401020000140053
:1000B0001A000800150017001C0018000C001200A0
:1000C00013002A002B0004001600070009000A0094
:1000D0000B000D000E000F002D002800E1001D0098
:1000E0001B00060019000500110010003600370043
:1000F0005200E100E000E300E2002C002C002C00A4
:1001000000002C00500051004F00000000000000D3
:1001100000000000000000000000000000000000DF
:1001200000000000000000000000000000000000CF
:1001300000000000000000000000000000000000BF
:1001400000000000000000000000000000000000AF
:10015000000000000000000000000000000000009F
:10016000000000000000000000000000000000008F
:10017000000000002A2B2800000000000000000002
:100180000000000000000029000000002C1E3420A8
:10019000212224342627252E362D3738271E1F20CE
:1001A0002122232425263333362E37381F04050613
:1001B0000708090A0B0C0D0E0F1011121314151657
:1001C0001718191A1B1C1D2F3130232D3504050655
:1001D0000708090A0B0C0D0E0F1011121314151637
:1001E0001718191A1B1C1D2F3130354C0000000048
:1001F00000000000000000000000000000000000FF
:1002000000000000000000000000000000000000EE
:100210007E0F00D4FFFFFFC70000007810036300CB
:100220006F006F006C0034003400350000000A03DA
:100230006D002E006B006900000004030904090230
:100240005B00030100A0FA090400000103010100A2
:100250000921110100012244000705810308000162
:10026000090401000203000000092111010001221C
:100270002200070582032000010705030320000177
:1002800009040200010300000009211101000122FC
:10029000B6000705840320000112010002000000DF
:1002A00008434D45040001010200010660FF096199
:1002B000A1010962150026FF009520750881020939
:1002C00063150026FF00952075089102C0050109FD
:1002D00002A10185020901A10005091901290815DA
:1002E00000250195087501810205010930093115C4
:1002F00081257F95027508810609381581257F952E
:100300000175088106050C0A38021581257F9501C3
:1003100075088106C0C005010980A1018503190186
:100320002AB700150126B700950175108100C00598
:100330000C0901A101850419012AA002150126A0BA
:1003400002950175108100C005010906A10185060D
:10035000050719E029E715002501950875018102B7
:100360000507190029EF1500250195F07501810297
:100370000508190129059505750191029501750377
:100380009101C005010906A101050719E029E7153A
:100390000025019508750181029501750881010507
:1003A00007190029FF150026FF0095067508810032
:1003B000050819012905150025019505750191020A
:1003C000950175039101C00011241FBECFEFDAE043
:1003D000DEBFCDBF11E0A0E0B1E0EAE8F8E402C082
:1003E00005900D92AC3AB107D9F722E0ACEAB1E042
:1003F00001C01D92AC3EB207E1F70E943D110C9482
:10040000F1230C940000811112C0683080F44C304C
:1004100070F4E42FF0E08CE0689FE00DF11D1124F2
:10042000EE0FFF1FE455FF4F85919491089581E0F1
:1004300090E0089581E008950E941A02089581E0F5
:1004400008950E941A0208950E94210208950895B5
:100450000E9427020895A6E0B0E0E1E3F2E00C94E8
:100460004D2349835A839E833091B30189819A81B8
:1004700031111AC03E81332399F0222389F00E9462
:100480009607182F682F89819A810E9472076981C7
:100490007A81812F0E94A50E2696E3E00C946923B1
:1004A0000E948407182FF3CF0E94960769817A81F2
:1004B000F1CFFC01262F40815181628173818481BB
:1004C00095810E942B020895CF93DF93EC0161E0A8
:1004D0000E945902BE010E941C02DF91CF91089533
:1004E000CF93DF93EC0160E00E945902BE010E94AD
:1004F0002802DF91CF91089508950E946E060E9410
:100500007C022FEF84E39CE0215080409040E1F793
:1005100000C0000008950E947D020E94DC1B089527
:100520000E947D020E94ED1B08950F931F93CF93AD
:10053000DF938C0161E00E945902EC01B8010E9436
:100540003914811106C080E0DF91CF911F910F9186
:100550000895B801CE010E9424028823A1F3B801B6
:10056000CE010E94EB18882371F3B801CE010E94DE
:100570002015882341F3B801CE010E945D1888231D
:1005800011F3B801CE010E942F198823E1F2F8017E
:100590008581882361F0C330FCE7DF07E9F058F478
:1005A000C115ECE7DE07A9F0C130DC47B9F0C8019E
:1005B0000E941F02C9CFCB358CE7D807A9F0CC35F4
:1005C000ECE7DE0771F0CA35DC4789F70E94EE0BD5
:1005D000EECF0E948B02B7CF0E94F60B0E949002D2
:1005E000B2CF0E94E40BE3CF0E94F20BE0CF0E9457
:1005F0000D1B0E941E0308950E9422030E94121BDD
:100600000895089581E008950895CF93DF93D82F3A
:100610000E940203C82F882319F08D2F0E94040323
:100620008C2FDF91CF9108950895CF93C82F0E940A
:1006300001038C2F0E940503CF91089580E00E9452
:10064000150308950E947D190E9415030895CF9304
:100650000E947D19C82F8091AE018C1779F0C0934C
:10066000AE010E949D1B6093AF017093B001809317
:10067000B1019093B2018C2F0E941503CF91089580
:10068000ADE0B0E0E6E4F3E00C944E2348875987F0
:100690006A877B878C879D8791110E941C0B1F8224
:1006A00086E0FE013896DE01119601900D928A9542
:1006B000E1F78D8181110DC029813A814B815C81E7
:1006C0006D817E818F810E944F0A2D96E2E00C940D
:1006D0006A23CE0101960E9464028111EDCFF5CF0D
:1006E000FC012481213021F4808191810E94C30783
:1006F0000895662329F00E94D4110E94A71208953C
:100700000E942E12FACFCF93C82F8823B9F08CEF16
:100710008C0F813AA8F46C2F809100019091010117
:100720000E94101A882329F08C2F0E94DC0A0E9454
:10073000550B8C2F0E94D40A0E94550BCF9108951F
:1007400080E28C0F883048F4C77081E001C0880FC8
:10075000CA95EAF70E94FF0AEFCFEBE5EC0FE33012
:1007600040F4F0E0E45BFE4F808190E00E94B2191B
:10077000E5CFE8E5EC0FEB3150F4F0E0EE0FFF1FB2
:10078000EA5EFE4F808191810E94D719D7CF83E323
:100790008C0F833198F661E08C2F0E947903CECFC5
:1007A000882381F19CEF980F913A28F40E94DC0A8B
:1007B0000E94550B089590E2980F983050F487707E
:1007C00091E001C0990F8A95EAF7892F0E94050BE5
:1007D000EFCF9BE5980F933028F490E080E00E94E3
:1007E000B219089598E5980F9B3128F490E080E0C5
:1007F0000E94D719089593E3980F933118F460E09D
:100800000E94790308951F93CF93DF93182FEB0174
:100810000E948303209739F4812F0E94D003DF9137
:10082000CF911F9108958FE99FE00197F1F700C0E4
:1008300000002197EFCF70E060E0893311F460E5AC
:1008400070E00E9403040895882321F00E94FF0AAB
:100850000E94550B0895882321F00E94050B0E94E9
:10086000550B0895B0E0A0E0E8E3F4E00C944723D2
:100870006C01D62FC72FFC011581068102950F70E0
:100880000E94F50AE82E8823E9F0E12E1123D1F029
:100890008C2F807F803451F080E28D0F8830F8F00B
:1008A000011104C08C2F807E8032C9F08091BA0281
:1008B00082FF15C082E00E94B80B0E94F50A91E009
:1008C000E82EE926BC2EB2949FE0B922FBE0FB158E
:1008D000B8F1EB2DF0E0ED50FC4D0C943123E12C00
:1008E000F1CF0C2F0F70C07F11F00295007F112304
:1008F00099F0002359F080E28D0F883010F0D1116B
:1009000007C0802F0E94FF0A0E94550B8D2F5AC0EE
:10091000802F0E940F0BF8CF8D2F0E94D003002351
:1009200079F080E28D0F883010F0D11104C0802F53
:100930000E94050B03C0802F0E94150B0E94550BCF
:10094000EB2DE850FF0B349720F40E947D190E9494
:100950001503EE2089F00E94F10A80FD0DC0F6011A
:1009600015820E94EB0A0E94E606C6010E94350627
:100970000E94EB0A0E94F206CDB7DEB7E9E00C94C4
:1009800063232C2F2F70F22EC07FC03219F0F29407
:1009900080EFF822DD2341F0D130D1F1112309F4A9
:1009A00044C00023F1F0B2CF8091BA0282FD15C09D
:1009B000112359F0FF2029F08F2D0E94FF0A0E9479
:1009C000550B80E00E948303BBCF80E00E94D003E0
:1009D000FF2009F4B5CF8F2DABCF112369F00111A2
:1009E00004C08F2D0E942404ABCF013009F0A8CFA2
:1009F0008F2D0E94330BA4CF0111A2CF8F2D0E9407
:100A00002B048F2D0E943F0B8F2D0E94230B98CF1C
:100A1000112321F0063008F093CFE3CF053008F022
:100A20008FCF8F2D0E942B048BCF0023D1F3D9338E
:100A300049F43FEF87EE93E0315080409040E1F77A
:100A400000C000008D2F0E94D0037ACF8C2F869596
:100A50008695837069F0813009F072CF8D2F9C2FBD
:100A60009370111102C080E090E00E94D71968CF06
:100A70008D2F9C2F9370111102C080E090E00E9496
:100A8000B2195ECF612F8D2F0E94790359CF8C2F21
:100A9000837079F5111154CF4D2F429546954770CB
:100AA000440F440F8D2F8F70042E01C0880F0A94BD
:100AB000EAF72D2F2071D4FF07C02FE030E001C0EE
:100AC000220F4A95EAF72095C695C695C370822BEA
:100AD000C23049F058F4C13019F00E94C20630CF3C
:100AE0000E94BC062DCF0E94C8062ACF0E94B906DC
:100AF00027CF8695112311F08C2F8170882309F45C
:100B00001FCF4D2F429546954770440F440F8D2FB0
:100B10008F70042E01C0880F0A94EAF72D2F2071E0
:100B2000D4FF07C02FE030E001C0220F4A95EAF75A
:100B30002095C695C695C370822BC23049F058F4F3
:100B4000C13019F00E941107FBCE0E940B07F8CEAE
:100B50000E941707F5CE0E94D406F2CECF70112363
:100B600029F08C2F0E94E6068D2F3CCF8D2F0E94FE
:100B70002B048C2F0E94F206E3CED23F41F160F4A9
:100B8000D03FB9F0D13F81F0112309F446C00111E3
:100B9000BDCE8C2F8F711FC0D33F01F1D43FA1F781
:100BA0008091BA0282FD24C08C2F8F71112311F322
:100BB00012C0112341F0053008F0C2CE8C2F8F7186
:100BC0000E94FF06BDCE063008F0BACEF7CF8C2FBC
:100BD0008F711111CFCF0E94E606B2CE112329F0FA
:100BE0008C2F8F710E94DD06ABCE0E94D906A8CE55
:100BF000112349F0CF718C2F0E94E60663E08C2F01
:100C00000E949A0B9DCE81E00E94B80B023008F43E
:100C100097CE82E00E94B80B93CE002359F0D933CF
:100C200009F010CFEFEFF7EE23E0E150F040204065
:100C3000E1F706CF8C2F8F719DCF0F931F93CF932A
:100C4000DF93EC01688179818D810E94CE078C0150
:100C50000E941D070E94B806B801CE010E9432040E
:100C6000DF91CF911F910F910895CF93DF93EC0106
:100C70008C81882399F0CE010E949502811111C0C8
:100C80000E94F50A882351F08D81882339F08091E4
:100C9000BA0282FF03C082E00E94B80BDF91CF91BD
:100CA0000895CE010E941D06CE010E947002F6CF6B
:100CB00090E080E00E94B21990E080E00E94D71995
:100CC0000E941C0B0E94550B0E94C3120E94A71287
:100CD00008950E94E40A0E94580608950E940C0B91
:100CE0000E946906089592959F70963091F058F48D
:100CF000925F9F70923058F4803F19F030F4883E34
:100D000030F481E008959A5FF4CF843FD1F380E01E
:100D10000895883EB0F3813FD1F7F3CFFC012481E1
:100D2000222339F0808191810E94C3070E947306BB
:100D3000089580E00895A6E0B0E0E1EAF6E00C94C2
:100D40004E232696E2E00C946A23A7E0B0E0EBEA9B
:100D5000F6E00C944E232796E2E00C946A23089563
:100D60000E94AF0608950E94B0068093D9010895AD
:100D700008950E94B30608959091D901892B0E948D
:100D8000B30608959091D90189230E94B30608956E
:100D90009091D90189270E94B30608950E94AF0659
:100DA00008950E94CE0608950E94D1068093D8012E
:100DB000089580E00E94D406089591E001C0990F43
:100DC0008A95EAF7892F0E94D406089521E030E041
:100DD00001C0220F8A95EAF78091D801822B0E94E8
:100DE000D406089521E030E001C0220F8A95EAF789
:100DF00020958091D80182230E94D406089521E095
:100E000030E001C0220F8A95EAF78091D80182274D
:100E10000E94D40608959091D801892B0E94D4068F
:100E200008959091D80189230E94D4060895909145
:100E3000D80189270E94D40608950895262F277087
:100E400091E001C0990F2A95EAF723E0769567951E
:100E50002A95E1F7FB01EE0FFF1FE60FF71FE40FE6
:100E6000F51F50E040E0682F70E08191DF0111979D
:100E70009B01042E02C0369527950A94E2F7217053
:100E800021952827292328272C934F5F5F4F433034
:100E9000510559F70895A82FA77023E096958795D7
:100EA0002A95E1F7FC01EE0FFF1FE80FF91FE60F8F
:100EB000F71F50E040E080E0219130E00A2E02C0B0
:100EC000369527950A94E2F721703327042E01C046
:100ED000220F0A94EAF7822B4F5F5F4F4330510590
:100EE00059F70895262F983070F48C3060F4682FED
:100EF00070E08CE0989F600D711D112444EB51E06F
:100F0000822F0E941E070895292F983068F48C3094
:100F100058F490E064EB71E03CE0239F800D911D5C
:100F200011240E944B07089580E00895CF92DF922C
:100F3000FF920F931F93CF93DF936C010091D80121
:100F40008091D901082BC3E0D0E010E0FC2EC8014D
:100F50000C2E02C0959587950A94E2F780FD0CC08F
:100F60002197A0F7F12C8F2DDF91CF911F910F9139
:100F7000FF90DF90CF900895B6018C2F0E94B10EA4
:100F8000019771F3F0CFCF93DF93EC010E949607A6
:100F9000BE010E94B10EDF91CF9108951F93CF93B0
:100FA000DF93EB019091B301992339F0CB010E94BB
:100FB000C307DF91CF911F910895882369F0CB017A
:100FC0000E949607182F682FCE010E947207BE015B
:100FD000812F0E94B10EEDCFCB010E948407182F04
:100FE000F6CFE1E0F0E0DF0102C0AA0FBB1F6A9577
:100FF000E2F7BD01DF0102C0AA0FBB1F4A95E2F76D
:101000006A2B01C0EE0F2A95EAF7962F98239613C4
:1010100002C08E2B0895E0958E230895242F462F2D
:10102000682F8091D8010E94F1070E94D40608958C
:101030001F93CF93DF93C091DA0117E08091DB011A
:101040008C1304C0DF91CF911F910895D0E01C9FB5
:10105000F0011D9FF00D1124E452FE4F20813181DB
:10106000428153816481758186810E94A506219603
:10107000C770E4CF209114023091150240911602FE
:1010800050911702609118027091190280911A0212
:101090000E94A5060895CF93DF9380911A02807F66
:1010A00009F04DC080911902882309F448C0E091ED
:1010B000DA015091DB01C0911502D09114026091C8
:1010C00016027091170247E05E17C9F18E2F90E06B
:1010D000E49FF0011124E452FE4F2481222391F178
:1010E000489FF001499FF00D1124DF01A452BE4F2B
:1010F00011962C9111972C1325C02C912D1322C0E1
:1011000015962C91159721111DC012962D913C9189
:10111000261B370B283C3105A8F480911A028F70EA
:10112000806180931A02EE51FE4F80818F70806142
:10113000808384E192E00E9435060E941808DF91C6
:10114000CF910895FC013196E770BECF482F2091D2
:10115000DA019091DB0157E0291302C080E0089585
:1011600030E0529FF001539FF00D1124E452FE4FE6
:101170008181681306C08081481303C08581811175
:10118000EECF2F5F3F4F2770E7CFA4E1B0E0EBEC4D
:10119000F8E00C9444238C0186E0F801DE011F96F0
:1011A00001900D928A95E1F7F8018481E58094E140
:1011B000A92E92E0B92E9091180291111FC0882398
:1011C000D1F0EE20A9F0C8010E948E06F82E8823E7
:1011D00079F087E0F801D50101900D928A95E1F749
:1011E000C5010E9470030E944B080E943A085FC02C
:1011F000C8010E943506FF24F39459C0C080D180F5
:1012000082809380F090190220911602309117028B
:10121000A401421B530BFF2009F4F9C0483C5105BF
:1012200008F0A7C0882309F442C09091150280916C
:101230001A02282F207F09F05CC09D1116C09091E2
:101240001402C91212C0E1104EC08F7080618093E9
:101250001A020E943A0884E192E00E9435068091C9
:101260001A02F8018683F12C22C0E1103CC06D2DDA
:101270008C2D0E94A6086D2D8C2D0E94A608E82EAC
:101280008111F1CFCF86D88A8F8598890E94C307B4
:10129000292F22952F70243078F49F702230A8F0E7
:1012A0009923B9F0F8019681907F99F4FE2C8F2D47
:1012B0006496ECE00C9460232A5F2F70223068F073
:1012C000C8010E943506EF2CF1CF992311F0882335
:1012D00069F3805E883050F3F3CF803F38F3815F4D
:1012E000833070F7E3CF80911A02816080931A02F5
:1012F000BACF9D1113C090911402C9120FC0E11012
:101300000DC08683C8010E94350687E0F801A4E17C
:10131000B2E001900D928A95E1F767CFC8010E9473
:101320008E06882309F464CFEE2009F461CF809102
:101330001A02803288F02091140230911502398708
:1013400028879B868A86909118029C871D868E87A7
:10135000CE0108960E94350687E0F801A4E1B2E0CC
:1013600001900D928A95E1F70E944B080E943A087D
:1013700042CF90911A02292F207FA1F4682D9A8ADA
:10138000898AA6017A899E2D0E949B0684E192E0BB
:101390000E94350687E0F50111928A95E9F70E94CF
:1013A0003A0861CF882309F482CF809115028D110C
:1013B00010C080911402C8120CC0E1100AC09683BC
:1013C000C8010E94350687E0F50111928A95E9F778
:1013D0006ECFC8010E948E06882309F409CFEE2043
:1013E00009F406CF80911A02803208F4B5CF20911B
:1013F0001402309115023A8329839C828B8290914A
:1014000018029D831E828F83CE010196A3CF483C94
:101410005105B8F5882309F4EECEFE2CEE2009F430
:10142000E7CE809115028D111EC080911402C81262
:101430001AC080911A0280FD0DC0982F907F51F044
:101440008683903F09F45ECF982F907F905F8F70D6
:10145000892B57CF87E0F801A4E1B2E001900D920B
:101460008A95E1F724CFC8010E948E06811174CFBE
:1014700080911A02816080931A02C8010E94350689
:1014800016CF682D9A8A898AA6017A899E2D0E9494
:101490009B0687E0F50111928A95E9F7A6CEAEE0AA
:1014A000B0E0E5E5FAE00C944D23288739874A87B8
:1014B0005B876C877D878E87CE0108960E94C50862
:1014C0008823B1F06C85662341F0288539854A85EB
:1014D0005B857D858E850E94A50617E08091DA01E7
:1014E0009091DB0189133DC02E96E3E00C946923B3
:1014F00087E0FE013896DE01119601900D928A95E3
:10150000E1F78C85882349F32091DB0130E0C901A4
:101510000196877099274091DA014817190699F0CA
:1015200097E0929FD001939FB00D1124A452BE4F1B
:10153000FE01319601900D929A95E1F78093DB01BF
:101540000E941808CACF0E946E061092DB0110920A
:10155000DA0187E0E4E1F2E0DF011D928A95E9F724
:10156000BCCF819FC001112484529E4F0E94C508A8
:10157000882309F4B9CFE091DA011E9FF00111240C
:10158000E452FE4F20813181428153816481758113
:1015900086810E94A5068091DA0190E0019687700D
:1015A00099278093DA019ACF682F8091000190915A
:1015B00001010E94901A0895682F80910001909176
:1015C00001010E949E1A08958091000190910101ED
:1015D0000E94AC1A089580913B0286958695869567
:1015E000089580913B028770089590913B02977017
:1015F00081E009F480E0089580915F020895909160
:101600005F02892B80935F020895809590915F021D
:10161000982390935F02089510925F02089590912D
:101620005E02892B80935E020895809590915E0200
:10163000982390935E02089510925E020895089593
:101640000E941F0B089590913C02292F282331F00E
:101650008095892380933C020E94200B0895089571
:101660000E942F0B089590913D02292F28232817BF
:1016700029F0982B90933D020E94300B0895909191
:101680003D02292F282331F08095892380933D0244
:101690000E94300B089580913D02882329F010921A
:1016A0003D0280E00E94300B0895CF93DF93E091DC
:1016B0000001F091010180915F028083E0910001BF
:1016C000F0910101808190915E02892B808390913D
:1016D0003D02992381F0E0910001F09101018081A8
:1016E000892B808380910001909101010E94FC1957
:1016F00081110E944B0BC0910001D091010140E289
:1017000050E06BE172E0CE010E948923892B59F0F1
:1017100080E2FE01ABE1B2E001900D928A95E1F723
:10172000CE010E948A19DF91CF91089508950E94F9
:10173000960B08959091BA0292FF11C098E0899F8C
:1017400090011124622B60933B020E94E606809177
:101750003B028695869586950E94970B08950E9478
:10176000E606089510923B0280E00E94970B0895D0
:1017700090913B028095892380933B02282F27700C
:1017800069F4891759F09091BA0292FF07C08695C3
:10179000869586950E94F2060E94B20B089590915C
:1017A000BA0292FB222720F9281769F080FB92F9F0
:1017B0009093BA028091B9029091BA020E94180CDB
:1017C00082E00E94B80B08958091BA0282FB8827BC
:1017D00080F991E089270E94CF0B089581E00E9453
:1017E000CF0B089580E00E94CF0B08956FEF7FEF3D
:1017F00090E080E00E94DB23089590E080E00E946A
:10180000A723863E9E4F19F40E94D313089580E0CB
:10181000089582E090E00E949F23089583E090E085
:101820000E949F23089584E090E00E94A7230895DA
:10183000BC0184E090E00E94DB230895AB01BC0171
:101840008FE090E00E94CF230895AB01BC0183E1BB
:1018500090E00E94CF23089560E070E0CB010E94E9
:10186000250C089560E070E0CB010E941E0C0E94E0
:101870002C0C0895A8E0B0E0E0E4FCE00C944E23CA
:1018800066EE7EEF90E080E00E94DB2360E082E085
:1018900090E00E94BD2360E083E090E00E94BD23C1
:1018A0001092D90160E074E184E090E00E94DB23B3
:1018B00060E086E090E00E94BD236FEF87E090E05B
:1018C0000E94BD2340E050E0BA0188E090E00E9411
:1018D000CF2360E084E290E00E94BD2360E087E1D6
:1018E00090E00E94BD2360E08CE090E00E94BD2368
:1018F00060E08DE090E00E94BD2319821A821B8275
:101900001C821D821E821F82188648E050E068E11A
:1019100070E0CE0101960E94AD2340E050E0BA0194
:1019200080E290E00E94CF2380E00E94EC130E94AE
:101930001B140E94320C2896E2E00C946A230E9449
:101940003A0C0895682F8EE090E00E94BD23089520
:10195000A6E0B0E0EEEAFCE00C944C230E94911B60
:101960008C0180916002909161028017910781F053
:1019700019821A820E94911B682F49815A81792FFE
:1019800080E090E00E9440031093610200936002A7
:101990002696E4E00C9468230E949D1B60937602D7
:1019A0007093770280937802909379026093720229
:1019B0007093730280937402909375020895089552
:1019C00008950E94DF0C089508950E94E40C089584
:1019D00087EA9FE00E944A110E94E00C0E94E10CFD
:1019E000089581E008950E94F10C08950E94F10C81
:1019F0000895089508950E94F90C0E94FA0C089524
:101A00000E94C60F0E94140308950E94881B0E9422
:101A10002B140E949E100E94000D0E94E50C089558
:101A2000A6E0B0E0E6E1FDE00C9442230E94F30C56
:101A300081110AC00E94A80C0E94E5120E9427038F
:101A40002696EEE00C945E230E94B41022E6822ECD
:101A500022E0922E640110E0F601E190F1906F0116
:101A6000812F0E94E90F1F5F183009F44BC0E81660
:101A7000F90691F380917A0281FD0E94F20F0E9493
:101A8000F60C782E10E066246394812F0E94E90FF3
:101A90007C01F401A190B1904F018A159B0561F181
:101AA000A826BF2400E0CC24C394D12CC5018C21EE
:101AB0009D21892BC1F07720B1F009831A830E9400
:101AC000911B9C838B836D8221E0C7018C219D211A
:101AD000892B09F420E049815A816B817C818D81B9
:101AE000922F0E9440030F5FCC0CDD1C0C30F1F6EE
:101AF000F4013297F182E0821F5F183031F60E94C4
:101B0000CC0C9ACFE816F90609F0B4CF93CF1F9307
:101B1000CF93DF930E94B60EEC01C11580E5D80784
:101B2000F0F5C11580E4D80708F09CC0C03ED1058F
:101B300020F5CD3CD10508F082C0C83AD10578F433
:101B4000C53AD10508F073C0C130D10519F120970D
:101B500009F1C430D105F0F4D0E0C0E01BC0C33CB3
:101B6000D105D0F7C85AD0E0CC0FDD1FC15BDE4FE6
:101B70000990D881C02DD4640DC0C11580E2D8076A
:101B800008F0D1C0C11581E0D80708F05AC0C83E9E
:101B9000D10510F7CE01DF91CF911F910895C03686
:101BA00082E5D80718F5C03482E5D80708F06BC085
:101BB000C03282E5D80708F05FC0C11582E5D807BA
:101BC00008F497C02C2F2695269580E2289F900137
:101BD00011248C2F8370C1E0D0E002C0CC0FDD1F38
:101BE0008A95E2F7C22BD32BDD68D4CFC03A82E5C9
:101BF000D80760F4C03882E5D80708F459C0CF711F
:101C0000D0E0DC2FCC27C46FD06AC4CFC03C82E5C3
:101C1000D80708F462C0C03E82E5D80708F09CCF20
:101C2000DC2FCC27CC27DF71C06FD06AB3CFC55A69
:101C3000D0E0CB57DE4FC881D0E0D064ABCFD065C9
:101C4000A9CF8D2F0E94580F182FCE0199270E94DF
:101C5000B60EC12FD0E0DC2FCC27CC27DF71C82BEC
:101C6000D92B98CFCE0199270E94B60ECC27DF70D2
:101C7000C82BD92BD06A8ECFCF71D0E0DC2FCC27E8
:101C8000C16FD06A87CF2C2F26952695277080E2CA
:101C9000289F900111248C2F8370C1E0D0E002C0F6
:101CA000CC0FDD1F8A95E2F7C22BD32BDC6872CFF5
:101CB0002C2F26952695277080E2289F90011124CD
:101CC0008C2F8370C1E0D0E002C0CC0FDD1F8A955D
:101CD000E2F7C22BD32BDA685DCF8C2F8F710E9475
:101CE000580FC82FD0E0DC2FCC27CC27DF71D06273
:101CF00051CF8C2F8F710E94580F55E0D695C79504
:101D00005A95E1F7CF70D0E0DC2FCC27282F30E0B8
:101D100084FF05C044E0220F331F4A95E1F7C22B30
:101D2000D32BD06937CF8D2F8F710E94580F182F6A
:101D3000CE0199270E94B60EC12FD0E0DC2FCC2710
:101D4000CC27DF71C82BD92BD2CF462F783030F477
:101D50006C3020F4672F0E947717089590E080E0A0
:101D600008950E94A50E0E94870D0895823891055E
:101D7000B9F1B0F48133910509F47DC048F489329A
:101D8000910509F46DC08A32910509F47BC008956C
:101D90008533910509F45FC08933910509F10895F0
:101DA000833E9105D9F138F4803E910529F1823EB8
:101DB000910579F10895863E9105D9F1873E910507
:101DC00009F43EC0843E910541F52091BA0221FFFD
:101DD00024C08091B90284FD19C087EE90E0089577
:101DE0002091B902237009F05AC02091BA0223FF52
:101DF00014C089E290E008952091B90220FD38C016
:101E00003091BA0230FF09C024FF43C090E080E067
:101E100008952091B90222FDF7CF08952091B902CB
:101E200022FD3AC03091BA0230FD39C024FFF5CF0F
:101E3000EDCF2091B90223FFF0CF24FDE7CFCDCF26
:101E40002091B90223FD2EC03091BA0231FFEECFAE
:101E500084EE90E008952091B90225FFDECFC9CF2E
:101E60002091B90225FD21C02091BA0223FFD5CFD0
:101E700089E390E0D2CF2091B90226FFCECF8AE24B
:101E800090E008952091B90226FFC7CF81E390E04A
:101E9000089583EE90E0089582EE90E0089580EE3C
:101EA00090E0089586EE90E0089585E390E008952F
:101EB0009091B90292FF10C041E0282F2471243084
:101EC00009F040E031E0282F2871283009F030E097
:101ED000431711F02CE0822793FF10C041E0282F18
:101EE0002471243109F040E031E0282F2871283195
:101EF00009F030E0431711F02CE082273091BA024C
:101F000030FF10C051E0282F2171213009F050E03E
:101F100041E0282F2871283009F040E0541711F0D3
:101F200029E0822731FF10C041E0282F21712131A3
:101F300009F040E031E0282F2871283109F030E025
:101F4000431711F029E0822794FD877E089580E0F1
:101F500008950E94F60B08950E94B4102FEF86E7B3
:101F600091E0215080409040E1F700C000000E94C5
:101F7000B41080E00E94E90F80FF04C00E94A90F06
:101F80000E94DC1B08950E94AC0F08950E94FD0B77
:101F9000811102C00E949F0C0E94090C80937A025A
:101FA0000E94130C9093BA028093B9020E94C30F4F
:101FB0000E940E0C0E94B9068091D8010E94D106A1
:101FC000089508950E94E10F089508950E94E50F75
:101FD0000895E82FF0E0EE0FFF1FE553FD4F8081DD
:101FE00091810895089580EA8A95F1F7089500C0D7
:101FF00008950E94F30F0895F894E82FE295EF708A
:10200000F0E031A1282F2F7081E090E001C0880F0F
:102010002A95EAF7982F9095932391A392A1892B63
:1020200082A378940895CF93DF93C4E9D1E0899196
:102030008F3F11F00E94FC0F81E0CC39D807B9F72F
:10204000C8E8D1E089918F3F11F00E94FC0F81E038
:10205000C439D807B9F7DF91CF910895AF92BF92F5
:10206000DF92EF92FF920F931F93CF93DF938C0138
:10207000D62EC62FD0E0CE018C569E4F7C01FC019F
:1020800020812F3F09F44DC0F894E22FE295EF70C4
:10209000F0E031A12F7081E090E001C0880F2A9517
:1020A000EAF7932F982B91A392A18095892382A37D
:1020B00078940E94F70FE8E8F1E044E951E021E06C
:1020C00030E0B12CA12C61916F3FA9F1A62FA29510
:1020D000AF70B0E090968C9190E06F7002C09595D3
:1020E00087956A95E2F780FD26C0C901A82AB92A1A
:1020F000220F331F4E175F0731F7F70180818F3FA3
:1021000011F00E94FC0F61E0A114B10409F460E039
:102110008D2D0E94F90FCC0FDD1FC00FD11FB9828A
:10212000A882DF91CF911F910F91FF90EF90DF90E8
:10213000BF90AF90089590E080E0D8CF0E94131038
:1021400080E1EBECF2E0DF01982F1D929A95E9F720
:10215000EBEBF2E0DF011D928A95E9F788E00E943F
:10216000EF100E94E20F0895A0E1B0E0EAEBF0E189
:102170000C944B238E010F5F1F4F80E1F8011192E9
:102180008A95E9F7F12C6F2DC8010E942E10F39467
:10219000F8E0FF12F8CF40E150E0B8018BEB92E09D
:1021A0000E94892321E0009709F420E0892B41F067
:1021B00080E1F801ABEBB2E001900D928A95E1F776
:1021C00048E06BEC72E08BEB92E00E94F010182F6D
:1021D0000E94E60F812F6096E5E00C946723089536
:1021E000CF92DF92EF92FF921F93CF93DF936C0118
:1021F0007B01C42F222349F081E080937D020E945D
:10220000911B90937C0280937B0210917D021111AF
:102210000AC010E0812FDF91CF911F91FF90EF90C6
:10222000DF90CF90089580917B0290917C020E9474
:10223000A91B059770F3D0E0CC0FDD1FAE01B601EE
:10224000C7010E948923892B41F0AE01B601C70165
:102250000E94962310927D02DDCF10E0FBCF0E94FA
:10226000771D0E94050D0E94841D08950E94891DFE
:102270000E94100D0E94A31D08950E942A1B0E9417
:102280005D1D0E94E80C0E942F110E9436110E94D1
:10229000FB0CFBCF9093AD018093AC010895282FE8
:1022A00035EB2303C001112497FF04C08058910926
:1022B000892F089580589F4FFBCF8091840280FF23
:1022C0000DC06091070170E0660F771F60387105DF
:1022D00070F56115710569F1862F089581FF07C0BA
:1022E0006091070184E0689FB0011124EFCF6091F5
:1022F000070182FD0AC0809183028823A9F0209102
:10230000060160910701821710F088E0ECCF869FEC
:10231000C001112433E0880F991F3A95E1F7622F2D
:1023200070E00E941D23D2CF68E070E0D5CF8FE728
:10233000089581E008958091840280FF0CC060912F
:10234000030170E075956795759567956115710541
:1023500049F1862F089581FF06C06091030170E066
:1023600075956795F3CF6091030182FD0BC0909145
:1023700082029923A1F060910201809103019617D6
:1023800038F0682F70E06038710500F38FE708952A
:10239000899FC001112470E00E941D23F4CF61E0E9
:1023A00070E0D7CF81E008958D3C31F40E945D113B
:1023B00081958093880208958E3C19F40E945D11E6
:1023C000F8CF8F3C31F40E945D1181958093870294
:1023D0000895803D19F40E945D11F8CF893D29F4DC
:1023E0000E949B118093890208958A3D21F40E94E6
:1023F0009B118195F7CF8B3D31F40E949B11819504
:1024000080938A0208958C3D19F40E949B11F8CFA5
:102410009FE2980F983070F4815D990B21E030E0D5
:1024200001C0220F8A95EAF780918602822B809361
:10243000860208958D3D31F48091840281608093FD
:10244000840208958E3D21F4809184028260F7CF4A
:102450008F3DB9F7809184028460F1CF409187026B
:102460008D3C59F48091880287FF0DC0109288023C
:1024700041110BC01092830208C08E3C81F4809100
:10248000880218169CF3442381F080918902909170
:102490008A02892B09F05AC01092820208958F3C5B
:1024A00049F447FFF0CF1092870280918802811192
:1024B000ECCFE0CF803D19F41416ACF3E4CF90914B
:1024C0008902893D29F41916F4F610928902DBCFAE
:1024D0008A3D19F497FFD7CFF8CF90918A028B3DB0
:1024E00029F497FFD0CF10928A02CDCF8C3D19F4FA
:1024F0001916CCF3C8CF9FE2980F983090F4815D05
:10250000990B21E030E0B90102C0660F771F8A9570
:10251000E2F7CB0180959091860289238093860211
:10252000B2CF8D3D31F4809184028E7F80938402FE
:10253000AACF8E3D21F4809184028D7FF7CF8F3D0D
:1025400009F0A1CF809184028B7FF0CF08950E9483
:10255000911B9C019091870280918802982B21F019
:1025600030938102209380029091890280918A02A7
:10257000982B21F030937F0220937E0285E892E031
:102580000E94A419089586E0E5E8F2E0DF011D92BB
:102590008A95E9F7109283021092820210928402C7
:1025A0000895FC01828181110EC0838181110BC0CD
:1025B0008481811108C091E08581811101C090E082
:1025C000892F8170089581E0FCCFA6E0B0E0EBEEAA
:1025D000F2E10C944D2386E0E5E8F2E0DE0111968D
:1025E00001900D928A95E1F710928702109288026D
:1025F0001092890210928A028B819C81892B89F02A
:1026000080918002909181020E94A91BAC0190915F
:1026100083029923C9F1809108018417150608F4F3
:1026200040C08D819E81892B91F080917E02909196
:102630007F020E94A91BAC0190918202992309F4A8
:102640006AC0809104018417150608F472C0BE01A7
:102650006F5F7F4F85E892E00E94BE1A811105C02E
:1026600085E892E00E94D11281110E94A71286E0B3
:10267000FE013196A5E8B2E001900D928A95E1F74E
:102680002696E3E00C946923209109018AE0289FB3
:10269000900111242417350720F69F5F9093830241
:1026A00002C09F3FD1F71B81112359F00E945D1199
:1026B0009FEF11160CF491E0899F802D11248093D7
:1026C00087021C81112359F00E945D119FEF1116A2
:1026D0000CF491E0899F802D1124809388028091D1
:1026E0008702882309F49DCF10918802112309F4F1
:1026F00098CF0E944F11882351F080938702812F39
:102700000E944F11882329F0809388028ACF81E0AC
:10271000F4CF81E0F9CF209105018AE0289F900154
:1027200011242417350708F092CF9F5F90938202FF
:1027300002C09F3FD1F71D81112359F00E949B11C8
:102740009FEF11160CF491E0899F802D1124809346
:1027500089021E81112359F00E949B119FEF1116CF
:102760000CF491E0899F802D112480938A0280913E
:102770008902882309F46BCF10918A02112309F48E
:1027800066CF0E944F11882351F080938902812FD8
:102790000E944F11882329F080938A0258CF81E04C
:1027A000F4CF81E0F9CF85E290E00E949F2383324D
:1027B00089F486E290E00E949F23803159F487E2F9
:1027C00090E00E949F2391E0893009F090E0892FEA
:1027D0008170089580E0FCCFCF93C82F6FEF8111F7
:1027E00063E285E290E00E94BD236FEFC11160E1DA
:1027F00086E290E00E94BD236FEFC11169E087E29D
:1028000090E00E94BD23CF910895089588E290E062
:102810000E949F23682F70E090E080E00895089563
:10282000CF93C62F0E940F146C2F88E290E00E9475
:10283000BD23CF91089580E00E94EC1360E070E02A
:10284000CB010E9410140E940F170E94D01781E044
:102850000E94EC1308950E9405140E9406140E9421
:102860000F140E94D313811102C00E941B140895FB
:1028700008959C01FB018581882351F0A9015757D8
:102880004038510530F4822F0E94E01780E008950F
:1028900081E008952FEFFC01208308950E944A14DF
:1028A000089580E00895B0E0A0E0E9E5F4E10C943B
:1028B0004823EC01C62E0E945114811110C0E881FA
:1028C000E150E331B8F4F0E0E150FC4D0C943123D9
:1028D00019828CE08A836C2DCE010E94511CCDB7E9
:1028E000DEB7E8E00C94642389818230C1F028F4DB
:1028F000813061F08FEF8883EECF833099F08430A0
:10290000C9F71A821B821C821D82E5CF0E949D1B83
:102910000E9437236A837B838C839D83DCCF0E9454
:102920000614F6CF8A81082F10E07E019EE0D92E92
:10293000D80E0830110578F6802F0E94E90FF701B4
:10294000938384830F5F1F4FF2E0EF0EF11CD012D0
:10295000F0CFC1CF8981823031F0853059F68A813C
:102960000E943814B8CF6A817B818C819D810E943E
:1029700037230E941014AFCF4B816A8189810E9456
:10298000D1169827892798279D838C83A4CF2C81E3
:102990003D813227232732274B816A8189810E941A
:1029A000F31699CF0E940F1796CF6C2DCE010E947F
:1029B0004E1491CF0E94831789838DCF0E94851773
:1029C0009827892798279A83898385CF6B8170E020
:1029D00089819A81AE014C5F5F4F9827892798279C
:1029E0000E94881778CF6B8170E089819A81AE014F
:1029F0004C5F5F4F9827892798270E94AC176BCFB1
:102A00000E94D01768CF0E94BF16D6CF6B8170E0AE
:102A100089819A81AE014C5F5F4F9827892798275B
:102A20000E942F1758CF6B8170E089819A81AE0187
:102A30004C5F5F4F9827892798270E9453174BCFE9
:102A4000CF93DF93EC01FB018581882309F4D2C089
:102A50009E0130572332310508F0B2C00E94130C9A
:102A60009093BA028093B902FE01E150F047E2323E
:102A7000F10520F4EE5EFB4D0C9431238091B902F8
:102A800081608093B90293C08091BA02886080937C
:102A9000BA028DC08091B9028260F3CF8091B902F1
:102AA0008460EFCF8091B9028860EBCF8091BA0249
:102AB0008160EDCF8091BA028260E9CF8091B90246
:102AC0008061DFCF8091B9028062DBCF8091B90253
:102AD0008064D7CF0E946E068091B9028068D1CF02
:102AE0008091B9028C60CDCF8091BA028360CFCF44
:102AF0008091B9028E7FC5CF8091BA02877FC7CF00
:102B00008091B9028D7FBDCF8091B9028B7FB9CF03
:102B10008091B902877FB5CF8091BA028E7FB7CFFF
:102B20008091BA028D7FB3CF8091B9028F7EA9CFF9
:102B30008091B9028F7DA5CF8091B9028F7BA1CF03
:102B40000E946E068091B9028F779BCF8091B90267
:102B5000837F97CF8091BA028C7F99CF8091B90201
:102B600082FB992790F921E0922790FB82F990FB54
:102B700083F987CF8091BA02982F909591708E7FBC
:102B8000892B90FB81F983CF9091B902892F8F7B9C
:102B900096FF806476CF0E946E069091B902892FCD
:102BA00097FB87F980586DCF81E00E94A20C80913D
:102BB000B9029091BA020E94180C0E946E0680E041
:102BC000DF91CF91089580E0F0CF9091B902892FE5
:102BD0008F7E94FF806155CF9091B902892F8E7FAF
:102BE00090FF81604ECF9091BA02892F877F93FF2B
:102BF00088604DCF81E0E4CFB0E0A0E0E2E0F6E114
:102C00000C944923E82FF0E0E459FE4FD490282F8C
:102C100026952695269530E0F901E45FFD4F049155
:102C2000877010E0082E02C0159507950A94E2F708
:102C300001701127F901E450FE4FE490F12C082EA9
:102C400002C0F594E7940A94E2F791E0E922FF24A8
:102C5000F901E451FE4FC491D0E002C0D595C7956B
:102C60008A95E2F7C170DD270115110519F081EE93
:102C70000E948303E114F10419F086EE0E9483039D
:102C80008D2D0E941B04E114F10419F086EE0E94C0
:102C9000D0030115110519F081EE0E94D003CD2B50
:102CA00019F08CE20E941B04CDB7DEB7E7E00C946C
:102CB0006523EF92FF920F931F93CF93DF93EC0165
:102CC000162F0AE08881882309F454C0813009F066
:102CD0004EC08981813099F47E0122E0E20EF11C20
:102CE0008A810E941B04E7012196812F815050F3B5
:102CF000EFE9FFE03197F1F700C00000F7CF823035
:102D000041F47E0182E0E80EF11C8A810E94830377
:102D1000EACF833041F47E01E2E0EE0EF11C8A81BD
:102D20000E94D003E0CF843011F02196DDCF2A81BC
:102D3000229690E080E0AE014F5F5F4F2053330B4F
:102D40002A30310548F0019778F2EFE9FFE031973A
:102D5000F1F700C00000F7CF089FB001099F700D88
:102D60001124C901860F971F2981EA01E4CF0E942F
:102D7000FC15BACFCDB7DEB7E6E00C94662384E04D
:102D8000089550E0440F551F98E1699F400D511D73
:102D9000112490EC899F400D511D1124CA01899680
:102DA00008950F931F93CF93DF938430C8F4683056
:102DB000B8F44C30A8F40E94C1168C010E949F23E5
:102DC000C82FD0E0DC2FCC27C80101960E949F239A
:102DD0009E01282BC901DF91CF911F910F9108957A
:102DE00090E080E0F8CF0F931F93CF93DF93122FE3
:102DF000032F843078F4683068F44C3058F40E9423
:102E0000C116EC01602F0E94BD23612FCE010196F7
:102E10000E94BD23DF91CF911F910F9108951F93C1
:102E2000CF93DF93D0E0C0E011C0412F6C2F8D2FE6
:102E30000E9403029C01412F6C2F8D2F0E94F316DC
:102E40001F5F1C3091F7CF5FC83011F010E0EDCF5D
:102E5000DF5FD43041F7DF91CF911F910895EF925A
:102E6000FF920F931F93CF93DF93EC018A017C01B4
:102E7000E60EF71ECE018996CE15DF0529F4CDB7F3
:102E8000DEB7E6E00C946623C11523E0D20740F4D8
:102E90000E949F23F80180830F5F1F4F2196EACF86
:102EA000F8011082F9CFB0E0A0E0E9E5F7E10C9479
:102EB00048237C016A018C01060F171FEC01CE012B
:102EC0008996C017D10729F4CDB7DEB7E8E00C9496
:102ED0006423C11523E0D20740F4FE01EE19FF0977
:102EE000EC0DFD1D60810E94BD232196E8CF84304A
:102EF00038F4683028F44C3018F40E94D116089544
:102F000090E080E0089580E1089587ED90E00895D5
:102F1000EF92FF920F931F93CF93DF93EC018A01FF
:102F20007C01E60EF71ECE01875D9C4FCE15DF05B6
:102F300029F4CDB7DEB7E6E00C946623C73DD10592
:102F400040F40E949F23F80180830F5F1F4F21965A
:102F5000EACFF8011082F9CFB0E0A0E0E2EBF7E1B0
:102F60000C9448237C016A018C01060F171FEC01A9
:102F7000CE01875D9C4FC017D10729F4CDB7DEB7CE
:102F8000E8E00C946423C73DD10540F4FE01EE193E
:102F9000FF09EC0DFD1D60810E94BD232196E8CF45
:102FA000CF93DF93C9E2D3E060E0CE010E94BD235E
:102FB0002196C11584E0D807B9F7DF91CF91089524
:102FC000A8E0B0E0E6EEF7E10C944623F82E8FE09F
:102FD0008F1508F46EC08FEF93E00E949F2381113C
:102FE00068C009E213E0F11035C0FE0131966F01AF
:102FF00088E011928A95E9F77801FFEFEF1AFF0A4E
:10300000C8010E949F2389831A82882309F451C032
:103010008130D1F4580182E0A80EB11CC7010E9492
:103020009F238A83882309F444C09FEF980F93302D
:10303000F0F4780193E0E90EF11CC5010E949F2392
:103040008B838823B1F11C8260E0C6010E9459166F
:103050008701D2CF011594E0190759F1C8010E94E8
:103060009F23811101C0FA940F5F1F4FBCCF7501E0
:10307000843051F702E010E07501EFEFEE1AFE0A1E
:10308000C5010E949F23F601E00FF11F8083882372
:1030900081F08C3741F4E2E0F0E0EC0FFD1FE00F2F
:1030A000F11F1082D1CF0F5F1F4F5701073011055D
:1030B00019F72896EAE00C946223CF93DF93EB0193
:1030C00086319C4711F50E94FC0A9D81992399F055
:1030D0008A7A91E009F490E090938B02811109C003
:1030E00089E20E94D40A0E94550B80E0DF91CF91C3
:1030F000089585E3F6CF80918B02811104C089E2A7
:103100000E94DC0AF0CF85E3FBCF81E0EFCF0F9385
:103110001F93CF93DF93C42FD22FFC018581882387
:10312000C9F040938E020E94911B90938D02809370
:103130008C0280E28C0F883040F4C77081E001C0BF
:10314000880FCA95EAF70E942404DF91CF911F915E
:103150000F91089510918E02141332C080918C0249
:1031600090918D020E94A91B883C910548F5C0E210
:10317000CD0F1D17B9F080E2810F883040F4177031
:1031800081E001C0880F1A95EAF70E942B04C8302D
:1031900048F481E09D2F977001C0880F9A95EAF757
:1031A0000E942404802F0E941B04C83070F6D77040
:1031B00081E001C0880FDA95EAF70E942B04C5CFA1
:1031C00080E28C0F883008F6C77081E001C0880F5C
:1031D000CA95EAF7F2CF0F93DB0188519C478730FD
:1031E0009105A0F5FC01EC5CFB4D0C94312306E24B
:1031F00021EE41EE6AE17CE7CD010E94871880E074
:103200000F91089507E225EE45EE6BE17CE7F4CFE0
:1032100006E221EE40EE68E17CE7EECF07E225EE24
:1032200044EE69E17CE7E8CF06E221EE42EE6CE194
:103230007CE7E2CF07E225EE46EE6DE17CE7DCCFEE
:1032400008E221E045EE6EE17CE7D6CF15968C9141
:10325000882319F010928E02D3CF81E0D1CF1F9333
:10326000CF93DF9387372CE7920759F0C1E0883777
:103270009C47E1F4FB01C581CC2371F10E947219D6
:1032800006C0FB01C581CC23B1F00E946F190E94DA
:10329000E6060E947519D82F0E947219C82F0E9445
:1032A0006F194D2F6C2F0E940E08C0E08C2FDF91FC
:1032B000CF911F9108950E946F190E94F2060E94FB
:1032C0007519182F0E947219D82F0E946F19412F5B
:1032D0006D2F0E940E08EACF0E947219EECF8091E6
:1032E0000C01089580910B01089580910A010895C1
:1032F00090939402809393020895E0919302F09149
:103300009402309729F00190F081E02D09950895FD
:1033100080E00895E0919302F0919402309799F043
:1033200020911501222359F02091B90227FF07C0EF
:10333000DC012C9111962C93119726E02C9302809E
:10334000F381E02D09950895E0919302F0919402A4
:10335000309739F022E0DC012C930480F581E02DD8
:1033600009950895A3E0B0E0E8EBF9E10C944E2351
:10337000209191023091920228173907A1F0909381
:10338000920280939102E0919302F091940230971F
:1033900051F023E029839B838A830680F781E02D07
:1033A000CE01019609952396E2E00C946A23A3E0EE
:1033B000B0E0EDEDF9E10C944E2320918F023091B5
:1033C000900228173907A1F09093900280938F0202
:1033D000E0919302F0919402309751F024E0298318
:1033E0009B838A830680F781E02DCE0101960995A3
:1033F0002396E2E00C946A23FC0132968091150139
:10340000882321F08091B9029EE187FF96E080E059
:10341000915008F4089521912223D1F38F5FF8CFC2
:10342000662301F1209115012223F1F02091B902C8
:1034300027FF1AC0462F4695469546954E3190F483
:10344000677021E030E002C0220F331F6A95E2F777
:10345000840F911DFC01828190E02823392381E0B3
:10346000232B69F480E00895FC013296089621919F
:10347000261721F0E817F907D1F7F4CF81E0089576
:103480009C01FC0132969FEF80E04191461751F07C
:103490009F3F19F4411101C0982F8F5F8630A9F723
:1034A0009F3F09F40895290F311D97FD3A95F901C1
:1034B00062830895FC01329608962191261303C079
:1034C000DF0111971C92E817F907B9F70895E62F65
:1034D000E695E695E695EE3168F4E80FF92FF11DD3
:1034E000677021E030E001C0220F6A95EAF782811F
:1034F000822B82830895E62FE695E695E695EE31D8
:1035000070F4E80FF92FF11D677021E030E001C081
:10351000220F6A95EAF72095828128232283089555
:1035200020911501222339F02091B90227FF03C011
:103530000E94671A08950E94401A0895209115016B
:10354000222339F02091B90227FF03C00E947B1A81
:1035500008950E945A1A0895FC013296809115012F
:10356000882351F08091B90287FF06C08EE1DF0108
:103570001D928A95E9F7089586E0F9CFDC01FB01F9
:1035800011969C9111978181981322C012968C916B
:103590001297882319F0928189131AC013968C917F
:1035A0001397882319F09381891312C015968C9173
:1035B0001597882319F0958189130AC014969C9158
:1035C000992321F081E02481291303C080E001C008
:1035D00081E08170089508950E94EB1A0895811189
:1035E00006C081E0809395020E94EC1A089582E063
:1035F000F9CF83E0809395020E94EC1A08950E940F
:10360000EF1A089581E0809395020E94EC1A0895C4
:103610000E94021B0895089508950E940C1B0895AE
:10362000089508950E940B1B0895CF930E94101BCC
:103630000E94B4100E94111BC0E08C2F0E94E90F61
:10364000892B31F4CF5FC830C1F780E0CF91089566
:1036500081E0FCCF85B7806885BF85B7806885BF6E
:1036600008951F921FB61F9211248F939F93AF93BB
:10367000BF9380919602811113C08091DB029091DB
:10368000DC02A091DD02B091DE024196A11DB11DC8
:103690008093DB029093DC02A093DD02B093DE0204
:1036A000BF91AF919F918F911F901FBE1F90189552
:1036B0008091E302843031F10E94F7021092960269
:1036C00088E190E020E40FB6F894A895809360001C
:1036D0000FBE2093600083B7817F846083BF83B770
:1036E000816083BF7894889583B78E7F83BF0FB640
:1036F000F894A89580916000886180936000109292
:1037000060000FBE08950E946E060E94FC0208959C
:1037100082E084BD93E095BD9AEF97BD80936E00E3
:1037200008952FB7F8948091DB029091DC02A0916C
:10373000DD02B091DE022FBF08952FB7F89460919B
:10374000DB027091DC028091DD029091DE022FBFDE
:1037500008959C014FB7F8948091DB029091DC02B0
:10376000A091DD02B091DE024FBF821B930B089542
:1037700078941F921FB61F9211248F939F93AF933B
:10378000BF938091DB029091DC02A091DD02B091A9
:10379000DE020196A11DB11D8093DB029093DC0235
:1037A000A093DD02B093DE02BF91AF919F918F9104
:1037B0001F901FBE1F90189587E797E79093010809
:1037C0008093000888E19AE00FB6F894A89580935A
:1037D00060000FBE90936000FFCF88E19AE00FB6C3
:1037E000F894A895809360000FBE90936000FFCF7F
:1037F0008091B70208959B01BA019091E302943041
:10380000E9F48F708093E9009FEF8091E800915078
:1038100085FD06C085ED8A95F1F700009111F5CF81
:103820008091E80085FF0AC050E040E0C9010E9495
:10383000471E8091E8008E778093E800089543E06A
:1038400050E0BC0184E00E94FB1B089546E050E07C
:10385000BC0184E00E94FB1B0895CF93DF93EC0131
:1038600080911501811111C048E050E0BE0181E056
:103870000E94FB1B80E2FE01A7E9B2E001900D92DD
:103880008A95E1F7DF91CF9108958091B90287FF82
:1038900005C040E284E050E0BE01EACF48E081E0AC
:1038A000FACF603231F440E250E0BC0182E00E9485
:1038B000FB1B08958091E202811109C00E9426201D
:1038C0000E9483208091E20084608093E20008954A
:1038D0001092E20208950E94021B08956091DF0297
:1038E00081E0611101C080E00E94F91A0895909171
:1038F000E30281E0943009F080E06091DF020E94F1
:10390000FF1A089542E061EC81E00E94A21F42E2AA
:1039100061EC84E00E94A21F42E261EC82E00E941E
:10392000A21F42E260EC83E00E94A21F9091E3029A
:1039300081E0943009F080E06091DF020E94EF1A8C
:1039400008958091E502833009F463C030F481303A
:10395000E1F1823009F4A0C008958A3009F48CC0E6
:103960008B3009F471C0893009F052C08091E402B3
:10397000813209F04DC08091E8029091E9020097F0
:1039800019F0029709F044C08091E800877F809386
:10399000E8008091E80082FF37C09091F3008091A9
:1039A000F200029731F48091F100813011F08630FD
:1039B00021F48091F1008093B7028091E8008B7729
:1039C0008093E8000E94D61F23C08091E402813AD0
:1039D000F9F48091E800877F8093E8008091E80205
:1039E0009091E902892B61F460E287E992E070E04E
:1039F0000E94E51E8091E8008B778093E80008958F
:103A000060E090E080E0F3CF8091E3028111C1CFCC
:103A100008958091E402813AD9F78091E80290916B
:103A2000E902892BA9F78091E800877F8093E8005D
:103A30008091E80080FFFCCF809115018093F10018
:103A40008091E8008E77BCCF8091E402813201F74B
:103A50008091E8029091E902892BD1F68091E800EB
:103A6000877F8093E8000E94D61F8091E6028093B2
:103A700015010E946E0608958091E402813241F69C
:103A80008091E800877F8093E8000E94D61F809194
:103A9000E7028093B80208958091E402813A09F028
:103AA000B7CF8091E800877F8093E8008091E8009D
:103AB00080FFFCCF8091B802C1CF84B7877F84BFDD
:103AC0000FB6F894A895809160008861809360009B
:103AD000109260000FBE80E890E00FB6F8948093DB
:103AE0006100909361000FBE0E94081B08950E9420
:103AF00026200E948320E2EEF0E0808184608083B3
:103B000078940E94022308958DE091E00E94781934
:103B100008958091E302853031F48091E30285308D
:103B200019F00E94831B08950E94581B8091E102A6
:103B3000882399F30E94151B882379F30E94311E74
:103B40000E946E06EACFA0E2B0E0E9EAFDE10C9443
:103B50004E238091E302843009F583E08093E900ED
:103B60008091E80082FF1AC08091E80090E085FF14
:103B700009C050E040E060E270E0CE0101960E9492
:103B8000961E91E08091E8008B778093E80099235E
:103B900029F060E2CE0101960E945314A096E2E063
:103BA0000C946A239A014091EA025091EB020E9420
:103BB000DA1D0895492F55274330510521F168F446
:103BC0004130510509F443C04230510509F444C065
:103BD00090E080E050E040E026C04132510551F1D4
:103BE00042325105A9F76330710590F7FB01EE0FE2
:103BF000FF1FE156FE4F4081518164567E4FFB010D
:103C0000808190E010C099278130910581F0009764
:103C100029F00297E9F6ECE1F2E002C0EAE3F2E013
:103C2000849190E0AF01F901518340830895EEE261
:103C3000F2E0F6CF6330710558F6660F771FFB018F
:103C4000EB55FE4F4081518189E090E0ECCF82E15D
:103C500090E049E952E0E7CF8BE590E04EE352E097
:103C6000E2CF80E189BD82E189BD09B400FEFDCFCC
:103C70008091D8008F7D8093D8008091E000826091
:103C80008093E0008091E00081FDFCCF0895AF9229
:103C9000BF92CF92DF92FF920F931F93CF93DF9348
:103CA0006C01EB018A010E94F51FF82E811123C0DF
:103CB0000115110539F0F80180819181C81BD90BDC
:103CC000C80ED91EB12CA12C2097A9F08091E80034
:103CD00085FD22C08091E8008E778093E800011571
:103CE0001105A1F0F80180819181A80EB91EB18261
:103CF000A08285E0F82E8F2DDF91CF911F910F913B
:103D0000FF90DF90CF90BF90AF9008950E94F51F75
:103D10008823D1F2F82EEFCFF60181916F018093C5
:103D2000F1002197FFEFAF1ABF0ACECFAF92BF923B
:103D3000CF92DF92FF920F931F93CF93DF936C018B
:103D4000EB018A010E94F51FF82E811123C0011595
:103D5000110539F0F80180819181C81BD90BC80E7B
:103D6000D91EB12CA12C2097A9F08091E80085FDE7
:103D700022C08091E8008B778093E800011511053F
:103D8000A1F0F80180819181A80EB91EB182A082B4
:103D900085E0F82E8F2DDF91CF911F910F91FF902D
:103DA000DF90CF90BF90AF9008950E94F51F8823B9
:103DB000D1F2F82EEFCF8091F100F60181936F01DF
:103DC0002197FFEFAF1ABF0ACECFFC018091EA0224
:103DD0009091EB0286179707A0F06115710529F401
:103DE0009091E8009E779093E80090E0611571054E
:103DF00051F4911108C08091E80082FF34C080E046
:103E00000895BC01F2CF8091E3028823C1F185308F
:103E1000C1F18091E80083FD30C08091E80082FD0F
:103E2000EACF8091E80080FFE1CF8091F3002091FC
:103E3000F200382F6115710519F02830310558F05E
:103E400091E02830310509F090E02091E8002E77CC
:103E50002093E800CBCF81918093F10061507109EC
:103E60002F5F3F4FE7CF8091E302882341F08530F9
:103E700041F08091E80083FFBECF81E0089582E0A9
:103E8000089583E00895FC018091EA029091EB028D
:103E900086179707A0F06115710529F48091E80055
:103EA0008E778093E80090E06115710551F49111CF
:103EB00008C08091E80082FF35C080E00895BC0111
:103EC000F2CF8091E3028823C9F18530C9F1809156
:103ED000E80083FD31C08091E80082FDEACF809147
:103EE000E80080FFE1CF8091F3002091F200382FAD
:103EF0006115710519F02830310558F091E028302E
:103F0000310509F090E08091E8008E778093E80019
:103F1000CBCF84918093F1003196615071092F5F6E
:103F20003F4FE6CF8091E302882341F0853041F096
:103F30008091E80083FFBDCF81E0089582E008957D
:103F400083E00895982F973028F08F708093E900D0
:103F500081E008959093E900242F762F50E0981780
:103F600031F07091EC002091ED005091F00021FDB6
:103F700002C09F5FE8CF3091EB003E7F3093EB00B3
:103F80003091ED003D7F3093ED003091EB003160DA
:103F90003093EB007093EC002093ED005093F00011
:103FA0002091EE0027FDE5CF80E008958091E402A6
:103FB00087FF13C08091E80082FF06C08091E8006F
:103FC0008B778093E80004C08091E3028111F2CFE7
:103FD00008958091E3028823D9F38091E80080FF5F
:103FE000F8CF8091E8008E77ECCF2091E4003091FB
:103FF000E50095E6A9012091EC00822F817020FF59
:1040000006C08091E80080FF06C080E008952091FE
:10401000E80022FD1AC08091E302882389F08530F0
:1040200089F08091EB0085FD0FC02091E400309174
:10403000E50042175307F9F29150E1F684E0089544
:1040400082E0089583E0089581E008950E9495201C
:104050000E949D20E0EEF0E0808181608083E8EDA9
:10406000F0E080818F77808319BCA7EDB0E08C9160
:104070008E7F8C9380818F7E80831092E2020895E0
:104080000F931F93CF93DF930E9495200E949D2052
:10409000C8EDD0E088818F778883888180688883A5
:1040A00088818F7D888319BC1092E3021092DF0211
:1040B0001092E1021092E00200EE10E0F80180811F
:1040C0008B7F808388818160888342E060E080E02C
:1040D0000E94A21FE1EEF0E080818E7F8083E2EEFD
:1040E000F0E0808181608083808188608083F80136
:1040F00080818E7F8083888180618883DF91CF91EA
:104100001F910F910895E8EDF0E080818F7E80830C
:10411000E7EDF0E080818160808384E082BF81E010
:104120008093E2020E9440200895E8EDF0E0808153
:104130008E7F80831092E20008951092DA00109230
:10414000E10008951F920F920FB60F9211242F9342
:104150003F934F935F936F937F938F939F93AF930F
:10416000BF93EF93FF938091E10082FF0BC080919A
:10417000E20082FF07C08091E1008B7F8093E10025
:104180000E9401238091DA0080FF19C08091D8003D
:1041900080FF15C08091DA008E7F8093DA008091D5
:1041A000D90080FF96C080E189BD82E189BD09B454
:1041B00000FEFDCF81E08093E3020E945A1C8091B3
:1041C000E10080FF19C08091E20080FF15C080915E
:1041D000E2008E7F8093E2008091E2008061809314
:1041E000E2008091D80080628093D80019BC85E0FD
:1041F0008093E3020E946E1C8091E10084FF2BC03B
:104200008091E20084FF27C080E189BD82E189BD01
:1042100089B5982F917080FFFBCF8091D8008F7D5A
:104220008093D8008091E1008F7E8093E10080919F
:10423000E2008F7E8093E2008091E20081608093B3
:10424000E2008091DF02882309F449C084E0809372
:10425000E3020E94771C8091E10083FF29C08091D6
:10426000E20083FF25C08091E100877F8093E10019
:1042700082E08093E3021092DF028091E1008E7F62
:104280008093E1008091E2008E7F8093E200809134
:10429000E20080618093E20042E060E080E00E9402
:1042A000A21F8091F00088608093F0000E946B1C38
:1042B000FF91EF91BF91AF919F918F917F916F91FE
:1042C0005F914F913F912F910F900FBE0F901F90D4
:1042D000189519BC1092E3020E94681C70CF80915F
:1042E000E30087FD93E09093E302B3CF1F920F9218
:1042F0000FB60F9211242F933F934F935F936F93B9
:104300007F938F939F93AF93BF93CF93DF93EF935D
:10431000FF93D091E900DF708091EC00C82FC1704D
:1043200080FDC0E81092E9008091F000877F8093C3
:10433000F00078940E94BA211092E9008091F00078
:1043400088608093F000CD2BCF70C093E900FF917F
:10435000EF91DF91CF91BF91AF919F918F917F911D
:104360006F915F914F913F912F910F900FBE0F90E2
:104370001F901895AAE2B0E0E0ECF1E20C944D2316
:1043800084EE92E02091F100FC012193CF01F2E054
:104390008C3E9F07B9F70E94A11C8091E80083FF23
:1043A0001EC18091E4029091E5029A3008F017C195
:1043B000E92FF0E0E55CFB4D0C943123803899F057
:1043C000823809F00CC18091E8028F70873008F0C4
:1043D00006C18093E9008091EB0085FB882780F976
:1043E0001092E90006C08091E0029091E1029111E3
:1043F00082609091E800977F9093E8008093F100AD
:104400001092F1008091E8008E77E5C0882309F4CE
:10441000D3C0823009F0E3C08091E6028111D6C09A
:104420008091E8028F702FEF280F263008F0D7C058
:104430008093E9002091EB0020FFC8C0933031F455
:104440008091EB0080628093EB00C0C09091EB0004
:1044500090619093EB0021E030E001C0220F8A953B
:10446000EAF72093EA001092EA008091EB0088605E
:10447000EACF8111B4C01091E6021F778091E3006A
:104480008078812B8093E3008091E800877F809380
:10449000E8000E94D61F8091E80080FFFCCF809149
:1044A000E30080688093E30082E0111183E0809351
:1044B000E30295C08058823008F091C08091E602F6
:1044C0009091E7028C3D23E09207A1F583E08A8377
:1044D0008AE289834FB7F894DE01139620E03EE02C
:1044E00051E2E32FF0E050935700E49120FF03C026
:1044F000E295EF703F5FEF708E2F90E0EA30C0F0F2
:10450000C7968D939D932F5F243159F74FBF8091AC
:10451000E800877F8093E8006AE270E0CE010196B0
:104520000E94E51E8091E8008B778093E80057C0D9
:10453000C096E7CF6091E8027091E902AE014F5F4B
:104540005F4F0E94D21DBC01892B09F448C0909195
:10455000E800977F9093E80089819A810E94431F29
:10456000E1CF8038E1F58091E800877F8093E80013
:104570008091DF028093F10045CF811130C090918E
:10458000E602923060F58091E800877F8093E80032
:104590009093DF020E94D61F8091DF02882311F0E2
:1045A00084E005C08091E30087FDFACF81E080932D
:1045B000E3020E94821C13C08091E602813079F4EC
:1045C00081E0933009F080E08093E1021092E900ED
:1045D0008091E800877F8093E8000E94D61F809139
:1045E000E80083FF0AC08091E800877F8093E8009D
:1045F0008091EB0080628093EB00AA96E3E00C943C
:1046000069230895CF938091E3028823A1F0C0919C
:10461000E900CF709091EC00892F817090FD80E8C7
:10462000C82B1092E9008091E80083FD0E94BA2116
:10463000CF70C093E900CF91089597FB072E16F431
:10464000009407D077FD09D00E94752307FC05D0A0
:104650003EF4909581959F4F0895709561957F4F99
:104660000895EE0FFF1F0590F491E02D099469273E
:104670009627692778278727782708952F923F92D2
:104680004F925F926F927F928F929F92AF92BF9262
:10469000CF92DF92EF92FF920F931F93CF93DF930E
:1046A000CDB7DEB7CA1BDB0B0FB6F894DEBF0FBE6B
:1046B000CDBF09942A88398848885F846E847D84B8
:1046C0008C849B84AA84B984C884DF80EE80FD80BA
:1046D0000C811B81AA81B981CE0FD11D0FB6F89430
:1046E000DEBF0FBECDBFED010895AA1BBB1B51E17C
:1046F00007C0AA1FBB1FA617B70710F0A61BB70B52
:10470000881F991F5A95A9F780959095BC01CD01F6
:104710000895FB01DC0104C08D910190801921F402
:1047200041505040C8F7881B990B0895FB01DC01EC
:1047300002C001900D9241505040D8F70895F99968
:10474000FECF92BD81BDF89A992780B50895A8E162
:10475000B0E042E050E00C94E323DC01A40FB51F6D
:104760004150504048F0CB01840F951F2E910E947C
:10477000BE2341505040D0F70895262FF999FECF1F
:1047800092BD81BDF89A019700B4021639F01FBAA4
:1047900020BD0FB6F894FA9AF99A0FBE08950396C1
:1047A000272F0E94BE230E94BD23252F0E94BE23D7
:1047B000242F0C94BE230196272F0E94BE230C9415
:1047C000BD23DC01CB01FC01F999FECF06C0F2BD8F
:1047D000E1BDF89A319600B40D9241505040B8F7BF
:1047E0000895F894FFCF71047104C104C104260533
:1047F0004205A004A0044705AE05BD05BD0568142B
:104800007414AA14BC14C714D214D514D514D51416
:104810007A147A14DA14DE14E614F314001503156E
:10482000061513157815EC1580154A154E158415C7
:104830005215881594155E15E515621598156615BF
:104840009C15C4156A15A015CB157015A615AE15C7
:1048500056158C155A1590157415AA15BA15D41538
:10486000E31544157C15F31508190E19F7180219EC
:1048700014191A192019DE210622EF220622EF222E
:0A48800039225A22EF22B122BD2294
:10488A003E02280850011E0A1401030201F81B2DDA
:10489A001C261C1F1C01E200E900EA00B500B60054
:1048AA00B700CD008301CC008A0192019401210254
:1048BA00230224022502260227022A02B300B40098
:1048CA006F0070009F01CB019F02A002818283E2E8
:1048DA0000E900EA00B500B600B700CD008301CCBC
:1048EA00008A019201940121022302240225022650
:1048FA000227022A02B300B4006F0070009F01CBA6
:10490A00019F02A002818283F5F633363291909498
:10491A006697C6F4353431F7000000004422B683A6
:0C492A0003AB02CD0250026902890200BA
:00000001FF
